:020000040800F2
:10000000D0370120590200083D2700082D220008A2
:10001000072700080D0E0008DD3C00080000000066
:10002000000000000000000000000000A101000826
:100030007110000800000000F50100087931000887
:1000400073020008730200087302000873020008BC
:1000500073020008730200087302000873020008AC
:10006000730200087302000873020008730200089C
:10007000730200087302000873020008730200088C
:10008000730200087302000873020008730200087C
:10009000730200087302000873020008730200086C
:1000A0007302000873020008730200083933000865
:1000B000730200087302000873020008730200084C
:1000C000730200087302000873020008730200083C
:1000D0007302000851360008DD3600082D3800088C
:1000E000730200087302000873020008730200081C
:1000F000730200087302000873020008730200080C
:100100007302000873020008A53300087302000898
:1001100073020008730200087302000873020008EB
:1001200073020008730200087302000873020008DB
:1001300073020008730200087302000873020008CB
:1001400073020008730200087302000873020008BB
:1001500073020008730200087302000873020008AB
:10016000730200087302000873020008730200089B
:10017000730200087302000873020008730200088B
:100180007302000873020008DFF810D000F05CFC76
:1001900000480047F1470008AFF30080D037012046
:1001A0002A4B19680868B0E8F04F80F30988BFF35C
:1001B0006F8F4FF0000080F311887047000000003F
:1001C00006480068006880F3088862B661B6BFF32D
:1001D0004F8FBFF36F8F00DF00BF00BF08ED00E05F
:1001E000DFF80C00016841F470010160704700BF46
:1001F00088ED00E0EFF30980BFF36F8F134B1A68AF
:100200001EF0100F08BF20ED108A20E9F04F10609B
:1002100008B44FF0500080F31188BFF34F8FBFF345
:100220006F8F05F079FD4FF0000080F3118808BC56
:1002300019680868B0E8F04F1EF0100F08BFB0EC66
:10024000108A80F30988BFF36F8F704790000020F9
:10025000EFF30580704700000648804706480047D6
:10026000FEE7FEE7FEE7FEE7FEE7FEE7FEE7FEE766
:10027000FEE7FEE7AD3100088901000840EA01030E
:100280009B0703D009E008C9121F08C0042AFAD24C
:1002900003E011F8013B00F8013B521EF9D2704710
:1002A000D2B201E000F8012B491EFBD270470022B8
:1002B000F6E710B513460A4604461946FFF7F0FF65
:1002C000204610BD30B505462A460B4612F8010BF4
:1002D00013F8014B08B1A042F8D01CB1002802D09D
:1002E0006D1CF1E7284630BD421C10F8011B0029A7
:1002F000FBD1801A704710B5002200E0521C835CCD
:100300008C5CA34201D1002BF8D1D8B2E1B2401AE3
:1003100010BD034611F8012B00F8012B002AF9D17A
:10032000184670470FB400B58DB010A909900B9016
:1003300000914FF0FF300A9000200C900548069085
:10034000054807906A4609A80F9900F0D9FA0DB040
:100350005DF814FB1D0900083B0900082DE9FF5F4B
:100360001D464FF0FF3BD5E9014691465F464FF0F1
:100370000008A9697F1C01988847296A8246884736
:100380000028F6D1BAF1FF3F0CD024F4C064002E4F
:1003900019DD600614D5BAF12B0F09D0BAF12D0F73
:1003A0000ED103E0584604B0BDE8F09F44F48064E9
:1003B000A9697F1C01988847761E8246002E02DDBF
:1003C000BAF1300F03D0B9F1000F26D032E0A9699D
:1003D000761E44F400747F1C019888478246002EE4
:1003E00005DDBAF1780F06D0BAF1580F03D0B9F194
:1003F000000F10D01EE0B9F1000F02D0B9F1100FBC
:1004000018D1A969761E24F400747F1C01988847CE
:100410008246102002E0082000E00A20814609E020
:1004200008FB0908A969761E44F400747F1C019832
:1004300088478246002E05DD4946504600F04CFABA
:100440000028EDDAE96901988847A00502D46FF029
:100450000100A8E7E00725D1600613D5600502D5A5
:10046000C8F1000000E0404629680A1D2A600968BA
:10047000220501D5087015E0220701D5088011E09A
:1004800008600FE02868011D29600068210502D579
:1004900080F8008006E0210702D5A0F8008001E086
:1004A000C0F8008038467EE72DE9FE4F804681EA9D
:1004B0000300C00F0C46009021F0004123F00045DE
:1004C000B8EB0200A94105D24046214690461C46A1
:1004D0000B46024623F00040104347D0270DC7F3D8
:1004E0000A00C3F30A510290401A019040286BDAC7
:1004F000C3F3130040F4801B0098924620B1002300
:10050000D2EB030A63EB0B0B01985946C0F1400292
:10051000504600F0B0F906460D4650465946019A3D
:1005200000F0C8F910EB08006141002487EA11527D
:1005300084EAE7731A4340D0009A62B3019A012A11
:100540004FEA075215DC001B61EB02014FF000423D
:1005500002EA0752CDE90042001C41F58011324603
:100560002B4600F00AFA03B0BDE8F08F4046214662
:10057000F9E7001B61EB0201001C41F58013001834
:100580005B412018A2F5001747EB030140EAD57044
:10059000B6196D4111E06D084FEA360645EAC0759F
:1005A0004FEA0752001B61EB0201001C41F580116C
:1005B00049084FEA30000019514132462B4603B03A
:1005C000BDE8F04F00F0CAB90098012240000023B6
:1005D000D0EB020263EBE073009821464FEAE0742F
:1005E000B8EB000061EB0401E9E783F000435BE74F
:1005F00081F0004158E72DE9FE4F81EA030404F041
:10060000004421F0004100944FF0000B23F0004320
:1006100050EA01045ED052EA03045BD0C3F30A54EB
:10062000C1F30A552C44A4F2F3340194A0FB025404
:10063000C1F3130141F48011C3F3130343F4801396
:1006400001FB024400FB034E840A970A44EA8154EA
:1006500047EA8357A4FB076802958D0A05FB0785C7
:100660004FEA932C04FB0C542705029D4FEA0658D1
:1006700047EA1637B5EB08056EEB070C870E920EAE
:1006800047EA811742EA8312A7FB0201B6EB0B018E
:1006900064EB00042B0D43EA0C335E1844EB1C5052
:1006A000DA465146E7FB0201C5F313044FEA0B3368
:1006B00043EA14534FEA0432019C43EA0603A4F1CF
:1006C0000C040294009CCDE900B400F056F903B08C
:1006D000BDE8F08F00200146F9E72DE9F04D81EAF1
:1006E000030404F0004B21F0004514464FF0000ACB
:1006F00023F0004150EA050220D054EA01021DD047
:10070000C5F30A570246C5F31303C1F31300C1F33F
:100710000A5640F4801543F48013A7EB0608101B1B
:10072000D64608F2FD3873EB050002D308F1010844
:1007300001E092185B41B8F1000F03DA0020014696
:10074000BDE8F08D00204FF48011064684460EE08F
:10075000171B73EB050705D3121B63EB0503064359
:100760004CEA010C49084FEA300092185B4150EA0C
:100770000107EDD152EA030012D082EA040083EAB5
:100780000501084305D0101BAB4106D2012200230E
:1007900006E000224FF0004302E06FF00102531028
:1007A0001AEB06004CEB085110EB0A0041EB0B0171
:1007B000BDE8F04D00F0D2B830B5041E71F1000470
:1007C00004DB4FF00044404264EB0101141E73F15E
:1007D000000405DB1C464FF00043524263EB040368
:1007E000994208BF904230BD30B50B46014600200B
:1007F0002022012409E021FA02F59D4205D303FAE3
:1008000002F5491B04FA02F52844151EA2F1010263
:10081000F1DC30BD2DE9F05F0546002092469B4695
:1008200088460646814640241BE028464146474606
:10083000224600F02FF853465A46C01A914110D371
:1008400011461846224600F016F82D1A67EB0108EB
:100850004F4622460120002100F00DF817EB000959
:100860004E41201EA4F10104DFDC484631462A46F1
:100870004346BDE8F09F202A04DB203A00FA02F14B
:10088000002070479140C2F1200320FA03F319437E
:1008900090407047202A04DB203A21FA02F0002120
:1008A000704721FA02F3D040C2F120029140084380
:1008B00019467047202A06DBCB17203A41FA02F08E
:1008C00043EAE07306E041FA02F3D040C2F12002AD
:1008D00091400843194670473A2800D2303820F03A
:1008E0002002412A01D3A2F13700884201D34FF000
:1008F000FF30704702681144137801601846704752
:10090000D16004495161044911620021116111460D
:1009100000F0B2B8F50800086D0A0008426842B15C
:10092000016811F8013B23B1521EC0E900121846BC
:1009300070470121C160881E704742685AB1C36880
:10094000016843B983688B4205D0491E521CC0E937
:100950000012002070474FF0FF30704710B5141E92
:1009600073F1000408DA401C41F1000192185B4168
:100970001A4301D120F0010010BD2DE9F04D92463F
:100980009B4611B1B1FA81F202E0B0FA80F2203256
:100990009046FFF770FF04460F4640EA0A0041EA1E
:1009A0000B0153465A46084313D0114653EA01003F
:1009B00019D0C8F140025046FFF76CFF05460E46BD
:1009C000504659464246FFF756FF084305D00120DE
:1009D00004E020463946BDE8F08D0020054346EA94
:1009E000E0762C4337430A986305E40AA0EB08003D
:1009F0000022FD0A44EA47540A3002D5002001468D
:100A0000E9E7010510196941DDE908450019694167
:100A1000BDE8F04DA2E7C1F30A52C1F3130140F261
:100A2000FF3341F480119A4202DA002001467047F8
:100A300040F233439A42A2F2334202DC5242FFF7C1
:100A400029BFFFF718BF0000064C074D06E0E0681D
:100A500040F0010394E8070098471034AC42F6D305
:100A6000FFF796FB087E0008287E0008C0B24FF40E
:100A7000F05100F099B900002DE9F34F8BB04FF021
:100A8000000801F10C000C464FF0010B46460DF139
:100A9000080A01906269012101989047051E2DD036
:100AA000252D2CD0216A8847C0B1626901210198A7
:100AB0009047216A88470028F7D1411E6269019852
:100AC000904700E0761CA1690B988847216A884707
:100AD0000028F7D1E1690B988847DBE7A1690B98FB
:100AE00088470746A84201D1761CD3E7E1690B98F5
:100AF00088477F1C02D1B8F1000F6FD047E1002773
:100B000062693D463946019890472A2804D16269B6
:100B10000121019890470125DFF88892626901213F
:100B200001989047A0F130010A290AD24F45E5DC2F
:100B300007EB870100EB4107303FDFD445F010059C
:100B4000ECE7E90601D46FF000476C280AD04C2886
:100B500014D0682815D06A280DD074281CD07A28A3
:100B60001AD01DE062690121019890476C2802D0DB
:100B700045F0040514E045F002050DE045F02005C0
:100B80000AE06269012101989047682802D045F087
:100B9000080505E045F40065626901210198904768
:100BA000C4E9015765283DD019DC58287AD00CDCFF
:100BB000452837D004DC252826D0412831D131E022
:100BC00046282FD047282CD12CE05B2877D06128ED
:100BD00028D063287CD0642823D15AE0D1E06F2844
:100BE00048D008DC66281DD067281BD0692821D092
:100BF0006E2816D127E0702845D0732868D0752854
:100C000047D078280DD14DE0A1690B98884705465B
:100C100025283FF469AFE1690B9888476D1C3FF4C4
:100C20006AAFB4E023466A466FF001000B99AFF358
:100C300000809FE045F040006060A80723464FF029
:100C4000000236D43EE0E8077FF447AF2068011D7C
:100C500021600068290501D506701BE7290701D529
:100C6000068017E7A90703D5F117C0E9006111E76E
:100C700006600FE745F040006060A80723464FF08C
:100C8000080216D41EE040F60E0125EA010060605D
:100C900016E045F040006060A80723464FF00A02C6
:100CA00007D40FE045F040006060A80708D5234650
:100CB00010226FF001000B99AFF300805AE007E0BB
:100CC000234610226FF001000B99FFF747FB51E01C
:100CD0004FF000094F464B46632802D05B2807D0EF
:100CE00041E02079C00601D40120A06001273AE04C
:100CF00062690121019890475E2805D14FF00109F2
:100D00006269494601989047216939B900210A462C
:100D1000534643F82120491C0829FADBB0B3216966
:100D200069B9C11700EBD16253110AEB830122F0BC
:100D30001F02821A01200B68904003430B60626916
:100D40000121019890475D28E8D1B9F1000F09D041
:100D50000020514651F82020D24341F82020401C69
:100D60000828F7DB02AB224600976FF001000B99D1
:100D7000AFF3008000280CDA401C08D1BBF1000F53
:100D800005D04FF0FF300DB0BDE8F08FFFE74046D3
:100D9000F9E7E90701D108F1010806444FF0000B1B
:100DA00078E60000CCCCCC0C7F2801D9002208E0EA
:100DB000064A02EB5002C007127800D1120902F075
:100DC0000F0201209040084070470000C87D0008D5
:100DD0001CB50121084602F07DF88020009001201A
:100DE0008DF8040003208DF8050000208DF8070021
:100DF0008DF806006946034801F028F801200249F1
:100E000008601CBD000002409C02404200BFFEE79B
:100E10000246094B9A4201D2084801E006481038C0
:100E200001F000531BB1064B0B40C36002E0044BC2
:100E30000B40836070470000106402400060024075
:100E40007D0F7D0F21B1026842F00102026003E0D4
:100E5000026822F00102026070470000016821F080
:100E6000010101600021016041608160C160016198
:100E7000212141614A49884204D13D21484A103A22
:100E800091608CE046491831884205D14FF4746175
:100E9000434A103A916082E041493031884205D19D
:100EA0004FF474113E4A103A916078E03C49483161
:100EB000884205D14FF07461394A103A91606EE072
:100EC00037496031884204D13649354A103AD160F9
:100ED00065E033497831884204D13349304A103AC9
:100EE000D1605CE02E499031884204D12F492C4AD0
:100EF000103AD16053E02A49A831884205D14FF019
:100F00003D51274A103AD16049E02949884204D12D
:100F10003D21274A083A116041E0254918318842AD
:100F200005D14FF47461224A083A116037E0204934
:100F30003031884205D14FF474111D4A083A1160CE
:100F40002DE01B494831884205D14FF07461184AA1
:100F5000083A116023E016496031884204D11149F2
:100F6000134A121F11601AE011497831884204D1E6
:100F70000D490F4A121F116011E00D49903188424E
:100F800004D10A490A4A121F116008E00849A83131
:100F9000884204D14FF03D51054A121F116070473D
:100FA000106002403D000020400F002000003D2066
:100FB00010640240014600200A6802F001020AB1F2
:100FC000012000E0002070470146486880B2704769
:100FD00030B503460A46002000240B4DAB4201D237
:100FE0000A4901E00849103902F000550DB14C687A
:100FF00000E00C68064D2C4004EA02050DB101200A
:1010000000E0002030BD000010640240006002409B
:101010007D0F7D0F10B500220268134B1A40CC687B
:101020000B6823434C6923438C692343CC692343D6
:101030000C6A23434C6A23438C6A23434C6B23433F
:101040008C6B23431A430260426922F00702D1E904
:101050000B3423431A4342610B6943604B6883603E
:101060008B68C36010BD00003F801CF0416070477A
:101070007047000070B5044605F006FB012810D04B
:101080000B480088844206D309480088B4FBF0F579
:10109000284604F00FFD06480088B4FBF0F100FB81
:1010A00011444FF47A7104FB01F000F003F870BDB5
:1010B000640000202DE9F04707460026B0464FF0B7
:1010C000E020D0F81490164800681649B0FBF1F003
:1010D00000FB07FA4FF0E020856904F015FE19E0E7
:1010E0004FF0E0208469AC420CD0AC4202D2281B05
:1010F000064403E0A9EB040028440644254656456F
:1011000000D308E04FF0E020D0F8108008F0010094
:1011100000B900E0E4E700BF05F078FCBDE8F08727
:101120002000002040420F0001460D48007830B1F9
:101130000C48016000200A4A107008467047C1EB55
:1011400001108000074A126802EB820200EBC20025
:101150006422B0FBF2F0034A106010460068EDE72D
:10116000500000204C00002070B505460C462E466D
:1011700013E00C48007801280BD131460A48FFF7EC
:10118000A1F818B100200749087070BD002005497A
:1011900008700A2004F08EFC0A3C002CE9DC4FF0B9
:1011A000FF30F2E76A0000203C05002070B5A0B0D7
:1011B00004460D4617A000F09DFC41F2883119A0AD
:1011C000FFF7D2FF401C18B94FF0FF3020B070BDC0
:1011D0004FF4FA7004F06EFC2B46224612A16846CA
:1011E00002F08EFD0646684600F084FC41F288312C
:1011F00013A0FFF7B9FF401C48B941F2883109A09C
:10120000FFF7B2FF401C10B94FF0FF30DEE70020BF
:10121000DCE7000041542B43574D4F44453D310D11
:101220000A0000004F4B000041542B43574A4150E5
:101230003D222573222C222573220D0A0000000076
:101240005749464920474F542049500030B5A1B076
:101250000446802101A8FFF72AF800254CF25132FC
:101260001BA11EA000F0A6F80546002D06DA1CA062
:1012700002F036FD4FF0FF3021B030BD20A002F06B
:101280002FFD4FF4FA7004F015FC00F031FA05461A
:10129000002D05DA24A002F023FD4FF0FF30EBE72C
:1012A0002DA002F01DFD4FF4FA7004F003FC22465D
:1012B00036A101A802F024FD01A800F053FC4FF470
:1012C000FA7004F0F7FB33A002F00AFD0020D3E728
:1012D000382E3133382E382E3231380054435000F6
:1012E000455350383236365F436F6E6E65637453C4
:1012F0006572766572206572726F72210D0A000048
:1013000030313A20455350383236365F436F6E6E77
:101310006563745365727665722073756363657374
:1013200073210D0A00000000455350383236365FF5
:10133000456E7465725472616E73706172656E741D
:101340005472616E736D697373696F6E206572722A
:101350006F72210D0A00000030323A204553503898
:101360003236365F456E7465725472616E737061A9
:1013700072656E745472616E736D697373696F6EAA
:101380002073756363657373210D0A0023726567AB
:101390002025730030323A20455350383236365FBC
:1013A00053656E644D736720737563636573732152
:1013B0000D0A000070B5A2B004460D461646802105
:1013C00002A8FEF774FF2B4622460EA102A8009643
:1013D00002F096FC02A800F08DFB41F2883110A0CB
:1013E000FFF7C2FE401C50B941F288310EA0FFF752
:1013F000BBFE401C18B94FF0FF3022B070BD00207A
:10140000FBE7000041542B43495053544152543D93
:10141000222573222C222573222C25640D0A00001C
:10142000434F4E4E454354004F4B0000002400BF35
:1014300042A002F055FC7FE000214948006804F01A
:10144000B1FC054605F0200090B146A002F048FC32
:1014500040F6B83004F02EFB20214148006804F02B
:10146000A1FC40213E48006804F0D7FC002463E062
:1014700005F0400038B147A002F032FC472138485F
:10148000006804F08FFC05F00100002822D148A07C
:1014900002F026FC00F070F948B94DA002F020FCE3
:1014A00001212F48006804F0B8FC002440E0601CD3
:1014B000C4B2032221464EA002F012FC032C04DB2E
:1014C00020212748006804F0A8FC4FF4FA6004F0DB
:1014D000F1FA2DE005F00200002829D14BA002F01E
:1014E000FFFB53A0FFF7B2FE80B953A002F0F8FB58
:1014F0004FF47A7004F0DEFA0E211948006804F007
:101500008CFC002455A002F0EBFB11E0601CC4B27F
:10151000032221465CA002F0E3FB032C04DB202124
:101520000F48006804F079FC40F6B83004F0C2FAC5
:10153000642004F0BFFA00BF7EE700004553503836
:1015400032363620636F6E6E656374207461736B20
:10155000207374617274202E2E2E200D0A0000005C
:1015600000000020455350383236363A20657272FA
:101570006F72207374617475732C20726574727944
:10158000206166746572203573202E2E2E200D0A80
:1015900000000000455350383236363A2062656705
:1015A000696E207265747279202E2E2E200D0A002D
:1015B000455350383236363A20626567696E206C82
:1015C000696E6B2057694669202E2E2E200D0A0069
:1015D000455350383236363A2057694669E8BF9E3F
:1015E000E68EA5E68890E58A9F21200D0A0000007E
:1015F000455350383236363A206C696E6B2065722E
:10160000726F722025642F25640D0A0045535038EF
:101610003236363A20626567696E206C696E6B20DF
:10162000736572766572202E2E2E200D0A00000042
:1016300073746D3332000000455350383236363AF9
:1016400020736572766572206C696E6B20737563AA
:101650006365737321200D0A000000004553503864
:101660003236363A2073797374656D207265616421
:10167000792C2063616E2073656E64206D657373D1
:1016800061676521200D0A00455350383236363ADD
:1016900020736572766572206C696E6B206572725C
:1016A0006F722025642F25640D0A000010B50446D2
:1016B000012C03D109A000F01DFA02E009A000F0FE
:1016C00019FA41F2883109A0FFF74EFD401C10B90C
:1016D0004FF0FF3010BD0020FCE7000041544531C1
:1016E0000D0A0000415445300D0A00004F4B000028
:1016F00010B50FA000F0FEF941F2883110A0FFF7FD
:1017000033FD401C10B94FF0FF3010BD0DA000F0AC
:10171000F1F941F288310AA0FFF726FD401C10B90B
:101720006FF00200F1E701200A4908700020ECE7A1
:1017300041542B4349504D4F44453D310D0A000063
:101740004F4B000041542B43495053454E440D0A22
:10175000000000005A00002010B505A000F0CAF9F2
:101760004FF4FA7004F0A6F900200249087010BD89
:101770002B2B2B005A00002010B50024FFF7ECFFA4
:101780000446002C05DA24A002F0AAFA4FF0FF303C
:1017900010BD2DA002F0A4FA4FF4FA7004F08AF9FB
:1017A00000F07EF90446002C05DA33A002F098FA26
:1017B0006FF00100ECE736A002F092FA4FF4FA70F5
:1017C00004F078F90020FFF771FF0446002C05DAD9
:1017D00035A002F085FA6FF00200D9E738A002F0D8
:1017E0007FFA4FF4FA7004F065F93DA140A0FFF7CD
:1017F000DDFC0446002C05DA3EA002F071FA6FF021
:101800000200C5E742A002F06BFA4FF4FA7004F050
:1018100051F90020BCE70000455350383236365F9E
:10182000457869745472616E73706172656E745438
:1018300072616E736D697373696F6E206572726F1A
:1018400072210D0A00000000455350383236365FD1
:10185000457869745472616E73706172656E745408
:1018600072616E736D697373696F6E2073756363F4
:10187000657373210D0A0000455350383236365FC8
:10188000527374206572726F72210D0A000000009D
:10189000455350383236365F527374207375636324
:1018A000657373210D0A0000455350383236365F98
:1018B000456E4563686F206572726F72210D0A0074
:1018C00030333A20455350383236365F456E4563E3
:1018D000686F2073756363657373210D0A000000E0
:1018E0003131323233343535363637380000000086
:1018F000616A6C00455350383236365F436F6E6E06
:101900006563744170206572726F72210D0A000068
:1019100030343A20455350383236365F436F6E6E5E
:1019200065637441702073756363657373210D0A79
:1019300000000000A2B05EE02F480078012857D1D7
:101940002E480078012853D104F0DEF92C492DA04F
:1019500002F0C6F92A4902A8FEF7DBFC80212848DC
:1019600002F03CF900202549087005F04FF80A22E2
:1019700029A102A800F0B4FE38B92AA002F0B0F9FB
:1019800080212F48006804F048FA2EA102A8FEF733
:1019900099FC10B101202C4908702CA102A8FEF777
:1019A00091FC10B100202849087029A102A8FEF777
:1019B00089FC00281CD027A102A8FEF783FCB8B13F
:1019C0000020019000906B4601AA24A102A8FEF716
:1019D000A9FC022808D124490198086023490098ED
:1019E000086001F01BFB02E021A002F079F900BFC2
:1019F000642004F05FF89FE75A0000206A0000208E
:101A00003C05002075335F72656376627566203D24
:101A10003D2025730D0A00002368656172746265BC
:101A2000617400007265636569766520686561723E
:101A3000742062656174206563686F0D0A000000A0
:101A4000000000206F6E0000590000206F666600E5
:101A500075700000646F776E00000000757025647B
:101A6000646F776E25640000440000204800002069
:101A7000E695B0E68DAEE6A0BCE5BC8FE4B88DE699
:101A8000ADA3E7A1AEEFBC8CE697A0E6B395E68FD9
:101A900090E58F96E695B0E580BC5C6E0000000096
:101AA00010B50EA000F026F84FF4FA6004F002F82A
:101AB00000240EE00CA000F01DF84FF4FA710CA009
:101AC000FFF752FB08B9002010BDC82003F0F2FF59
:101AD000641C052CEEDB4FF0FF30F5E741542B5230
:101AE00053540D0A0000000041540D0A000000008C
:101AF0004F4B000010B504460020154908708021A6
:101B0000144802F06BF80821134801F03DFF20B1A2
:101B100011490888091D088800BF00210F48FFF7F8
:101B200091F900BF0D48FFF745FA0028FAD10C499A
:101B30000A48FFF76DF980210848FFF797FA01215D
:101B40000648FFF77FF9204601F0CCFE10BD0000EB
:101B50006A0000203C050020004800402860024048
:101B6000400F001010B50446204601F0BBFE10BD2A
:101B70002AE000211548006804F014F9044604F036
:101B80000400E0B104F01000C8B900234FF47A72E9
:101B900019460F48006804F083FA01280FD10DA000
:101BA00002F09EF8002002F019FD322003F082FFBF
:101BB00000231A4619460648006804F09FFB40F2CD
:101BC000DB7003F077FF00BFD3E7000000000020C8
:101BD00004000020455350383236363A206265679B
:101BE000696E2073656E64206D657373616765202F
:101BF0002E2E2E200D0A000010B50446204601F0BE
:101C000093FF4FF47A70FFF735FA10BD0149086071
:101C1000704700000C3C024070B504460A4600269E
:101C2000092502B909E0012A01D1160205E0022ABC
:101C300001D1160201E04FF4407600F0ABF8054602
:101C4000092D28D11548006820F440701349086018
:101C500008460068304308600846006820F0F80035
:101C600008600846006844F0020108430B49086018
:101C70000846006840F48030086000F08BF80546A4
:101C80000648006820F00200044908600846006821
:101C900020F0F8000860284670BD0000103C0240AB
:101CA00009201349096801F48031B1F5803F01D161
:101CB00001201CE00E49096801F0100109B106205D
:101CC00015E00B49096801F4807109B102200EE0AA
:101CD0000749096801F0EF0109B1072007E004494D
:101CE000096801F0020109B1082000E009207047ED
:101CF0000C3C02400348006840F000400149086085
:101D000070470000103C024030B502460C460925E1
:101D100000F040F80546092D17D10D48006820F461
:101D200040700B4908600846006808600846006873
:101D300040F001000860147000F02CF805460448DB
:101D4000006820F0010002490860284630BD00000C
:101D5000103C024030B503461C46002000BF03E0A3
:101D6000255C0D54451C28B29042F9DB30BD0000C3
:101D70000548006800F0004028B1044802490C39C9
:101D80000860034808607047103C02402301674523
:101D9000AB89EFCD08B509200090FFF781FF0090D7
:101DA00002E0FFF77DFF00909DF800000128F8D0C9
:101DB0009DF8000008BD00002DE9F04180460E4668
:101DC00014461F460025FFF7D3FFF320FFF71EFF41
:101DD00002214046FFF720FF092804D00DA001F0A2
:101DE0007FFF00BFFEE700250DE021787019FFF7A7
:101DF0008BFF092804D00EA001F072FF00BFFEE7A0
:101E0000641C681C05B2BD42EFDBFFF773FFBDE841
:101E1000F0810000464C4153485F45726173655341
:101E20006563746F72206572726F72210D0A000013
:101E3000464C4153485F50726F6772616D427974CE
:101E400065206572726F72210D0A0000F0B50A46B6
:101E500000210023002400BF3DE0012505FA01F325
:101E6000156805EA03049C4234D105684F00032637
:101E7000BE40B543056015794E00B5400668354350
:101E800005601579012D02D01579022D16D18568CE
:101E90004F000326BE40B543856055794E00B540DE
:101EA000866835438560456801268E40B5434560A8
:101EB000456896798E40B6B235434560C5684F0097
:101EC0000326BE40B543C560D5794E00B540C6680F
:101ED0003543C560491C1029BFD3F0BDF0B50023C0
:101EE00000244D07ED0E02FA05F3CE1000F1200597
:101EF00055F826504E07F70E0F26BE40B543CF10BB
:101F000000F1200646F82750CE1000F1200555F8C4
:101F1000265045EA0304CE1000F1200545F826407E
:101F2000F0BD418370470183704700002DE9F04107
:101F300000270024A0460025002600202B49087019
:101F40002B4908702B4908602B49086002212B4857
:101F500001F04AFA0421294801F046FA00202849F4
:101F600008600520FFF7A6F801202649C1F8A00265
:101F70000F20FFF79FF800202249C1F8A0021F4858
:101F8000D0F824800CE01D48406AA0EB080080B225
:101F900047F23051884203DD4FF0FF30BDE8F08159
:101FA000124800780028EED01248056812480668EA
:101FB000AE4201D3771B04E04FF6FF70401B304464
:101FC000471C07EB870040F2231101EB400040F271
:101FD0004721B0FBF1F4022C02D3B4F5C87F02D93B
:101FE0004FF0FF30DAE72046D8E700003C00002041
:101FF0003D00002034000020380000200000014097
:10200000A00242420000424200B589B001210846C8
:1020100000F080FF0121102000F05CFF01208DF80E
:10202000200003208DF821004FF4807007900020DD
:102030008DF8220007A93748FFF708FF02208DF826
:1020400020008DF823000002079007A93148FFF710
:10205000FDFE012209212F48FFF740FF4FF6FF70D8
:102060000590A720ADF810000020ADF81800ADF8DD
:10207000120004A9284801F049FA0020ADF8040034
:102080000F20ADF80C000020ADF80600ADF80A00F6
:102090000120ADF8080001A91F4801F0CBF9042088
:1020A000ADF804000F20ADF80C000220ADF80600DA
:1020B0000020ADF80A000220ADF8080001A916487A
:1020C00001F0B8F901220021134801F07BF9012247
:1020D0000421114801F076F9012202210E4801F095
:1020E000E0F9012204210C4801F0DBF91B208DF8F6
:1020F000000006208DF8010001208DF802008DF807
:102100000300684600F01CFB0121034801F06FF951
:1021100009B000BD0010024000000140002456E05C
:102120000023322219462A48006803F0B9FF01282B
:1021300047D1FFF7FBFE044600231A461946244800
:10214000006804F0DBF8601C00283DD02046FEF754
:10215000EBFF0546C5F164001E49086008460068AB
:10216000642801D3642008601A4800681A49096885
:10217000884203D801201949087008E01548006812
:1021800017490968884202D3002014490870114891
:10219000016813480068401D814206D20E4800685D
:1021A000401F0C490968884203D300200D4908608C
:1021B00002E001200B49086021460BA001F090FDD0
:1021C00002E00EA001F08CFDD32003F073FCA7E722
:1021D000040000204000002048000020590000209A
:1021E000440000209C02404264697374616E636520
:1021F0003A20256420636D0D0A00000048435F53B8
:102200005230343A207761697420666F72205769C2
:102210002D46692E2E2E20736B69702074686973A9
:102220002074696D652E0D0A0000000000BFFEE7F6
:1022300010B54FF4407000F0BFFA00F015F902F04D
:102240007DFA01F0EFFCFEF7C3FD00F071FBFFF734
:10225000DBFE02F0D1FC4FF4E130FFF7CDFC10BD06
:1022600070B502460024002500230020958A138BB8
:102270001B0445EA030626F07F4404EA01068E4269
:1022800001D1012000E0002070BD21B1028842F0A0
:102290000102028004E002884FF6FE731A400280B9
:1022A000704721B1828842F40062828004E0828813
:1022B0004FF2FF731A408280704721B1028842F4C6
:1022C0008072028004E002884FF6FF631A400280A9
:1022D000704721B1028842F40072028004E0028853
:1022E0004FF6FF531A40028070470CB5024600209B
:1022F00000230193009300920B0F019321F07F4183
:10230000019B1BB1009B1433009303E0090C009B5D
:1023100018330093009B1B680B400BB1012000E0B9
:1023200000200CBD2DE9FF4704460D460026B146AE
:102330000427DFF8CC80A6884FF6C07006406846B8
:1023400000F0F8FDDDF808802E48B8FBF0F01FFA29
:1023500080F946EA0906A68020884FF6FE710840FB
:10236000208000262849286888420CD82868400028
:10237000B8FBF0F087B2042F00DA04273E4309F1DE
:102380000100208427E0E8884BF6FF71884206D1DF
:10239000286800EB4000B8FBF0F087B209E028683D
:1023A00000EBC00101EB0010B8FBF0F087B247F47E
:1023B0008047C7F30B0008B947F0010747F4004016
:1023C00006434FF4967009FB00F04FF47A7190FBCE
:1023D000F1F0401C2084A683208840F0010020807A
:1023E00026884FF6F5300640A888698908430643D9
:1023F0002680A889298908432081BDE8FF8700003D
:1024000000127A0040420F00A086010012B141F094
:10241000010101E001F0FE01018270470182704775
:1024200010B502F083F90446012C06D0022C05D029
:10243000032C04D0042C0FD107E00EE00DE0084877
:102440000078401C0649087007E0054800780549F7
:10245000087000F0BBF900E000BF00BF10BD000035
:1024600054000020580000201FB50121082000F072
:1024700041FD0020ADF80C00ADF80600632002908D
:1024800042F2CF00ADF8040001A9104801F03EF877
:10249000012211460D4801F004F801210B4800F01B
:1024A000A0FF32208DF8000001208DF803000520E8
:1024B0008DF8010000208DF80200684600F040F918
:1024C0000121024800F093FF1FBD0000000C0040F6
:1024D00010B515A22021002000F00AFB082315A248
:1024E0003021002000F0FEFB14480078012802D0C3
:1024F00002280ED106E0102340222021002000F007
:102500006FFA0AE0102338223021002000F068FA28
:1025100003E001200949087000BF00BF00F000FC83
:10252000FFF77EFF10BD0000B5E7BBFACAD6B6AF15
:102530000000000048432D53523034005400002066
:1025400010B502F0F3F80446012C06D0022C17D087
:10255000032C28D0042C34D12BE01B480078012810
:1025600004D11A480068401D1849086016480078D0
:10257000022804D116480068401D1549086021E072
:1025800011480078012804D110480068401F0F4905
:1025900008600D480078022804D10D480068401FEB
:1025A0000B4908600EE008480078401C0649087096
:1025B00008E000200749087000F030FD00F006F93F
:1025C00000E000BF00BF10BD550000204400002007
:1025D000480000205800002010B502F0A7F804467B
:1025E000012C06D0022C0ED0032C16D0042C1DD1A9
:1025F00014E001200F4908702823082211465020BA
:1026000000F0FCF813E000200A4908702823082293
:102610001021502000F0F2F809E008E000200649FF
:1026200008700449087000F0D1F800E000BF00BF56
:1026300010BD000059000020580000200EB50020F9
:102640000090019002900C2269460D48FFF782FB32
:102650000C49009888420DD10B49019808600B493C
:1026600002980860084602680748016808A001F05F
:1026700037FB04E011A001F033FB00F0CFFC0EBDEE
:10268000000006083412AA5544000020480000202B
:10269000506172616D204C6F616465642066726F79
:1026A0006D20466C617368212055703A25642C209A
:1026B000446F776E3A25640D0A0000004669727314
:1026C0007420426F6F742C205573696E67204465C7
:1026D0006661756C7420506172616D732E0D0A0015
:1026E00030B503460C46002100BF08E05856655639
:1026F000A84202D04FF0FF3030BD481C01B29142D9
:10270000F4DB0020F8E700BFFEE7000010E0094816
:102710000078012804D110210748FFF704FC03E0EA
:1027200010210548FFF7FDFB4FF4FA7003F0C2F9E2
:10273000EDE7000059000020000002407047000053
:1027400070B5002100230F22C4781CB3174C2468F5
:1027500004F4E064C4F5E064C4F30721C1F10404A7
:10276000E3B20A4144789C40E1B2847814402143AA
:102770000C07210E0E4C05786155047804F01F05F6
:102780000124AC4005786D11AD0005F1E025C5F8D8
:10279000004109E0047804F01F050124AC40054D18
:1027A0000678761145F8264070BD00000CED00E07B
:1027B00000E400E080E100E002490143024A1160C8
:1027C000704700000000FA050CED00E010B5002095
:1027D0000EE0002108E0002200EB8013064C04EB21
:1027E00043035A544A1CD1B28229F4DB421CD0B2B2
:1027F0000828EEDB10BD0000040100202DE9F043A5
:1028000004460D4616461F4628463CE0224635E063
:10281000002A31DB812A2FDC00282DDB3F282BDC2E
:102820004FEAE07C00EB5C7C4FEAEC0C0CEB8C1C80
:10283000DFF85C8008EB4C0C1CF802C003464FEA42
:10284000E07800EB58784FEAE808A0EBC8094FF0B1
:10285000010808FA09F82CEA080C01464FEAE0786A
:1028600000EB58784FEAE80808EB8818DFF820906A
:1028700009EB480808F802C0511C0AB2A11991429C
:10288000C6DC411C08B2E9198142BFDCBDE8F08317
:102890000401002000B587B00121480500F02AFBA3
:1028A0000121022000F016FB0121480500F012FB77
:1028B000042208211B48FFF711FB042209211948B3
:1028C000FFF70CFB02208DF8180001208DF81A008C
:1028D0004FF44070059001208DF81B0003208DF807
:1028E000190005A90F48FFF7B1FA0020ADF808005C
:1028F0000D4801904BF6FF70ADF80A004FF4806070
:10290000ADF80E000001ADF810000020ADF80C008D
:1029100001A90648FFF706FD01210448FFF7B5FCB1
:1029200007B000BD00040240801A060000540040B9
:1029300010B5FFF7AFFFAE2000F008FAD52000F089
:1029400005FA802000F002FAA82000F0FFF93F20ED
:1029500000F0FCF9D32000F0F9F9002000F0F6F9BE
:10296000402000F0F3F9A12000F0F0F9C82000F0B9
:10297000EDF9DA2000F0EAF9122000F0E7F9812001
:1029800000F0E4F9CF2000F0E1F9D92000F0DEF901
:10299000F12000F0DBF9DB2000F0D8F9302000F066
:1029A000D5F9A42000F0D2F9A62000F0CFF98D20AF
:1029B00000F0CCF9142000F0C9F9AF2000F0C6F9FE
:1029C000FFF704FF00F0ACF910BD10B5024601207E
:1029D00000E050430B1EA1F10101FAD110BD00002F
:1029E0002DE9F04304460D4616461F4628463CE0B6
:1029F000224635E0002A31DB812A2FDC00282DDB3E
:102A00003F282BDC01464FEAE07C00EB5C7C4FEA80
:102A1000EC0C0CEB8C1CDFF85C8008EB4C0C1CF80D
:102A200002C003464FEAE07800EB58784FEAE80826
:102A3000A0EBC8094FF0010808FA09F88CEA080C65
:102A40004FEAE07800EB58784FEAE80808EB88187E
:102A5000DFF8209009EB480808F802C0511C0AB2C0
:102A6000A1199142C6DC411C08B2E9198142BFDCC0
:102A7000BDE8F0830401002070B505460C4645F022
:102A8000B00000F063F9102141EA141000F05EF983
:102A900004F00F0000F05AF970BD0000F8B50646CA
:102AA0000F4614461D46082D0CD1A4F120000E49F6
:102AB00001EB00101023082239460090304600F048
:102AC00065F80FE0062D0DD1A4F1200000EB4000C9
:102AD000064901EB400008230622394600903046A3
:102AE00000F054F8F8BD0000EC6B0008DC71000841
:102AF0002DE9FC47804689461646002700200190B4
:102B000000253AE0705D01A9C855781CC7B2022FB4
:102B100031DB002700240CE0C4EBC40101EB810190
:102B2000184A881801A9FDF7E6FB00B90CE0601C03
:102B3000C4B2C4EBC40101EB8101124A881812A18E
:102B4000FDF7D9FB0028E7D100BFC4EBC40000EBC0
:102B500080000C490844C01C05F1010A0AEBDA7137
:102B60004910491E08EB0111009008B210231A46C3
:102B7000494600F00BF8681CC5B2705D0028C1D151
:102B8000BDE8FC8716740008000000002DE9FF4F27
:102B900080460E469146DDF834B0002500244A46B2
:102BA00031464046039BFFF729FE00BF66E0002543
:102BB00060E008EB050000285ADB08EB05007F28E1
:102BC00056DC3046F11706EB5171C9100FB2F11700
:102BD00006EB5171C910A6EBC10A002E05DA781E6A
:102BE00007B20AF108000FFA80FA381900281BDB37
:102BF0003819072818DC381900EB8010254901EB3B
:102C0000400008EB0501405C04FB09511BF8011072
:102C100001FA0AF10843391901EB81111D4A02EB4F
:102C2000410108EB050288543819401C00281FDBBD
:102C30003819401C07281BDC3819401C00EB801099
:102C4000144901EB400008EB0501405C04FB09510D
:102C50001BF80110CAF10802114108433919491C37
:102C600001EB81110B4A02EB410108EB050288548C
:102C7000681CC5B24D459CDB601CC4B20399481E5C
:102C8000C11700EB5171012202EBE101A1428EDC80
:102C9000BDE8FF8F040100202DE9F0470646894674
:102CA00017461D46DDF82080002417E0281B411E32
:102CB0000A20FFF78AFEB7FBF0F00A21B0FBF1F221
:102CC00001FB120000F1300A04FB086108B2434620
:102CD00052464946FFF7E2FE601CC4B2AC42E5DB57
:102CE000BDE8F0872DE9F0410646884615461F46A7
:102CF000002409E02A5D04FB076108B23B46414617
:102D0000FFF7CCFE601CC4B2285D0028F2D1BDE8FC
:102D1000F08104E001F0BEFF142002F0CBFEF9E7E1
:102D200010B500240DE000212046FFF7A5FE04EBBE
:102D30008411054A02EB4100822100F04BF8601C2F
:102D4000C4B2082CEFDB10BD0401002010B504460E
:102D500000BF4FF400311C48FFF7C7FA0028F8D134
:102D600001211948FFF7A9FA00BF18491648FFF7D3
:102D700077FA0028F9D0002278211348FFF746FBA4
:102D800000BF13491048FFF76BFA0028F9D0002163
:102D90000D48FFF743FB00BF0D49891E0A48FFF7A6
:102DA0005FFA0028F8D021460748FFF737FB00BF3D
:102DB0000749891C0448FFF753FA0028F8D001217D
:102DC0000148FFF786FA10BD0054004001000300DF
:102DD0008200070030B58FB004460D4600BF4FF4A7
:102DE00000313748FFF781FA0028F8D10121344833
:102DF000FFF763FA00BF33493148FFF731FA002883
:102E0000F9D0002278212E48FFF700FB00BF2E49A1
:102E10002B48FFF725FA0028F9D040212848FFF772
:102E2000FDFA00BF2849891E2548FFF719FA002836
:102E3000F8D02648FEF712F84FF0007000902048B6
:102E400010300190029440200390049500200590DA
:102E50004FF48060069000200790089009904FF48E
:102E600000300A9000200B900C900D900E90694657
:102E70001648FEF7CFF801211148FFF712FA012199
:102E80001248FDF7DFFF00BF11491048FEF7A0F818
:102E90000028F9D00E490D48FDF7BAFF00BF0A49D6
:102EA000891C0748FFF7DCF90028F8D00121044805
:102EB000FFF70FFA00210248FFF7F3F90FB030BD1A
:102EC000005400400100030082000700A06002409F
:102ED0000000202029B1064A12680243044B1A6000
:102EE00004E0034A12688243014B1A6070470000F5
:102EF0003038024029B1064A12680243044B1A6076
:102F000004E0034A12688243014B1A6070470000D4
:102F10004038024029B1064A12680243044B1A6045
:102F200004E0034A12688243014B1A6070470000B4
:102F300044380240F0B5002100220024022500267A
:102F40000223324F3F6807F00C0121B1042905D05C
:102F5000082937D105E02E4F076036E02D4F076076
:102F600033E02A4F3F1F3F68C7F38056274F3F1F6C
:102F70003F6807F03F036EB1264FB7FBF3F7DFF86A
:102F80008CC0ACF1040CDCF800C0CCF3881C07FB4F
:102F90000CF40CE01E4FB7FBF3F7DFF870C0ACF198
:102FA000040CDCF800C0CCF3881C07FB0CF4174FB2
:102FB0003F1F3F68C7F301477F1C7D00B4FBF5F757
:102FC000076002E0124F076000BF00BF0F4F3F686D
:102FD00007F0F0010909104F7A5C0768D740476095
:102FE0000A4F3F6807F4E051890A0B4F7A5C476843
:102FF000D7408760054F3F6807F46041490B064F93
:103000007A5C4768D740C760F0BD000008380240CE
:103010000024F400001BB7007D0000200EB50D4811
:1030200000900D48006801900C480068029002F082
:103030006BFE0C236A460A493820FEF7BDFE03F0FA
:10304000E5FC064802680448016806A000F048FE56
:103050000EBD00003412AA55440000204800002094
:1030600000000608506172616D205361766564202E
:10307000746F20466C617368212055703A25642C6A
:1030800020446F776E3A25640D0A00000CB50020CD
:10309000019000903448006840F480303249086064
:1030A00000BF3148006800F4003000900198401CD7
:1030B0000190009818B90198B0F5A04FF1D12A48B5
:1030C000006800F4003010B10120009001E0002001
:1030D00000900098012846D123484030006840F015
:1030E00080502149403108602048006840F4404049
:1030F0001E4908601C48083000681B4908310860F8
:103100000846006840F4004008600846006840F443
:10311000A05008601648091F0860081F006840F0AA
:103120008070091F086000BF0F48006800F0007041
:103130000028F9D040F205700E4908600A480830AE
:10314000006820F00300084908310860084600685C
:1031500040F00200086000BF03480830006800F03B
:103160000C000828F8D10CBD003802400070004067
:103170000C544007003C024010B500BF502080F3C3
:103180001188BFF34F8FBFF36F8F00BF03F092FA28
:1031900018B14FF080500449086000BF002080F350
:1031A000118800BF10BD000004ED00E010B5154807
:1031B000006840F47000134908601348006840F04C
:1031C00001001149086000200F49083108600E48CD
:1031D00000680E4908400C4908600D48091D086048
:1031E000081F006820F48020091F0860002006499D
:1031F0000C310860FFF74AFF4FF000600149803949
:10320000086010BD88ED00E000380240FFFFF6FEC8
:1032100010300024F0B50C46154600210022068C23
:103220004FF6FE773E400684018B028C4FF60C76FB
:1032300031407E1C06EA03162E4331434FF6F576E5
:10324000324044F00106324301830284F0BDF0B500
:103250000C461546002100220026078C4FF6EF7C15
:1032600007EA0C070784018B028C4FF6FF7707EA09
:10327000041640F6FF4739404FF6FF7707EA033759
:1032800039434FF6FF7707EA052739434FF65F7753
:103290003A4046F010073A4301830284F0BDF0B58E
:1032A0000C461546002100220026078C4FF6FF6CC5
:1032B00007EA0C070784818B028C4FF6FF7707EA39
:1032C00004264FF60C7739404FF6FF7707EA0317CD
:1032D0002F4339434FF2FF573A4046F480773A4341
:1032E00081830284F0BDF0B50C4615460021002212
:1032F0000026078C4EF6FF7C07EA0C070784818BBB
:10330000028C4FF6FF7707EA043640F6FF47394054
:103310004FF6FF7707EA052739434FF6FF7707EAAD
:103320000337394345F6FF773A4046F480573A432E
:1033300081830284F0BD000010B50221144800F022
:1033400068F858B1124800F05EF812490860012090
:103350001149087002210E4800F046F804210C487B
:1033600000F057F890B10C48007801280AD10848BD
:1033700000F04CF809490860012009490870002054
:10338000054908700421024800F02EF810BD000025
:1033900000000140340000203D00002038000020E3
:1033A0003C00002010B50121054800F032F801284A
:1033B00005D101F0F5F90121014800F015F810BD23
:1033C000000C004030B5002301248C40A3B2048CD3
:1033D0009C430484048C02FA01F5ADB22C430484AE
:1033E00030BDCA4302827047CA430282704721B18E
:1033F000028842F00102028004E002884FF6FE7368
:103400001A40028070470146486B70470146886B3E
:10341000704730B50246002000230024158A05EAD3
:103420000103958905EA010413B10CB1012000E004
:10343000002030BD70B505460C46208850B9238960
:10344000A28861882846FFF7E5FEE188284600F05B
:1034500031F825E0208804280AD12389A2886188D0
:103460002846FFF7F4FEE188284600F02CF817E024
:10347000208808280AD12389A28861882846FFF776
:103480000EFFE188284600F02BF809E02389A28886
:1034900061882846FFF727FFE188284600F029F8D1
:1034A00070BD1AB183890B43838102E083898B430A
:1034B00083817047028B4FF6F3731A400283028BAD
:1034C0000A4302837047028B4FF2FF331A40028394
:1034D000028B4FF6FF7303EA01231A4302837047FE
:1034E000828B4FF6F3731A408283828B0A43828366
:1034F0007047828B4FF2FF331A408283828B4FF6E4
:10350000FF7303EA01231A43828370470022028873
:10351000184B98420ED0184B98420BD0B0F1804F08
:1035200008D0164B984205D0154B984202D0154B47
:10353000984204D14FF68F731A404B881A43124BAE
:10354000984207D0114B984204D04FF6FF431A40DF
:103550000B891A4302804B68C3620B880385054BB5
:10356000984202D0044B984201D18B7A0386012302
:1035700083827047000001400004014000040040C5
:1035800000080040000C0040001000400014004003
:1035900000B58FB001218805FFF79CFC2948FDF795
:1035A0005DFC00BF2748FDF705FD0028FAD14FF06C
:1035B0000060009024480190002002904020039079
:1035C0000020049005904FF4806006900020079042
:1035D000089009904FF480300A9000200B9003204F
:1035E0000C9000200D900E9069461648FDF712FDD4
:1035F00014487838FDF732FC00BF12487838FDF7E0
:10360000D9FC0028F9D14FF0006000900E480190DD
:103610000E48029000200390802004900020099022
:10362000694608487838FDF7F5FC0122C0210648B4
:10363000001F00F0A0F9012102487838FDF702FCD4
:103640000FB000BDB864024004100140BC0500206A
:1036500010B540F224411B4800F0A3F9012830D1F5
:1036600018480488848800211748FDF7EBFB00BF49
:103670001548FDF79FFC0028FAD11348FDF7A4FC7C
:10368000C0F18000114908800846008800280FDD3D
:1036900008460088802804DA00200D490B4A128869
:1036A000885401200B490870084800880A4908809E
:1036B00080210548FDF7DAFC01210348FDF7C2FB34
:1036C00000BF10BD00100140406402406E000020A9
:1036D000BC050020700000207200002010B540F2F0
:1036E00025511E4800F05DF9012834D11B4800F037
:1036F00011FA1B491B4A127821F812000846194A90
:10370000127830F81210154800F009FA14481549DB
:10371000097830F81100232813D100201049114AEC
:10372000127821F81200104800F062FA00F06CFAEA
:1037300000200C49087040F22551084800F000F9BB
:1037400010BD08480078401C0649087040F2255119
:10375000024800F0F5F800BFF2E700000044004026
:10376000280500207C0000201405002000B58FB043
:1037700001214805FFF7AEFB2948FDF76FFB00BFAD
:103780002748FDF717FC0028FAD14FF000600090A1
:1037900024480190002002904020039000200490D3
:1037A00005904FF4806006900020079008900990E3
:1037B0004FF480300A9000200B9003200C900020E2
:1037C0000D900E9069461648FDF724FC14483038D9
:1037D000FDF744FB00BF12483038FDF7EBFB002833
:1037E000F9D14FF0006000900E4801900E48029011
:1037F000002003908020049000200990694608482A
:103800003038FDF707FC0122C0210648001F00F0F8
:10381000B2F8012102483038FDF714FB0FB000BDAB
:1038200058600240044800403C05002010B540F2BA
:103830002441254800F0B5F8012839D122480488F0
:10384000001D048800212148FDF7FCFA00BF1F4835
:10385000FDF7B0FB0028FAD11C48FDF7B5FBC0F11D
:1038600080001B4908800846008800280FDD0846B4
:103870000088802804DA00201649154A12888854E6
:103880000120154908701248008814490880114821
:103890000E492839486312490C48FDF7B9FA8021CE
:1038A0000A48FDF7E3FB01210848FDF7CBFA00BF0A
:1038B0000821054800F068F820B103490888091D6F
:1038C000088800BF10BD000000480040286002408A
:1038D000680000203C0500206A0000206C000020E9
:1038E000400F001070B504462046FCF7FDFC85B281
:1038F00005B970BD02E0012002F0DCF80F48FDF7C9
:1039000059FB0028F7D14FF0C0510C48FDF780FA61
:103910000A4858384466C56501210848FDF792FAFF
:1039200002E0012002F0C6F84FF0C0510348FDF755
:103930004FFB0028F5D000BFDBE7000058600240D5
:1039400010B50022002340F66A14A14200D100BF46
:103950000A1201249440A3B2DC43048010BD21B1BB
:10396000828942F40052828104E082894DF6FF731D
:103970001A40828170471AB1838A0B43838202E026
:10398000838A8B438382704702460020B1F5007F13
:1039900000D100BF13880B400BB1012000E00020D4
:1039A000704770B50246002400230025002040F631
:1039B0006A16B14200D100BFC1F3421501F01F03E6
:1039C000012606FA03F3012D02D19689334006E061
:1039D000022D02D1168A334001E0968A33400C1240
:1039E000012606FA04F41688344013B10CB1012004
:1039F00000E0002070BDF0B503460024002600253D
:103A0000002040F66A17B94200D100BF1846C1F342
:103A1000421401F01F06012707FA06F5012C01D117
:103A20000C3004E0022C01D1103000E014301AB147
:103A300007682F43076002E00768AF430760F0BDE7
:103A40002DE9FF4705460E460024A14600BFA046CB
:103A5000B08900B100BF2C8A24F44054F08804439C
:103A60002C82AC8941F20C608443B08831890843D0
:103A7000718908430443AC81AC8A24F44074B08952
:103A80000443AC826846FFF755FA2048854202D0CD
:103A90001F48854202D1DDF80C9001E0DDF8089066
:103AA000A88900F4004040B109EBC90000EB0910FF
:103AB00031684900B0FBF1F707E009EBC90000EB02
:103AC000091031688900B0FBF1F76420B7FBF0F012
:103AD00004012009642101FB1078A88900F400404A
:103AE00040B1322000EBC800B0FBF1F000F007005D
:103AF000044308E0322000EB08106421B0FBF1F031
:103B000000F00F0004432C81BDE8FF870010014046
:103B10000014014001468888C0F308007047C1F3D3
:103B2000080282807047000010B588B00446012169
:103B30008804FFF7DFF901210220FFF7CBF9072204
:103B40000A212448FEF7CAF907220B212148FEF773
:103B5000C5F94FF44060069002208DF81C00032048
:103B60008DF81D0000208DF81F008DF81E0006A99D
:103B70001848FEF76BF902940020ADF814000C20F1
:103B8000ADF812000020ADF81000ADF80E00ADF851
:103B90000C0002A91048FFF753FF27208DF80400FE
:103BA00006208DF8050000208DF8060001208DF814
:103BB000070001A8FEF7C4FD012240F22441064897
:103BC000FFF719FF01210448FFF7C9FEFFF7CEFDFB
:103BD00008B010BD0004024000480040024600202A
:103BE00003E000231354431C98B28842F9DB70476A
:103BF0000246002005E031F8103022F81030431C56
:103C000098B20A28F7DB7047002005E00021044A3B
:103C100022F81010411C88B20A28F7DB7047000018
:103C20002805002000B587B001210846FFF752F9AA
:103C300001211020FFF76EF902208DF818000020F6
:103C40008DF81A008DF81B004FF4C060059003201A
:103C50008DF8190005A91F48FEF7F8F80722092179
:103C60001C48FEF73BF907220A211A48FEF736F9ED
:103C70004FF4E13001900020ADF810000C20ADF8B9
:103C80000E000020ADF80C00ADF80A00ADF80800F9
:103C900001A91148FFF7D4FE012240F224410E4849
:103CA000FFF7A9FE01210C48FFF759FE25208DF8EA
:103CB000000001208DF8030006208DF8010000208F
:103CC0008DF802006846FEF73BFDFFF761FC07B088
:103CD00000BD0000000002400010014000BFFEE7F0
:103CE0000FB4054B10B503A9044A029800F0EEF892
:103CF00010BC5DF814FB0000414600087400002071
:103D00000FB4084B10B504A902AA039800F0DEF81E
:103D1000044602A9002000F05CFC204610BC5DF8BF
:103D200014FB0000D345000802E008C8121F08C1B8
:103D3000002AFAD170477047002001E001C1121F2C
:103D4000002AFBD1704700002DE9FF5F82B00021FF
:103D5000DDE90430020DDDF840B0034318D044F62D
:103D60001050A2F2FF3242431514119801281FD0BF
:103D7000A5EB0B00401C5FEA000A4FF000064E4F17
:103D8000DFF83891B046504615D5CAF1000413E06B
:103D9000119801244AA3012801D16FEA0B0102986E
:103DA000119AC0E90031C0E9024206B0BDE8F09FB7
:103DB000CBF10000DFE704460021404A491842EBFE
:103DC0000450CDE9001012E0E00707D032463B4630
:103DD00040464946FCF70FFC8046894632463B4642
:103DE00010461946FCF707FC06460F466410002CE7
:103DF000EAD1DDE90401DDE90023BAF1000F06DABA
:103E0000FCF7F9FB42464B46FCF7F5FB05E0FCF7F7
:103E100064FC42464B46FCF760FC04460E4600221A
:103E2000284BFCF7C9FC03D84FF0FF30014607E0F0
:103E30000022254B20463146FCF736FBFCF7EBFD14
:103E4000102409E0002C0ADB0A220023FCF7E2FC24
:103E5000039B30321A55641E50EA0102F2D1641CF1
:103E6000039AC4F111031444119A012A03D00122C8
:103E700008430DD10AE0084304D000204FF0110B95
:103E8000119072E7A3EB0B056D1E0DE05B4504DDA1
:103E90004FF0000205F1010504E003DA4FF00002E3
:103EA000A5F10105002AECD002981199C0E9023170
:103EB000C0E9004579E70000000014400000F03F31
:103EC000300000000000F0430000E03F2DE9FF4F0C
:103ED00095B09A46884606460025EEE1252877D11A
:103EE00000242746F94A0121039400E0044316F810
:103EF000013F203B01FA03F01042F7D130782A2825
:103F000011D06FF02F033078A0F13002092A16D8B3
:103F1000039A44F0020402EB820203EB42021044D3
:103F2000761C0390EFE758F8042B0392002A03DA7B
:103F3000504244F40054039044F00204761C30785C
:103F40002E2816D116F8010F44F004042A280DD0AB
:103F50006FF02F023078A0F13003092B09D807EB5E
:103F6000870302EB4303C718761CF3E758F8047B7A
:103F7000761C30786C280FD006DC4C2817D06828C7
:103F80000DD06A2814D104E0742810D07A280FD1FB
:103F90000DE044F400140AE044F4801401E044F419
:103FA00040147278824202D104F58014761C761C8B
:103FB000307866280BD013DC582877D009DC00282D
:103FC00075D04528F6D04628F4D047281AD193E179
:103FD00018E0632835D0642879D0652812D18BE1A8
:103FE000702873D008DC6728F1D069286FD06E285C
:103FF0000DD06F2806D1ACE073282CD0752874D072
:10400000782853D05246179990476D1C54E1C4F359
:104010000250022809D003280DD0D8F80010042837
:104020000DD00D6008F1040846E1D8F80010EA1739
:10403000C1E90052F6E7D8F800100D80F2E70D70E4
:10404000F0E718F8041B8DF8001000208DF801002F
:10405000EB46012003E058F804BB4FF0FF30610746
:104060004FF0000102D40DE009F101018946B94287
:104070000FDA8145F8DB1BF809100029F4D108E0BC
:1040800009F1010189468142FADB1BF80910002978
:10409000F6D103985346A0EB090721463846179AF4
:1040A00000F080FA284400EB090507E044E008E14D
:1040B0000DE01BF8010B524617999047B9F1010921
:1040C000F7D2534621463846179AF2E039E00A21E2
:1040D000C4F302524FF0000B0091022A06D058F8A8
:1040E000040BC117032A09D00AE023E008F10700F6
:1040F00020F00702F2E80201904605E000B2C11785
:10410000042A01D140B2C117002906DA0A4600216B
:10411000404261EB02012D2202E0220504D52B2250
:104120008DF80420012203E0E20701D02022F7E706
:10413000914657E00A2100E010214FF0000B00915A
:104140000BE010214FF0000B44F00404082700910D
:1041500003E008204FF0000B0090C4F30252022A43
:1041600005D058F8040B0021032A08D008E008F114
:10417000070020F00702F2E80201904603E080B257
:10418000042A00D1C0B24FF0000922072AD53278A4
:10419000702A07D0DDF800C08CF0100C5CEA0B0C24
:1041A00005D00EE040228DF80420012208E050EAFC
:1041B000010306D030238DF804308DF8052002224B
:1041C0009146009B83F0080353EA0B030AD150EA9F
:1041D000010201D1620705D530228DF804204FF08D
:1041E00001097F1E3278582A04D039A20C920CAAF9
:1041F00002920BE03BA2F9E75B46009AFCF70AFB50
:104200000C9B9B5C029A521E0292137050EA0102B0
:10421000F2D1029804A9081A00F1200B600702D518
:1042200024F4803400E001275F4502DDA7EB0B009A
:1042300000E0002000EB0B01009003984944401A75
:104240000390E00306D453462146179A039800F0E2
:10425000A9F90544002706E001A85246C05D179958
:1042600090476D1C7F1C4F45F6DBE0030CD5534691
:104270002146179A039800F095F9054404E0302090
:104280005246179990476D1C0099481E00900029CE
:10429000F5DC08E00298029952460078491C029128
:1042A000179990476D1CBBF10001ABF1010BF1DCDC
:1042B0005BE100F065F90544761C307800287FF456
:1042C0000DAE19B02846BDE8F08F000009280100A6
:1042D000303132333435363738396162636465667C
:1042E000000000003031323334353637383941423E
:1042F0004344454600000000600700D4062708F14B
:10430000070020F00700F0E80223804603F0004C8D
:104310005FEA0C0001D097A009E0200501D596A026
:1043200005E0E00701D095A001E0AFF24C0013904A
:10433000307823F0004365280CD006DC452809D0EE
:1043400046281DD047287FD13BE0662818D0672833
:104350007AD136E00021112F01DB112000E0781C1A
:10436000CDE9000104A90CA8FFF7EEFCDDE90D0181
:104370000C9A4FF0000B07F10109109200914EE0EA
:104380004FF000400097CDE9011004A90CA8FFF7F9
:10439000DBFCDDE90D020C9B0F994FF0000B914601
:1043A0001093009211B9791C00EB0109B7EB0900D9
:1043B00003D4C0F1FF3B07F10109A9EB070001900D
:1043C00042E0012F00DA01270021112F01DD112029
:1043D00000E03846CDE9000104A90CA8FFF7B4FCC1
:1043E000DDE90D010C9A00914FF0000BB9461092D7
:1043F00021070FD4009A4A4503DA914601E0A9F15A
:104400000109B9F1010F05DD109AA9F10101515C13
:104410003029F4D0B84202DA10F1040F03DA012196
:10442000CDE9011010E0002803DC8344A9EB000172
:1044300002E0411C494500DD8946A0EB0B00401C11
:1044400001904FF000400290200705D401984845A4
:1044500002DB4FF0FF30019000208DF84B000298F6
:104460000DF14B07B0F1004F25D002200C902B200E
:104470000D90029800280CDA404202902D200D90F9
:1044800007E00A210298FCF7AFF93031029007F8F3
:10449000011D0C99481E0C900029F2DC029800289E
:1044A000EFD1791E0D980870307800F0200040F0B0
:1044B000450007F8020D11A8C01BC01D02901398FB
:1044C000007800B1012000EB0901019801EBE071D7
:1044D000029801440398401A401E0390E00306D45A
:1044E00053462146179A039800F05CF80544139848
:1044F000007818B15246179990476D1CE00323D5F8
:1045000053462146179A039800F04CF805441BE0E7
:10451000BBF1000F07DB0098584504DD1098179990
:1045200010F80B0001E0179930205246904701988F
:104530000BF1010B401E05F10105019004D12E2065
:104540005246179990476D1CB9F10001A9F1010974
:10455000DEDC05E017F8010B5246179990476D1CF9
:104560000299481E02900029F4DC53462146179A0E
:1045700003989EE62D0000002B00000020000000A4
:104580002DE9F041044600251E461746880404D450
:1045900005E039462020B0476D1C641EF9D5284639
:1045A000BDE8F0812DE9F041044600251E46904605
:1045B000C80301D5302700E02027880404D505E092
:1045C00041463846B0476D1C641EF9D52846BDE803
:1045D000F0810A68531C0B601070704710B592B0E0
:1045E00004460A4800680A490968CDE900100948EC
:1045F0000378094809A1026802A8FFF781FB02A815
:10460000FDF7B0FA002012B010BD000048000020F5
:10461000440000205900002040000020236368610E
:10462000742077696E312025646D6F746F72256414
:104630006469733125646469733225640000000085
:1046400070B504460D46A1B20548FFF768FA00BFF1
:1046500080210348FFF798F90028F9D0204670BD63
:104660000010014008B524A210210020FEF740FAF6
:104670000820032300902348102102685020FEF7F1
:104680000BFB21A220210020FEF732FA0820032391
:1046900000902048202102685820FEF7FDFA1EA253
:1046A00030210020FEF724FA0820032300901D4843
:1046B000302102685820FEF7EFFA1B4800780128E5
:1046C00002D002280ED106E0102318222021582003
:1046D000FEF786F90AE01023182230215820FEF751
:1046E0007FF903E001201049087000BF00BFFEF70A
:1046F00017FBFDF725FF08BDB5B1C7B0D2BACEBBD9
:104700003A00000040000020D2BACEBBC9CFD4A4EA
:10471000BEAF3A0044000020D2BACEBBCFC2D4A470
:10472000BEAF3A004800002055000020024908783A
:104730000021014A11707047570000201CB501216B
:104740000420FEF7C7FB4FF47070009000208DF836
:10475000040001208DF8070069460248FDF776FB4A
:104760001CBD0000000802400C48006808B9012088
:1047700070470A48001D006808B90220F8E707489A
:104780000830006808B90320F2E704480C300068DC
:1047900008B90420ECE70020EAE7000018024142D3
:1047A00000B50F480078401C0D4908700846007895
:1047B000022813DB002008700A4800780A490870B4
:1047C000FFF7D2FF074908700846007830B906485D
:1047D000007818B1044800780449087000BD000052
:1047E00051000020530000205200002057000020FC
:1047F0001CB5FDF71DFDFDF721FF012001F012FCA6
:104800004D4908600846006820B94CA0FFF768FAD7
:1048100000BFFEE751A0FFF763FA01F0F1FA584933
:1048200008600846006820B956A0FFF759FA00BF93
:10483000FEE75EA0FFF754FA6648042100238A01D0
:10484000CDE9001064A1674801F0EEFE0446012C9A
:1048500003D165A0FFF744FA02E068A0FFF740FA31
:104860006D48042100238A01CDE900106BA16F4837
:1048700001F0DAFE0446012C03D16DA0FFF730FAF7
:1048800002E071A0FFF72CFA774804210023802270
:10489000CDE9001075A1784801F0C6FE0446012C50
:1048A00003D176A0FFF71CFA02E07AA0FFF718FA0E
:1048B0007F48052100234FF48072CDE900107DA1CF
:1048C000824801F0B1FE0446012C03D180A0FFF71D
:1048D00007FA02E086A0FFF703FA8F4805210023BC
:1048E0004FF48072CDE900108CA1924801F09CFE3B
:1048F0000446012C03D190A0FFF7F2F902E096A044
:10490000FFF7EEF99E48052100234FF40072CDE930
:1049100000109CA1A24801F087FE0446012C03D19F
:10492000A0A0FFF7DDF902E0A8A0FFF7D9F901F098
:10493000A1F900201CBD0000040000204861726441
:1049400077617265204D7574657820637265617456
:1049500065206661696C6564210D0A0048617264B6
:1049600077617265204D7574657820637265617436
:10497000652073756363657373210D0A0000000081
:104980000000002045535038323636204576656E9B
:10499000742047726F75702063726561746520665C
:1049A00061696C6564210D0A0000000045535038B0
:1049B000323636204576656E742047726F757020EA
:1049C0006372656174652073756363657373210D2C
:1049D0000A000000080000204F4C45445F546173FA
:1049E0006B000000132D00084F4C45445F54617369
:1049F0006B20637265617465210D0A004F4C45445C
:104A00005F5461736B2063726561746520666169D0
:104A10006C6564210D0A00000C00002048435F53C0
:104A20005230345F5461736B000000001D21000898
:104A300048435F535230345F5461736B2063726537
:104A4000617465210D0A000048435F535230345FA2
:104A50005461736B20637265617465206661696C73
:104A60006564210D0A000000100000204D6F746F76
:104A7000725F5461736B00000D2700084D6F746FF7
:104A8000725F5461736B20637265617465210D0AF6
:104A9000000000004D6F746F725F5461736B206390
:104AA0007265617465206661696C6564210D0A0038
:104AB00014000020455350383236365F436F6E6E17
:104AC0006563745F5461736B000000002D1400086F
:104AD000455350383236365F436F6E6E6563745F90
:104AE0005461736B20637265617465210D0A000067
:104AF000455350383236365F436F6E6E6563745F70
:104B00005461736B20637265617465206661696CC2
:104B10006564210D0A00000018000020455350383C
:104B20003236365F50726F636573735F5461736BB7
:104B30000000000035190008455350383236365F02
:104B400050726F636573735F5461736B206372653A
:104B5000617465210D0A0000455350383236365FC6
:104B600050726F636573735F5461736B206372651A
:104B7000617465206661696C6564210D0A0000003E
:104B80001C000020455350383236365F6D65737314
:104B90006167657265706F72745F5461736B00005A
:104BA000711B0008455350383236365F6D6573739C
:104BB0006167657265706F72745F5461736B2063B7
:104BC0007265617465210D0A00000000455350387C
:104BD0003236365F6D6573736167657265706F72CB
:104BE000745F5461736B20637265617465206661E4
:104BF000696C6564210D0A001CB501210846FEF7A9
:104C000069F91020009001208DF8040000208DF833
:104C1000070069460148FDF719F91CBD0000024074
:104C200008B515A200210846FDF762FF16A2102163
:104C30002020FDF75DFF15480078012807D10820E6
:104C400001231A46102100905020FEF725F810A2EB
:104C500020210846FDF74CFF0C48007838B90820A1
:104C600001231A46202100905020FEF715F8FEF788
:104C700057F8FDF7B1FC08BDB5E7BBFACAD6B6AF29
:104C8000B2D9D7F700000000BFAA000059000020E9
:104C9000B9D8000010B50A48007820B1012805D025
:104CA000022809D105E0FDF713FC06E0FFF7B8FF85
:104CB00003E0FFF7D7FC00E000BF00BF10BD00001D
:104CC000580000202DE9F04105460E461C480768B3
:104CD0001C480068001D00F089FD50B919480068A3
:104CE00090F82C1001208840174909688143164824
:104CF0000160681C38B936B112480168091D1348B3
:104D000000F0B2FD1AE07C190E4800684460BC4215
:104D100007D20C480168091D0D48006800F08AFDA3
:104D20000CE008480168091D0A48006800F082FD8F
:104D300009480068844201D207480460BDE8F08158
:104D4000A400002090000020A8000020940700206C
:104D50009800002094000020C000002010B50446F8
:104D600000F08EFD24480068401C23490860234859
:104D7000006840B9214804600846006801280DD148
:104D800000F0ECF90AE01E48006838B91B480068DA
:104D9000C06AE16A884201D818480460194800686E
:104DA000401C1849086008460068206494F82C10DC
:104DB0000120884014490968084313490860E16AE2
:104DC00001EB8101114A02EB8100211D00F04CFD35
:104DD00000F080FD0A48006868B108480068C06AB1
:104DE000E16A884207D24FF0805009490860BFF35A
:104DF0004F8FBFF36F8F10BDA000002090000020E8
:104E0000AC000020BC000020A80000207C06002090
:104E100004ED00E010B500F033FD10480068D0B993
:104E20000F4800F0F7FC0F4800F0F4FC0C480E4966
:104E300008600C480D49086000220C210A2001F08E
:104E400002F9064908600846006820B108A1034835
:104E5000006800F0F3FD00F03DFD10BDD40000201F
:104E6000A8070020BC070020CC000020D0000020B4
:104E7000546D72510000000070B523E000F044FF53
:104E80001348006808B9012000E00020054601F041
:104E9000BDFDBDB900F0F4FC0D48C068C468201D1C
:104EA00000F0A4FC0B480068401E0A4908600A484C
:104EB0000068401E0849086000F00CFD204600F024
:104EC00060F800BF044800680028D7D170BD00001A
:104ED00080070020A00000209C00002070B5044640
:104EE0000D46206C70B1216CE0680844E060616898
:104EF000E068884201D32068E0602846226CE168BF
:104F0000FBF7BCF970BD2DE9F04104460F4615468C
:104F10004FF00008A66B206C40B9206860BB606849
:104F200001F06CFC80460020606025E07DB93946C8
:104F3000226CA068FBF7A2F9216CA0680844A0606D
:104F4000D4E90110884217D32068A06014E03946E4
:104F5000226CE068FBF792F9216CE068401AE0608F
:104F60002168E068884203D2216C6068401AE060E2
:104F7000022D01D106B1761E701CA0634046BDE82B
:104F8000F08110B50446206B00F0C2FC204600F012
:104F9000BFFC10BD0146084A126812680AB9012216
:104FA00000E000220A600A6822B9034A1268D26847
:104FB000106800E000207047CC00002030B54FF4AE
:104FC0009633174800F007042CB1C01D20F00700ED
:104FD000134C041B1B1B0246124C22600024114D73
:104FE0006C60D018083820F007000F4C20600024B7
:104FF0000D4D2D686C600C4D2D682C601146441AC7
:105000004C60094C24680C60084D4C682C60084DBD
:105010004C682C604FF00044064D2C6030BD000001
:10502000D0070020EC000020F4000020FC0000204D
:10503000F80000200001002000BFFFF71DFF064818
:1050400000680128F9D94FF0805004490860BFF387
:105050004F8FBFF36F8FF0E77C06002004ED00E078
:1050600010B504464CB1002060602060E060002371
:105070001A461946204601F041F910BD2DE9F041CC
:1050800006460D4617469846069C0DB9246000E07A
:105090002760E66325640121204601F0E3F884F8E7
:1050A0004C80BDE8F0812DE9F05F82460F469046C6
:1050B0009B460A9E0C9C4FEA8801A522206BFBF7B9
:1050C000EFF8A8F10100216B01EB800929F0070935
:1050D00009F0070008B9012000E0002050B900BF26
:1050E000502080F31188BFF34F8FBFF36F8F00BF45
:1050F00000BFFEE7002507E0795D04F1340041556B
:10510000785D00B902E06D1C0A2DF5D300BF0021C7
:105110003D2001550A2E00D30926E662A664002030
:10512000E064201D00F083FB04F1180000F07FFB19
:105130002461C6F10A00A06164620020206584F841
:1051400054005A465146484600F03AFB20600B98FE
:1051500008B10B980460BDE8F09F000010B5002472
:1051600007E004EB84010F4A02EB810000F052FBE0
:10517000641C0A2CF5D30C4800F04CFB0B4800F0E3
:1051800049FB0B4800F046FB0A4800F043FB0A4885
:1051900000F040FB044809490860044808490860D9
:1051A00010BD00007C0600204407002058070020A6
:1051B0006C07002080070020940700209400002046
:1051C0009800002010B50146164800E0006803680A
:1051D0008B42FBD30246436813448B4204D143689D
:1051E0004C682344436001460A464B6813440468F4
:1051F000A34211D10C4C03682468A34208D04B6829
:105200000468646823444B6003681B680B6005E016
:10521000054B1B680B6001E003680B60884200D0FF
:10522000016010BDEC000020F40000202DE9F041E9
:1052300004460D4616461F464FF00008656024617F
:10524000B5420CD8F01BA169884202D34FF0010887
:1052500011E0211D0948006800F0ECFA0BE0BE42A5
:1052600004D2BD4202D34FF0010804E0211D0448DE
:10527000006800F0DFFA4046BDE8F081D000002071
:10528000CC00002070B5054600F0FAFAA86B08B90A
:10529000012400E0002400F01DFB204670BD70B525
:1052A000054600F0EDFAA86BE96B884201D10124B4
:1052B00000E0002400F00EFB204670BDF8B5054666
:1052C0000F4616480068C068C468201D00F08EFABA
:1052D000E06901281DD1A06941192B463A462046B4
:1052E000FFF7A4FFA8B1002003462A46014600901C
:1052F000204601F039FC064656B900BF502080F325
:105300001188BFF34F8FBFF36F8F00BF00BFFEE761
:1053100000BF2046616A8847F8BD0000CC0000202D
:1053200070B586B06AE00398002867DB059C606969
:1053300008B9012000E0002010B9201D00F056FA45
:1053400002A800F0BDF8054603980A2854D2DFE809
:1053500000F009050731334F0608323400BF00BFA3
:1053600000BF00BF0498A269811803462A46204660
:10537000FFF75CFFE8B12046616A8847E0690128D1
:1053800017D1002000900498A16942180023194603
:10539000204601F0E9FB064656B900BF502080F3D5
:1053A0001188BFF34F8FBFF36F8F00BF00BFFEE7C1
:1053B00000BF22E000BF20E000BF0498A061A06908
:1053C00008B1012000E0002050B900BF502080F358
:1053D0001188BFF34F8FBFF36F8F00BF00BFFEE791
:1053E000A06941192B462A462046FFF71FFF04E01B
:1053F000204600F08DFA00E000BF00BF00231A46EF
:1054000003A90448006800F04BFE00288BD106B0C9
:1054100070BD0000D4000020F8B505460C4600F031
:1054200073FC684600F04CF80646009820BB44B96F
:10543000B54206D801F0EAFA31462846FFF73EFFAA
:105440001CE03CB10E480068006808B9012000E08B
:1054500000200446A91B22460A48006800F004FB0D
:1054600001F0D4FA50B94FF0805007490860BFF3FB
:105470004F8FBFF36F8F01E001F0C8FAF8BD000055
:10548000D0000020D400002004ED00E00A490968A3
:10549000096809B9012100E0002121B14FF0FF3175
:1054A000064A116006E004490968C968C868034AE9
:1054B000416811607047000094000020C000002087
:1054C00070B5044601F0F0F80546074800688542CB
:1054D00004D200F00BF80120206001E000202060E1
:1054E00001480560284670BDDC0000202DE9F84326
:1054F00032E024480068C068056822480068C06837
:10550000C468201D00F072F92046616A8847E0698E
:10551000012821D1A0694619AE4207D966602461ED
:10552000211D1848006800F085F915E000200346A9
:105530002A4601460090204601F016FB074657B95F
:1055400000BF502080F31188BFF34F8FBFF36F8FE0
:1055500000BF00BFFEE700BF0A480068006808B946
:10556000012000E000200028C3D00648D0F80080C9
:1055700005480068034908600348C0F80080BDE89A
:10558000F8830000CC000020D00000200E48006806
:10559000401C08B9012000E0002050B900BF502095
:1055A00080F31188BFF34F8FBFF36F8F00BF00BF31
:1055B000FEE700BF502080F31188BFF34F8FBFF389
:1055C0006F8F00BF00BFFEE7E000002008B500BFFE
:1055D0006846FFF7DFFC044620460099FFF71CFFF2
:1055E000FFF79EFEF4E770B5044600F049F994F920
:1055F000455010E0606A08B9012000E0002038B989
:1056000004F1240001F05EF918B100F081FA00E025
:1056100003E0681E45B2002DECDC00BFFF2084F8DB
:10562000450000F057F900F02BF994F9445010E0D0
:10563000206908B9012000E0002048B904F11000F9
:1056400001F040F908B100F063FA681E45B200E0CD
:1056500001E0002DECDC00BFFF2084F8440000F0E6
:1056600039F970BD2DE9F04104464FF0000800F013
:105670004BFB4648006808B9FFF7A0FC44480068A7
:10568000204000286BD1D4B1083404F00700B0B139
:1056900004F00700C0F10800044404F0070008B952
:1056A000012000E0002050B900BF502080F3118895
:1056B000BFF34F8FBFF36F8F00BF00BFFEE7002C1B
:1056C0004DD034480068844249D8334E304605688E
:1056D00001E02E462D686868A04202D228680028A2
:1056E000F7D12A480068854239D0306800F10808AF
:1056F000286830606868001B102819D92F1907F036
:10570000070008B9012000E0002050B900BF502078
:1057100080F31188BFF34F8FBFF36F8F00BF00BFBF
:10572000FEE76868001B78606C603846FFF74AFD4A
:10573000184968680968081A164908600846006828
:1057400016490968884203D2124800681349086064
:105750000F4968680968084368600020286001F004
:1057600055F908F0070008B9012000E0002050B901
:1057700000BF502080F31188BFF34F8FBFF36F8FAE
:1057800000BF00BFFEE74046BDE8F081F400002006
:1057900000010020F8000020EC000020FC000020A8
:1057A0000648006830B10549096801F14C00C96C30
:1057B000491C01600148006870470000900000200B
:1057C000001F4FF080730360001F21F0010303608E
:1057D000001F054B036014380260001F6FF00203C6
:1057E00003602038704700008D55000801460A69A3
:1057F000D1E901309860D1E90103586050688842CE
:1058000001D188685060002008611068401E106057
:105810001068704700F1080141604FF0FF3181606E
:1058200000F10801C16001610021016070470021A1
:105830000161704710B502460B685C1C0CB9106919
:1058400007E002F1080000E04068446824689C42D8
:10585000FAD944684C604C68A160886041600A6174
:105860001468641C146010BD42684A6093688B60C1
:10587000936859609160086103685B1C036070471E
:1058800000BF502080F31188BFF34F8FBFF36F8F9D
:1058900000BF0E480068401C0C49086008460068BC
:1058A000012812D10A480068C0B208B9012000E0FE
:1058B000002050B900BF502080F31188BFF34F8FF4
:1058C000BFF36F8F00BF00BFFEE77047E00000200E
:1058D00004ED00E00D48006850B900BF502080F38F
:1058E0001188BFF34F8FBFF36F8F00BF00BFFEE77C
:1058F00006480068401E054908600846006820B94F
:10590000002080F3118800BF00BF7047E000002036
:1059100070B506463546002E3FD0083D2C461F493F
:1059200060680968084008B1012000E0002050B913
:1059300000BF502080F31188BFF34F8FBFF36F8FEC
:1059400000BF00BFFEE7206808B9012000E000208A
:1059500050B900BF502080F31188BFF34F8FBFF3C1
:105960006F8F00BF00BFFEE70C4960680968084000
:1059700098B1206888B909496068096888436060FF
:1059800000F0C2F9064960680968084404490860E3
:105990002046FFF717FC01F039F870BD0001002028
:1059A000F8000020064800684FF47A71B0FBF1F06F
:1059B000401E4FF0E0214861072008617047000059
:1059C0002000002070B5FAF743FC0446102C16D3D3
:1059D00004F1E02090F8F05315480078854201DB8F
:1059E000012000E0002050B900BF502080F3118852
:1059F000BFF34F8FBFF36F8F00BF00BFFEE70D48AF
:105A0000006800F4E0600C490968884201D8012070
:105A100000E0002050B900BF502080F31188BFF390
:105A20004F8FBFF36F8F00BF00BFFEE770BD000058
:105A3000E40000200CED00E0E80000200246002019
:105A40000BE0084B53F8303033B9064B43F83010B5
:105A500003EBC0035A6002E0401C0828F1D300BFEA
:105A6000704700003C0600202DE9F04105460E4637
:105A700017462C46FFF704FF94F94400401C10B968
:105A8000002084F8440094F94500401C10B900201F
:105A900084F84500FFF71EFFA06B28B93A4631464F
:105AA00004F1240000F056F82046FFF79CFDBDE805
:105AB000F081000070B504460025D4B1124800689A
:105AC00008B9012000E0002050B900BF502080F349
:105AD0001188BFF34F8FBFF36F8F00BF00BFFEE78A
