:020000040800F2
:100000000039012059020008650500088304000832
:1000100061050008290300088F1100080000000096
:10002000000000000000000000000000A101000826
:100030004B03000800000000F5010008E10C000877
:1000400073020008730200087302000873020008BC
:1000500073020008730200087302000873020008AC
:10006000730200087302000873020008730200089C
:10007000730200087302000873020008730200088C
:10008000730200087302000873020008730200087C
:10009000730200087302000873020008730200086C
:1000A000730200087302000873020008730200085C
:1000B000730200087302000873020008730200084C
:1000C000730200087302000873020008730200083C
:1000D000730200082D0E0008C50E0008350F000839
:1000E000730200087302000873020008730200081C
:1000F000730200087302000873020008730200080C
:1001000073020008730200087302000873020008FB
:1001100073020008730200087302000873020008EB
:1001200073020008730200087302000873020008DB
:1001300073020008730200087302000873020008CB
:1001400073020008730200087302000873020008BB
:1001500073020008730200087302000873020008AB
:10016000730200087302000873020008730200089B
:10017000730200087302000873020008730200088B
:100180007302000873020008DFF810D000F09AF83C
:1001900000480047ED120008AFF30080003901204D
:1001A0002A4B19680868B0E8F04F80F30988BFF35C
:1001B0006F8F4FF0000080F311887047000000003F
:1001C00006480068006880F3088862B661B6BFF32D
:1001D0004F8FBFF36F8F00DF00BF00BF08ED00E05F
:1001E000DFF80C00016841F470010160704700BF46
:1001F00088ED00E0EFF30980BFF36F8F134B1A68AF
:100200001EF0100F08BF20ED108A20E9F04F10609B
:1002100008B44FF0500080F31188BFF34F8FBFF345
:100220006F8F02F0A3F84FF0000080F3118808BC34
:1002300019680868B0E8F04F1EF0100F08BFB0EC66
:10024000108A80F30988BFF36F8F70474C0000203D
:10025000EFF30580704700000648804706480047D6
:10026000FEE7FEE7FEE7FEE7FEE7FEE7FEE7FEE766
:10027000FEE7FEE7150D00088901000840EA0103CA
:100280009B0703D009E008C9121F08C0042AFAD24C
:1002900003E011F8013B00F8013B521EF9D2704710
:1002A000D2B201E000F8012B491EFBD270470022B8
:1002B000F6E710B513460A4604461946FFF7F0FF65
:1002C000204610BD064C074D06E0E06840F00103F3
:1002D00094E8070098471034AC42F6D3FFF758FF74
:1002E0001C4000083C4000081CB50121202000F003
:1002F000EDFB4FF48070009001208DF80400032086
:100300008DF8050000208DF807008DF8060069467D
:10031000034800F04BF80020024908601CBD0000B3
:1003200000140240A082424200BFFEE7002106E026
:1003300042F6E06100BF0A1EA1F10101FBD1021EDD
:10034000A0F1010398B2F3D17047704710B5014690
:100350000B46002220E000204FF0E02420611148ED
:100360000078401E60610020A0610F480078206185
:100370000CE04FF0E020026902F4803000B106E0AA
:1003800002F0010010B94FF0FF3010BDF1E700BFDF
:1003900000204FF0E0242061181EA3F10103DAD100
:1003A00000BFF2E71C00002024000020F0B50A4640
:1003B00000210023002400BF3DE0012505FA01F3E0
:1003C000156805EA03049C4234D105684F000326F2
:1003D000BE40B543056015794E00B540066835430B
:1003E00005601579012D02D01579022D16D1856889
:1003F0004F000326BE40B543856055794E00B54099
:10040000866835438560456801268E40B543456062
:10041000456896798E40B6B235434560C5684F0051
:100420000326BE40B543C560D5794E00B540C668C9
:100430003543C560491C1029BFD3F0BDF0B500237A
:1004400000244D07ED0E02FA05F3CE1000F1200551
:1004500055F826504E07F70E0F26BE40B543CF1075
:1004600000F1200646F82750CE1000F1200555F87F
:10047000265045EA0304CE1000F1200545F8264039
:10048000F0BD00BFFEE710B54FF4E13000F076FCA0
:1004900000F02CF800F00AF8FFF726FF4FF47A700E
:1004A000FFF744FF00F089F910BD00001CB50121E1
:1004B000084600F00BFB0121102000F007FB012093
:1004C000009000208DF804008DF80700694605486B
:1004D000FFF76CFF1C20009069460348FFF766FF9A
:1004E0001CBD000000000240001002401CB50121AC
:1004F000102000F0EBFA0121202000F0E7FA4FF481
:10050000C060009001208DF8040003208DF80500E4
:1005100000208DF807008DF8060069460A48FFF7AD
:1005200045FF4FF4C040009069460848FFF73EFF82
:100530000120074908600749C1F8A8020649086078
:100540000649C1F8B8021CBD001402400010024068
:10055000A482424200804242B4024242000042422F
:1005600000BFFEE77047000070B5002100230F2296
:10057000C4781CB3174C246804F4E064C4F5E06448
:10058000C4F30721C1F10404E3B20A4144789C405A
:10059000E1B28478144021430C07210E0E4C0578FB
:1005A0006155047804F01F050124AC4005786D11F5
:1005B000AD0005F1E025C5F8004109E0047804F03C
:1005C0001F050124AC40054D0678761145F82640FC
:1005D00070BD00000CED00E000E400E080E100E010
:1005E00010B500200EE0002108E0002200EB80138F
:1005F000064C04EB43035A544A1CD1B28229F4DB63
:10060000421CD0B20828EEDB10BD0000C000002064
:100610002DE9F04304460D4616461F4628463CE0A9
:10062000224635E0002A31DB812A2FDC00282DDB31
:100630003F282BDC4FEAE07C00EB5C7C4FEAEC0CC3
:100640000CEB8C1CDFF85C8008EB4C0C1CF802C037
:1006500003464FEAE07800EB58784FEAE808A0EB51
:10066000C8094FF0010808FA09F82CEA080C0146FD
:100670004FEAE07800EB58784FEAE80808EB881872
:10068000DFF8209009EB480808F802C0511C0AB2B4
:10069000A1199142C6DC411C08B2E9198142BFDCB4
:1006A000BDE8F083C00000201CB54FF47A70FFF75E
:1006B0004DFE0121022000F009FA0121082000F07E
:1006C00005FA4FF40040009001208DF8040000204E
:1006D0008DF8060001208DF8070003208DF8050035
:1006E00069460A48FFF762FE4FF4806000900120DF
:1006F0008DF8040069460648FFF758FE012000F017
:10070000B1F9012000F0B4F91CBD00000004024062
:10071000000C024070B5054600241AE080212141FA
:10072000294009B1012100E00021084600F0A0F9AC
:100730000120FFF70BFE012000F094F90120FFF7E4
:1007400005FE002000F08EF90120FFF7FFFD601C80
:10075000C4B2082CE2DB012000F084F90120FFF78D
:10076000F5FD002000F07EF90120FFF7EFFD70BDE0
:1007700010B5012000F07CF9012000F073F9012090
:10078000FFF7E4FD002000F073F90120FFF7DEFD24
:10079000002000F067F910BD10B5002000F068F9E6
:1007A000012000F05FF90120FFF7D0FD012000F0EB
:1007B0005FF90120FFF7CAFD10BD10B5FFF774FF08
:1007C000AE2000F05BF9D52000F058F9802000F051
:1007D00055F9A82000F052F93F2000F04FF9D3203E
:1007E00000F04CF9002000F049F9402000F046F9F3
:1007F000A12000F043F9C82000F040F9DA2000F011
:100800003DF9122000F03AF9812000F037F9CF20AD
:1008100000F034F9D92000F031F9F12000F02EF980
:10082000DB2000F02BF9302000F028F9A42000F0A4
:1008300025F9A62000F022F98D2000F01FF91420E0
:1008400000F01CF9AF2000F019F9FFF7C9FE00F025
:10085000F3F810BD10B50246012000E050430B1E16
:10086000A1F10101FAD110BD70B505460C4645F065
:10087000B00000F003F9102141EA141000F0FEF876
:1008800004F00F0000F0FAF870BD0000F8B506465D
:100890000F4614461D46082D0CD1A4F120000E4928
:1008A00001EB00101023082239460090304600F07A
:1008B00017F80FE0062D0DD1A4F1200000EB400049
:1008C000064901EB400008230622394600903046D5
:1008D00000F006F8F8BD00002830000818360008BF
:1008E0002DE9FF4F80460E469146DDF834B00025D5
:1008F00000244A4631464046039BFFF789FE00BF6D
:1009000066E0002560E008EB050000285ADB08EBF4
:1009100005007F2856DC3046F11706EB5171C910EF
:100920000FB2F11706EB5171C910A6EBC10A002EE8
:1009300005DA781E07B20AF108000FFA80FA3819B2
:1009400000281BDB3819072818DC381900EB801049
:10095000254901EB400008EB0501405C04FB09510F
:100960001BF8011001FA0AF10843391901EB811152
:100970001D4A02EB410108EB050288543819401C5E
:1009800000281FDB3819401C07281BDC3819401CC5
:1009900000EB8010144901EB400008EB0501405CBE
:1009A00004FB09511BF80110CAF108021141084368
:1009B0003919491C01EB81110B4A02EB410108EB8B
:1009C00005028854681CC5B24D459CDB601CC4B24E
:1009D0000399481EC11700EB5171012202EBE1019E
:1009E000A1428EDCBDE8FF8FC00000202DE9F0475A
:1009F0000646894617461D46DDF82080002417E08C
:100A0000281B411E0A20FFF725FFB7FBF0F00A2143
:100A1000B0FBF1F201FB120000F1300A04FB0861A7
:100A200008B2434652464946FFF730FF601CC4B245
:100A3000AC42E5DBBDE8F08710B500240DE00021F5
:100A40002046FFF711FF04EB8411054A02EB410039
:100A5000822100F023F8601CC4B2082CEFDB10BD2B
:100A6000C00000200149086070470000BC8240427D
:100A70000149086070470000A882414210B5044651
:100A8000FFF776FE7820FFF745FE0020FFF742FED5
:100A90002046FFF73FFEFFF77FFE10BD70B505460D
:100AA0000E46FFF765FE7820FFF734FE4020FFF783
:100AB00031FE002404E0285DFFF72CFE601CC4B268
:100AC000B442F8DBFFF768FE70BD000029B1064AAA
:100AD00012680243044B1A6004E0034A126882431E
:100AE000014B1A60704700003038024029B1064AB5
:100AF00012680243044B1A6004E0034A12688243FE
:100B0000014B1A607047000044380240F0B50021E4
:100B100000220024022500260223324F3F6807F0FE
:100B20000C0121B1042905D0082937D105E02E4F49
:100B3000076036E02D4F076033E02A4F3F1F3F68C4
:100B4000C7F38056274F3F1F3F6807F03F036EB142
:100B5000264FB7FBF3F7DFF88CC0ACF1040CDCF8E0
:100B600000C0CCF3881C07FB0CF40CE01E4FB7FB55
:100B7000F3F7DFF870C0ACF1040CDCF800C0CCF384
:100B8000881C07FB0CF4174F3F1F3F68C7F3014752
:100B90007F1C7D00B4FBF5F7076002E0124F076091
:100BA00000BF00BF0F4F3F6807F0F0010909104F69
:100BB0007A5C0768D74047600A4F3F6807F4E05106
:100BC000890A0B4F7A5C4768D7408760054F3F68BA
:100BD00007F46041490B064F7A5C4768D740C7600D
:100BE000F0BD0000083802400024F40000127A0032
:100BF0003C0000200CB500200190009034480068B3
:100C000040F480303249086000BF3148006800F489
:100C1000003000900198401C0190009818B901988C
:100C2000B0F5A04FF1D12A48006800F4003010B1AF
:100C30000120009001E0002000900098012846D19A
:100C400023484030006840F080502149403108601E
:100C50002048006840F440401E4908601C480830A5
:100C600000681B49083108600846006840F40040ED
:100C700008600846006840F4A05008601648091F44
:100C80000860081F006840F08070091F086000BFFE
:100C90000F48006800F000700028F9D040F205709D
:100CA0000E4908600A480830006820F0030008492F
:100CB000083108600846006840F00200086000BF84
:100CC00003480830006800F00C000828F8D10CBD7B
:100CD000003802400070004008544007003C0240C9
:100CE00010B500BF502080F31188BFF34F8FBFF3C2
:100CF0006F8F00BF01F054FF18B14FF080500449CE
:100D0000086000BF002080F3118800BF10BD000004
:100D100004ED00E010B51548006840F47000134978
:100D200008601348006840F0010011490860002085
:100D30000F49083108600E4800680E4908400C4908
:100D400008600D48091D0860081F006820F4802015
:100D5000091F0860002006490C310860FFF74AFFB0
:100D60004FF0006001498039086010BD88ED00E057
:100D700000380240FFFFF6FE1030002410B588B0A6
:100D8000044601211020FFF7B1FE01210846FFF7BC
:100D90009DFE072209212348FFF750FB07220A2165
:100DA0002048FFF74BFB4FF4C060069002208DF8FF
:100DB0001C0003208DF81D0000208DF81F008DF809
:100DC0001E0006A91748FFF7F1FA02940020ADF8BB
:100DD00014000C20ADF812000020ADF81000ADF8A2
:100DE0000E00ADF80C0002A90F4800F05DF92520B7
:100DF0008DF8040000208DF805008DF80600012014
:100E00008DF8070001A8FFF7AFFB012240F2255142
:100E1000054800F023F90121034800F0DCF808B090
:100E200010BD0000000002400010014010B5002479
:100E300040F22551144800F0E7F8012822D1124869
:100E400000F09CF9C4B21148114909784454232C8C
:100E500003D101200F49087004E00D480078401CC0
:100E60000B4908702146084800F08DF900BF802129
:100E7000054800F0BCF80028F9D040F2255102489E
:100E800000F09AF810BD000000100140D0040020CE
:100E9000280000202900002010B504460BE014F8BB
:100EA000011B074800F06FF900BF8021044800F0E3
:100EB0009EF80028F9D020780028F0D110BD00005D
:100EC0000010014010B5002440F22551144800F0F4
:100ED0009BF8012822D1124800F050F9C4B2114801
:100EE000114909784454232C03D101200F4908707B
:100EF00004E00D480078401C0B49087021460C485E
:100F000000F041F900BF8021094800F070F8002886
:100F1000F9D040F22551024800F04EF810BD000013
:100F200000440040D00500202A0000202B000020B3
:100F30000010014070B5002440F22551194800F01E
:100F400063F8012815D1174800F018F9C4B2164803
:100F50000088FF2808DC15481349098844541248C2
:100F60000088401C1049088040F225510D4800F0CF
:100F700023F840F224410B4800F046F8012810D134
:100F80000B490870084800880A4908800748FFF79D
:100F900083FF00200449088002480588001D058859
:100FA00000BF70BD004800402C000020D00600208B
:100FB000300000202E00002010B50022002340F653
:100FC0006A14A14200D100BF0A1201249440A3B2C6
:100FD000DC43048010BD21B1828942F40052828139
:100FE00004E082894DF6FF731A4082817047024601
:100FF0000020B1F5007F00D100BF13880B400BB17A
:10100000012000E00020704770B502460024002354
:101010000025002040F66A16B14200D100BFC1F39E
:10102000421501F01F03012606FA03F3012D02D138
:101030009689334006E0022D02D1168A334001E042
:10104000968A33400C12012606FA04F416883440BE
:1010500013B10CB1012000E0002070BDF0B50346D3
:10106000002400260025002040F66A17B94200D16E
:1010700000BF1846C1F3421401F01F06012707FA0A
:1010800006F5012C01D10C3004E0022C01D1103006
:1010900000E014301AB107682F43076002E00768C8
:1010A000AF430760F0BD00002DE9FF4705460E463F
:1010B0000024A14600BFA046B08900B100BF2C8A21
:1010C00024F44054F08804432C82AC8941F20C6033
:1010D0008443B08831890843718908430443AC8153
:1010E000AC8A24F44074B0890443AC826846FFF7AC
:1010F0000DFD2048854202D01F48854202D1DDF80F
:101100000C9001E0DDF80890A88900F4004040B19F
:1011100009EBC90000EB091031684900B0FBF1F799
:1011200007E009EBC90000EB091031688900B0FB4A
:10113000F1F76420B7FBF0F004012009642101FB02
:101140001078A88900F4004040B1322000EBC800BC
:10115000B0FBF1F000F00700044308E0322000EBA0
:1011600008106421B0FBF1F000F00F0004432C8163
:10117000BDE8FF8700100140001401400146888847
:10118000C0F308007047C1F308028280704700BFB7
:10119000FEE700000FB4054B10B503A9044A0298FE
:1011A00000F017F810BC5DF814FB0000C91200082D
:1011B0003400002002E008C8121F08C1002AFAD13A
:1011C00070477047002001E001C1121F002AFBD1C7
:1011D00070472DE9F84F9946924688460546002704
:1011E00006E025280AD051464A4690476D1C7F1CD0
:1011F00028780028F5D13846BDE8F88F002315F887
:10120000011F18462E2915D115F8011F04232A297C
:101210000DD06FF02F022978A1F13004092C09D8E4
:1012200000EB800002EB400008446D1CF3E758F827
:10123000040B6D1C2A78002ADDD0632A07D0732A9C
:101240000FD0104651464A4690477F1C2AE018F8B6
:10125000042B8DF8002000218DF801106E4601212D
:1012600003E058F8046B4FF0FF315A074FF00004C9
:1012700001D409E0641C84420BDA8C42FADB325D53
:10128000002AF7D105E0641C8C42FCDB305D0028AD
:10129000F9D1274404E016F8010B51464A4690471D
:1012A000641EF8D26D1CA3E708B509E008200523E9
:1012B0000222102100900020FFF798FBFFF7BCFBF3
:1012C000F4E700BFFEE7000070B504460D46A1B28A
:1012D0000548FFF758FF00BF80210348FFF787FE4E
:1012E0000028F9D0204670BD001001401CB5FFF762
:1012F000CAF81348052100234FF40072CDE900100D
:1013000010A1134801F006FC0446012C02D111A0E3
:10131000FFF740FF1448052100234FF40072CDE988
:10132000001012A1144801F0F5FB0446012C02D173
:1013300012A0FFF72FFF00F0C7FF00201CBD000028
:10134000000000206170705F7461736B31000000F9
:10135000A91200086170705F7461736B3120637251
:1013600065617465210D0A00040000206170705FE2
:101370007461736B32000000C31200086170705F0B
:101380007461736B3220637265617465210D0A00AC
:101390002DE9F04105460E461C4807681C480068C8
:1013A000001D00F07BFD50B91948006890F82C1022
:1013B0000120884017490968814316480160681C6C
:1013C00038B936B112480168091D134800F0A4FD70
:1013D0001AE07C190E4800684460BC4207D20C48F1
:1013E0000168091D0D48006800F07CFD0CE008480C
:1013F0000168091D0A48006800F074FD094800688A
:10140000844201D207480460BDE8F08160000020FA
:101410004C00002064000020C4080020540000207C
:10142000500000207C00002010B5044600F080FD34
:1014300024480068401C234908602348006840B9DC
:10144000214804600846006801280DD100F0DEF94B
:101450000AE01E48006838B91B480068C06AE16AA3
:10146000884201D81848046019480068401C18498F
:10147000086008460068206494F82C100120884019
:1014800014490968084313490860E16A01EB8101C6
:10149000114A02EB8100211D00F03EFD00F072FDBB
:1014A0000A48006868B108480068C06AE16A884272
:1014B00007D24FF0805009490860BFF34F8FBFF348
:1014C0006F8F10BD5C0000204C00002068000020E1
:1014D00078000020640000201008002004ED00E0E7
:1014E00010B500F025FD10480068D0B90F4800F095
:1014F000E9FC0F4800F0E6FC0C480E4908600C4877
:101500000D49086000220C210A2001F013F8064959
:1015100008600846006820B108A10348006800F090
:10152000E5FD00F02FFD10BD90000020D808002040
:10153000EC080020880000208C000020546D7251BF
:101540000000000070B523E000F008FF13480068B9
:1015500008B9012000E00020054601F075FCBDB986
:1015600000F0E6FC0D48C068C468201D00F096FC41
:101570000B480068401E0A4908600A480068401E7F
:101580000849086000F0FEFC204600F060F800BF4B
:10159000044800680028D7D170BD0000B0080020C2
:1015A0005C0000205800002070B504460D46206CF9
:1015B00070B1216CE0680844E0606168E0688842CE
:1015C00001D32068E0602846226CE168FEF756FEF1
:1015D00070BD2DE9F04104460F4615464FF0000856
:1015E000A66B206C40B9206860BB606801F07CFB92
:1015F00080460020606025E07DB93946226CA068F5
:10160000FEF73CFE216CA0680844A060D4E90110FC
:10161000884217D32068A06014E03946226CE06845
:10162000FEF72CFE216CE068401AE0602168E0685B
:10163000884203D2216C6068401AE060022D01D11B
:1016400006B1761E701CA0634046BDE8F08110B55F
:101650000446206B00F0B4FC204600F0B1FC10BD45
:101660000146084A126812680AB9012200E0002205
:101670000A600A6822B9034A1268D268106800E05A
:10168000002070478800002030B54FF4963317488B
:1016900000F007042CB1C01D20F00700134C041B00
:1016A0001B1B0246124C22600024114D6C60D018A6
:1016B000083820F007000F4C206000240D4D2D68E5
:1016C0006C600C4D2D682C601146441A4C60094C1E
:1016D00024680C60084D4C682C60084D4C682C60E8
:1016E0004FF00044064D2C6030BD00000009002082
:1016F000A8000020B0000020B8000020B4000020A6
:10170000BC00002000BFFFF71DFF0648006801284D
:10171000F9D94FF0805004490860BFF34F8FBFF3F1
:101720006F8FF0E71008002004ED00E02DE9F04194
:1017300006460D4617469846069C0DB9246000E003
:101740002760E66325640121204601F001F884F852
:101750004C80BDE8F0812DE9F05F82460F4690464F
:101760009B460A9E0C9C4FEA8801A522206BFEF73F
:1017700097FDA8F10100216B01EB800929F0070911
:1017800009F0070008B9012000E0002050B900BFAF
:10179000502080F31188BFF34F8FBFF36F8F00BFCE
:1017A00000BFFEE7002507E0795D04F134004155F4
:1017B000785D00B902E06D1C0A2DF5D300BF002151
:1017C0003D200155052E00D30426E662A6640020C4
:1017D000E064201D00F083FB04F1180000F07FFBA3
:1017E0002461C6F10500A06164620020206584F8D0
:1017F00054005A465146484600F03AFB20600B9888
:1018000008B10B980460BDE8F09F000010B50024FB
:1018100007E004EB84010F4A02EB810000F052FB69
:10182000641C052CF5D30C4800F04CFB0B4800F071
:1018300049FB0B4800F046FB0A4800F043FB0A480E
:1018400000F040FB04480949086004480849086062
:1018500010BD000010080020740800208808002037
:101860009C080020B0080020C40800205000002080
:101870005400002010B50146164800E000680368D7
:101880008B42FBD30246436813448B4204D1436826
:101890004C682344436001460A464B68134404687D
:1018A000A34211D10C4C03682468A34208D04B68B2
:1018B0000468646823444B6003681B680B6005E0A0
:1018C000054B1B680B6001E003680B60884200D089
:1018D000016010BDA8000020B00000202DE9F041FB
:1018E00004460D4616461F464FF000086560246109
:1018F000B5420CD8F01BA169884202D34FF0010811
:1019000011E0211D0948006800F0ECFA0BE0BE422E
:1019100004D2BD4202D34FF0010804E0211D044867
:10192000006800F0DFFA4046BDE8F0818C0000203E
:101930008800002070B5054600F0FAFAA86B08B9D7
:10194000012400E0002400F01DFB204670BD70B5AE
:10195000054600F0EDFAA86BE96B884201D101243D
:1019600000E0002400F00EFB204670BDF8B50546EF
:101970000F4616480068C068C468201D00F08EFA43
:10198000E06901281DD1A06941192B463A4620463D
:10199000FFF7A4FFA8B1002003462A4601460090A5
:1019A000204601F0FFFA064656B900BF502080F3EA
:1019B0001188BFF34F8FBFF36F8F00BF00BFFEE7EB
:1019C00000BF2046616A8847F8BD000088000020FB
:1019D00070B586B06AE00398002867DB059C6069F3
:1019E00008B9012000E0002010B9201D00F056FACF
:1019F00002A800F0BDF8054603980A2854D2DFE893
:101A000000F009050731334F0608323400BF00BF2C
:101A100000BF00BF0498A269811803462A462046E9
:101A2000FFF75CFFE8B12046616A8847E06901285A
:101A300017D1002000900498A1694218002319468C
:101A4000204601F0AFFA064656B900BF502080F399
:101A50001188BFF34F8FBFF36F8F00BF00BFFEE74A
:101A600000BF22E000BF20E000BF0498A061A06991
:101A700008B1012000E0002050B900BF502080F3E1
:101A80001188BFF34F8FBFF36F8F00BF00BFFEE71A
:101A9000A06941192B462A462046FFF71FFF04E0A4
:101AA000204600F08DFA00E000BF00BF00231A4678
:101AB00003A90448006800F069FD00288BD106B036
:101AC00070BD000090000020F8B505460C4600F0FF
:101AD00045FC684600F04CF80646009820BB44B927
:101AE000B54206D801F0B0F931462846FFF73EFF6F
:101AF0001CE03CB10E480068006808B9012000E015
:101B000000200446A91B22460A48006800F004FB96
:101B100001F09AF950B94FF0805007490860BFF3BF
:101B20004F8FBFF36F8F01E001F08EF9F8BD000019
:101B30008C0000209000002004ED00E00A490968B4
:101B4000096809B9012100E0002121B14FF0FF31FE
:101B5000064A116006E004490968C968C868034A72
:101B60004168116070470000500000207C00002098
:101B700070B5044601F00EF8054607480068854236
:101B800004D200F00BF80120206001E0002020606A
:101B900001480560284670BD980000202DE9F843F3
:101BA00032E024480068C068056822480068C068C0
:101BB000C468201D00F072F92046616A8847E06918
:101BC000012821D1A0694619AE4207D96660246177
:101BD000211D1848006800F085F915E00020034633
:101BE0002A4601460090204601F0DCF9074657B925
:101BF00000BF502080F31188BFF34F8FBFF36F8F6A
:101C000000BF00BFFEE700BF0A480068006808B9CF
:101C1000012000E000200028C3D00648D0F8008052
:101C200005480068034908600348C0F80080BDE823
:101C3000F8830000880000208C0000200E48006817
:101C4000401C08B9012000E0002050B900BF50201E
:101C500080F31188BFF34F8FBFF36F8F00BF00BFBA
:101C6000FEE700BF502080F31188BFF34F8FBFF312
:101C70006F8F00BF00BFFEE79C00002008B500BFCB
:101C80006846FFF7EDFC044620460099FFF71CFF6D
:101C9000FFF79EFEF4E770B5044600F049F994F9A9
:101CA000455010E0606A08B9012000E0002038B912
:101CB00004F1240001F07CF818B100F053FA00E0C0
:101CC00003E0681E45B2002DECDC00BFFF2084F865
:101CD000450000F057F900F02BF994F9445010E05A
:101CE000206908B9012000E0002048B904F1100083
:101CF00001F05EF808B100F035FA681E45B200E068
:101D000001E0002DECDC00BFFF2084F8440000F06F
:101D100039F970BD2DE9F04104464FF0000800F09C
:101D20001DFB4648006808B9FFF7AEFC4448006850
:101D3000204000286BD1D4B1083404F00700B0B1C2
:101D400004F00700C0F10800044404F0070008B9DB
:101D5000012000E0002050B900BF502080F311881E
:101D6000BFF34F8FBFF36F8F00BF00BFFEE7002CA4
:101D70004DD034480068844249D8334E3046056817
:101D800001E02E462D686868A04202D2286800282B
:101D9000F7D12A480068854239D0306800F1080838
:101DA000286830606868001B102819D92F1907F0BF
:101DB000070008B9012000E0002050B900BF502002
:101DC00080F31188BFF34F8FBFF36F8F00BF00BF49
:101DD000FEE76868001B78606C603846FFF74AFDD4
:101DE000184968680968081A1649086008460068B2
:101DF00016490968884203D21248006813490860EE
:101E00000F4968680968084368600020286001F08D
:101E10001BF808F0070008B9012000E0002050B9C5
:101E200000BF502080F31188BFF34F8FBFF36F8F37
:101E300000BF00BFFEE74046BDE8F081B0000020D3
:101E4000BC000020B4000020A8000020B800002042
:101E50000648006830B10549096801F14C00C96CB9
:101E6000491C016001480068704700004C000020D8
:101E7000001F4FF080730360001F21F00103036017
:101E8000001F054B036014380260001F6FF002034F
:101E900003602038704700003D1C000801460A69B5
:101EA000D1E901309860D1E9010358605068884257
:101EB00001D188685060002008611068401E1060E1
:101EC0001068704700F1080141604FF0FF318160F8
:101ED00000F10801C160016100210160704700212B
:101EE0000161704710B502460B685C1C0CB91069A3
:101EF00007E002F1080000E04068446824689C4262
:101F0000FAD944684C604C68A160886041600A61FD
:101F10001468641C146010BD42684A6093688B604A
:101F2000936859609160086103685B1C03607047A7
:101F300000BF502080F31188BFF34F8FBFF36F8F26
:101F400000BF0E480068401C0C4908600846006845
:101F5000012812D10A480068C0B208B9012000E087
:101F6000002050B900BF502080F31188BFF34F8F7D
:101F7000BFF36F8F00BF00BFFEE770479C000020DB
:101F800004ED00E00D48006850B900BF502080F318
:101F90001188BFF34F8FBFF36F8F00BF00BFFEE705
:101FA00006480068401E054908600846006820B9D8
:101FB000002080F3118800BF00BF70479C00002004
:101FC00070B506463546002E3FD0083D2C461F49C9
:101FD00060680968084008B1012000E0002050B99D
:101FE00000BF502080F31188BFF34F8FBFF36F8F76
:101FF00000BF00BFFEE7206808B9012000E0002014
:1020000050B900BF502080F31188BFF34F8FBFF34A
:102010006F8F00BF00BFFEE70C4960680968084089
:1020200098B1206888B90949606809688843606088
:1020300000F094F90649606809680844044908609A
:102040002046FFF717FC00F0FFFE70BDBC0000202B
:10205000B4000020064800684FF47A71B0FBF1F03C
:10206000401E4FF0E02148610720086170470000E2
:102070000800002070B5FEF7EBF80446102C16D3CC
:1020800004F1E02090F8F05315480078854201DB18
:10209000012000E0002050B900BF502080F31188DB
:1020A000BFF34F8FBFF36F8F00BF00BFFEE70D4838
:1020B000006800F4E0600C490968884201D80120FA
:1020C00000E0002050B900BF502080F31188BFF31A
:1020D0004F8FBFF36F8F00BF00BFFEE770BD0000E2
:1020E000A00000200CED00E0A4000020024600202B
:1020F0000BE0084B53F8303033B9064B43F830103F
:1021000003EBC0035A6002E0401C0828F1D300BF73
:1021100070470000D00700202DE9F04105460E462B
:1021200017462C46FFF704FF94F94400401C10B9F1
:10213000002084F8440094F94500401C10B90020A8
:1021400084F84500FFF71EFFA06B28B93A463146D8
:1021500004F1240000F028F82046FFF79CFDBDE8BC
:10216000F0810000012001490860704770000020E4
:1021700070B504460D4654B900BF502080F3118855
:10218000BFF34F8FBFF36F8F00BF00BFFEE705485F
:10219000016818312046FFF7A5FE01212846FFF708
:1021A000F7F870BD4C00002070B505460E46144689
:1021B00055B900BF502080F31188BFF34F8FBFF394
:1021C0006F8F00BF00BFFEE7064801681831284640
:1021D000FFF7A2FE0CB14FF0FF3621463046FFF765
:1021E000D7F870BD4C00002070B505462C46002D78
:1021F0004BD02649E06A0968C96A884245D2A0697D
:1022000000F0004028B921480068C06AC0F105000C
:10221000A061E16A01EB81011D4A02EB8101606965
:10222000884201D1012000E0002050B3201DFFF7BB
:1022300035FE78B9E06A00EB8000154951F82000BE
:1022400040B994F82C100120884012490968814354
:10225000104801600D480068C06AE06294F82C10D4
:10226000012088400B49096808430A490860E16A6F
:1022700001EB8101064A02EB8100211DFFF74CFEB4
:1022800003E002480068C06AE06270BD4C000020B4
:10229000100800206400002050B900BF502181F3D5
:1022A0001188BFF34F8FBFF36F8F00BF00BFFEE7F2
:1022B00003490968016003490968416070470000EB
:1022C00074000020600000201CB51D4800210B4652
:1022D0008222CDE900101BA11C4800F01BFC044623
:1022E000012C02D100F032FE0446012C15D100BFB2
:1022F000502080F31188BFF34F8FBFF36F8F00BF63
:102300004FF0FF3012490860012012490860002098
:102310001149086000F070F810E0601C08B101205D
:1023200000E0002050B900BF502080F31188BFF3B7
:102330004F8FBFF36F8F00BF00BFFEE71CBD0000D3
:102340008000002049444C450000000005170008AB
:102350007C00002068000020600000200248006827
:10236000401C014908607047840000201D48006837
:1023700018B101201C49086032E000201A490860A9
:102380001A480068B0FA80F0C0F11F0101EB81002B
:10239000174A52F8200008B1012000E0002050B98F
:1023A00000BF502080F31188BFF34F8FBFF36F8FB2
:1023B00000BF00BFFEE701EB81020D4B03EB820083
:1023C00042685268426000F108024368934202D1B9
:1023D0004268526842604268D268064B1A6000BF89
:1023E000704700008400002070000020640000207E
:1023F000100800204C0000201CB5474800684749E1
:10240000884201D0012000E0002050B900BF5020D8
:1024100080F31188BFF34F8FBFF36F8F00BF00BFF2
:10242000FEE73D4800683D49491E884201D0012031
:1024300000E0002050B900BF502080F31188BFF3A6
:102440004F8FBFF36F8F00BF00BFFEE734490846D0
:1024500000780190FF200A4610700846007800902E
:102460009DF8000000F0F0009DF80020904201D19E
:10247000012000E0002050B900BF502080F31188F7
:10248000BFF34F8FBFF36F8F00BF00BFFEE79DF814
:10249000000000F05000234A10700720224A10600C
:1024A00009E021480068401E1F4A10609DF80000A6
:1024B0004006000E00909DF8000000F0800080288B
:1024C000EFD0194800680002174A106010460088D3
:1024D00000F4E0601060124A019810700E4820303D
:1024E000006840F470000C4920310860084600681C
:1024F00040F070400860FFF7ADFD00200B49086018
:10250000FDF76EFE0A48006840F040400849086048
:10251000FDF756FE00201CBD00ED00E071C20F412A
:1025200000E400E0A0000020A40000209C000020A7
:1025300034EF00E02DE9F84305460E4690460DB114
:10254000012000E0002050B900BF502080F3118826
:10255000BFF34F8FBFF36F8F00BF00BFFEE70EB911
:10256000002701E005FB06F707F15000FFF7D2FB5B
:10257000044644B104F1500943464A4631462846D0
:102580000094FFF7D3F82046BDE8F8832DE9FF4714
:1025900082B005460E461F464FF0000A2C4654B93D
:1025A00000BF502080F31188BFF34F8FBFF36F8FB0
:1025B00000BF00BFFEE70EB9206C08B9012000E0A3
:1025C000002050B900BF502080F31188BFF34F8F17
:1025D000BFF36F8F00BF00BFFEE700F0CBFA08B972
:1025E000049808B9012000E0002050B900BF502035
:1025F00080F31188BFF34F8FBFF36F8F00BF00BF11
:10260000FEE700BFFFF794FCD4F83890B9F1000F53
:102610003DD0D4F80C8031462046FEF7C5FFDFB927
:10262000A9F10100A063206810B9FFF711FC6060F8
:10263000206908B9012000E0002010BB04F110005F
:1026400000F0B6FBE8B14FF0805040490860BFF39E
:102650004F8FBFF36F8F14E0C4F80C80606A08B925
:10266000012000E0002060B904F1240000F0A0FB8C
:1026700038B14FF0805035490860BFF34F8FBFF33A
:102680006F8FFFF77FFC012006B0BDE8F08704984C
:1026900018B9FFF777FC0020F6E7BAF1000F04D174
:1026A0006846FFF7F9FD4FF0010AFFF76BFCFFF7F3
:1026B00055FEFFF73DFC94F94400401C10B9002082
:1026C00084F8440094F94500401C10B9002084F8B7
:1026D0004500FFF757FC04A9684600F0D5F940BB58
:1026E0002046FFF727F9F0B1206830B9FFF720FC4A
:1026F0006068FFF779FDFFF745FC04F124000499B9
:10270000FFF736FD2046FFF7C6FA00F09DFB0028D4
:102710007FF478AF4FF080500C490860BFF34F8FC3
:10272000BFF36F8F6EE72046FFF7B5FA00F08CFB22
:1027300068E72046FFF7AFFA00F086FB2046FFF778
:10274000F9F80028EED000209EE7000004ED00E03C
:1027500070B505460E462C4654B900BF502080F394
:102760001188BFF34F8FBFF36F8F00BF00BFFEE72D
:10277000FFF7DEFBD4E90F12206801FB0200606066
:102780000020A0632068A060E06B401E226C2168DE
:1027900000FB0210E060FF2084F8440084F845004C
:1027A0009EB9206908B9012000E00020A8B904F111
:1027B000100000F0FDFA80B14FF080500949086028
:1027C000BFF34F8FBFF36F8F07E004F11000FFF7E7
:1027D00079FB04F12400FFF775FBFFF7D3FB012021
:1027E00070BD000004ED00E02DE9FF4383B0064614
:1027F00088461D464FF00009344654B900BF5020AA
:1028000080F31188BFF34F8FBFF36F8F00BF00BFFE
:10281000FEE7B8F1000F01D1206C08B9012000E0FB
:10282000002050B900BF502080F31188BFF34F8FB4
:10283000BFF36F8F00BF00BFFEE7022D02D1E06B38
:10284000012801D1012000E0002050B900BF502034
:1028500080F31188BFF34F8FBFF36F8F00BF00BFAE
:10286000FEE700F087F908B9059808B9012000E0F3
:10287000002050B900BF502080F31188BFF34F8F64
:10288000BFF36F8F00BF00BFFEE700BFFFF750FB35
:10289000A06BE16B884201D3022D28D12A46414624
:1028A0002046FEF796FE0746606A08B9012000E060
:1028B000002068B904F1240000F07AFA88B14FF0E2
:1028C000805032490860BFF34F8FBFF36F8F08E02D
:1028D0003FB14FF080502D490860BFF34F8FBFF3D9
:1028E0006F8FFFF74FFB012007B0BDE8F08305981D
:1028F00018B9FFF747FB0020F6E7B9F1000F04D144
:1029000001A8FFF7C9FC4FF00109FFF73BFBFFF7F8
:1029100025FDFFF70DFB94F94400401C10B9002081
:1029200084F8440094F94500401C10B9002084F854
:102930004500FFF727FB05A901A800F0A5F8F0B9AD
:102940002046FFF704F8A0B104F110000599FFF745
:102950000FFC2046FFF79FF900F076FA002895D18A
:102960004FF0805009490860BFF34F8FBFF36F8F5E
:102970008CE72046FFF78FF900F066FA86E72046DD
:10298000FFF789F900F060FA0020ADE704ED00E000
:102990002DE9F05F07468A4690461E463C4654B9EC
:1029A00000BF502080F31188BFF34F8FBFF36F8FAC
:1029B00000BF00BFFEE7BAF1000F01D1206C08B9DB
:1029C000012000E0002050B900BF502080F31188A2
:1029D000BFF34F8FBFF36F8F00BF00BFFEE7022E24
:1029E00002D1E06B012801D1012000E0002050B9A4
:1029F00000BF502080F31188BFF34F8FBFF36F8F5C
:102A000000BF00BFFEE7FFF735FB00BF5021EFF32B
:102A1000118081F31188BFF34F8FBFF36F8F00BF19
:102A20000546A06BE16B884201D3022E23D194F9B5
:102A300045B0324651462046FEF7CBFD0BF1010072
:102A400088B9606A08B9012000E0002080B904F16B
:102A5000240000F0ADF958B1B8F1000F08D0012002
:102A6000C8F8000004E00BF1010040B284F8450012
:102A70004FF0010901E04FF0000900BF85F3118814
:102A800000BF4846BDE8F09F70B504460D4654B9F6
:102A900000BF502080F31188BFF34F8FBFF36F8FBB
:102AA00000BF00BFFEE755B900BF502080F311887A
:102AB000BFF34F8FBFF36F8F00BF00BFFEE7FFF77D
:102AC00037FA124803682868401C08B9002619E044
:102AD0000F4920680968884204D06068984201D88C
:102AE00001260FE06068181A2968884209D2286810
:102AF0006168591A401A28602046FFF7CDFB00266E
:102B000000E00126FFF73EFA304670BD600000206D
:102B1000740000202DE9FF4F85B080468946174696
:102B2000DDE912ABB800FFF7F5F8064656B15820BC
:102B3000FFF7F0F804460CB1266304E03046FFF7D7
:102B40003FFA00E000247CB10020CDE900ABCDE9E4
:102B500002403A4649464046089BFEF7FCFD2046A7
:102B6000FEF762FC012501E04FF0FF35284609B071
:102B7000BDE8F08F0549096809B9012005E004495D
:102B8000096809B9022000E00020704768000020B1
:102B900084000020014908687047000060000020A0
:102BA0002DE9F0414FF0000844480068002877D133
:102BB00043480068451C4248056015BB4148006811
:102BC000006808B9012000E0002050B900BF502083
:102BD00080F31188BFF34F8FBFF36F8F00BF00BF2B
:102BE000FEE73848076838480068364908603648C4
:102BF000076036480068401C34490860FEF79EFFB5
:102C000000BF3348006885423CD300BF2D480068B0
:102C1000006808B9012000E0002020B14FF0FF302B
:102C20002B4908602DE027480068C068C4686668C2
:102C3000B54202D22648066023E0201DFFF72EF998
:102C4000A06A18B104F11800FFF728F994F82C10C5
:102C5000012088401F49096808431E490860E16A4D
:102C600001EB81011C4A02EB8100211DFFF754F9A1
:102C70001A49E06A0968C96A8842C7D34FF0010857
:102C8000C4E700BF15480068C06A00EB8000124925
:102C900051F82000012801D94FF0010805E0FFE7B5
:102CA0000F480068401C0E4908600E48006808B1D3
:102CB0004FF001084046BDE8F0810000840000208C
:102CC000600000205000002054000020740000200C
:102CD0007C00002064000020100800204C00002030
:102CE0006C0000207000002070B505462C460026C0
:102CF000002D55D02B480068844201D1012000E00E
:102D0000002050B900BF502080F31188BFF34F8FCF
:102D1000BFF36F8F00BF00BFFEE7E06C50B900BF8C
:102D2000502080F31188BFF34F8FBFF36F8F00BF28
:102D300000BFFEE7E06C401EE064A16CE06A8842E0
:102D40002ED0E06C60BB201DFFF7A8F878B9E06AD0
:102D500000EB8000144951F8200040B994F82C1081
:102D60000120884011490968814310480160A06C26
:102D7000E062E06AC0F10500A06194F82C10012027
:102D800088400A490968084308490860E16A01EB7C
:102D90008101054A02EB8100211DFFF7BDF80126E4
:102DA000304670BD4C000020100800206400002058
:102DB00070B50646F068C46854B900BF502080F36F
:102DC0001188BFF34F8FBFF36F8F00BF00BFFEE7C7
:102DD00004F11800FFF762F815480068A8B9201D33
:102DE000FFF75CF894F82C1001208840114909681D
:102DF000084310490860E16A01EB81010E4A02EBC9
:102E00008100211DFFF788F804E004F118010B4848
:102E1000FFF782F80A49E06A0968C96A884204D95A
:102E2000012501200749086000E00025284670BD03
:102E30008400002064000020100800209C0800206E
:102E40004C0000207000002070B500240026364899
:102E5000006850B900BF502080F31188BFF34F8F36
:102E6000BFF36F8F00BF00BFFEE7FFF761F82E488A
:102E70000068401E2C4908600846006800284FD1B1
:102E80002A48006800284BD024E02948C068C4685C
:102E900004F11800FFF702F8201DFEF7FFFF94F879
:102EA0002C10012088402349096808432149086003
:102EB000E16A01EB8101204A02EB8100211DFFF74D
:102EC0002BF81E49E06A0968C96A884202D30120CA
:102ED0001B4908601648006808B9012000E000207E
:102EE0000028D2D00CB1FEF729FE1648056865B15E
:102EF00000BFFFF755FE10B10120114908606D1E9B
:102F0000002DF6D100200F4908600D48006838B147
:102F1000012630070C490860BFF34F8FBFF36F8F56
:102F2000FFF730F8304670BD840000205C000020C0
:102F30009C08002064000020100800204C000020A5
:102F4000700000206C00002004ED00E01CB500249F
:102F5000FEF7C6FA0E48006858B10E480221002359
:102F60004FF48272CDE900100BA10D48FFF7D2FD9E
:102F7000044654B900BF502080F31188BFF34F8F2F
:102F8000BFF36F8F00BF00BFFEE720461CBD0000EF
:102F90009000002094000020546D7220537663004E
:102FA0007D1C00082DE9FE4304460D4616461F46CB
:102FB000DDF828804FF0000954B900BF502080F39D
:102FC0001188BFF34F8FBFF36F8F00BF00BFFEE7C5
:102FD0001448006810B3009501960294062D15DA86
:102FE000FFF7C8FD022808D10023424669460D4874
:102FF0000068FFF7F9FB814610E000231A46694696
:1030000008480068FFF7F0FB814607E000233A46D6
:10301000694604480068FFF7BBFC81464846BDE8A6
:10302000FE8300009000002000000000000000006F
:103030000000000000000000000000F80000000098
:10304000000000333000000000160E00160E0000D5
:10305000000000000000000040C07840C078400040
:10306000043F04043F040400007088FC08300000A2
:10307000001820FF211E0000F008F000E0180000FA
:1030800000211C031E211E0000F0088870000000B3
:103090001E21232419272110000000160E00000015
:1030A0000000000000000000000000E01804020022
:1030B000000000071820400000020418E000000093
:1030C0000040201807000000404080F08040400091
:1030D0000202010F01020200000000F000000000E7
:1030E0000101011F010101000000000000000000BB
:1030F00000B07000000000000000000000000000B0
:1031000000010101010101010000000000000000B8
:103110000030300000000000000000008060180453
:10312000006018060100000000E010080810E00030
:10313000000F102020100F00001010F800000000F9
:103140000020203F20200000007008080888700040
:1031500000302824222130000030088888483000C0
:103160000018202020110E000000C02010F80000E0
:1031700000070424243F240000F808888808080079
:103180000019212020110E0000E01088881800008E
:10319000000F112020110E0000380808C838080060
:1031A0000000003F000000000070880808887000E0
:1031B000001C222121221C0000E010080810E00061
:1031C0000000312222110F00000000C0C0000000EA
:1031D0000000003030000000000000C0C00000000F
:1031E000000080B070000000000080402010080047
:1031F00000010204081020004040404040404000D0
:1032000004040404040404000008102040800000AA
:103210000020100804020100007048080808F000AF
:103220000000003036010000C030C828E810E0007F
:103230000718272423140B000000C038E00000000A
:10324000203C23020227382008F888888870000074
:10325000203F202020110E00C03008080808380048
:10326000071820202010080008F808080810E000BF
:10327000203F202020100F0008F88888E808100060
:10328000203F20202320180008F88888E808100034
:10329000203F200003000000C0300808083800006C
:1032A00007182020221E020008F808000008F8086D
:1032B000203F210101213F20000808F808080000F4
:1032C0000020203F2020000000000808F808080027
:1032D000C08080807F00000008F888C0281808009F
:1032E000203F20012638200008F8080000000000D8
:1032F000203F20202020300008F8F800F8F80800CF
:10330000203F003F003F200008F830C00008F808C8
:10331000203F200007183F00E01008080810E000D8
:103320000F10202020100F0008F808080808F000EF
:10333000203F210101010000E01008080810E00012
:103340000F18242438504F0008F8888888887000A7
:10335000203F2000030C3020007088080808380047
:103360000038202121221C00180808F8080818003D
:103370000000203F2000000008F808000008F808BE
:10338000001F202020201F000878880000C838086F
:10339000000007380E010000F80800F80008F800E7
:1033A000033C0700073C0300081868808068180881
:1033B00020302C03032C30200838C800C8380800FF
:1033C0000000203F2000000010080808C83808004E
:1033D0002038262120201800000000FE02020200F2
:1033E0000000007F40404000000C30C000000000A2
:1033F000000000010638C00000020202FE000000CA
:10340000004040407F000000002010080408102009
:1034100000000000000000000000000000000000AC
:10342000808080808080808000020408000000008E
:10343000000000000000000000008080808000008C
:103440000019242222223F2008F80080800000007A
:10345000003F112020110E0000000080808000003D
:10346000000E112020201100000000808088F8004C
:10347000000E112020103F2000008080808000007E
:10348000001F222222221300008080F088888818E2
:103490000020203F202000000000808080808000ED
:1034A000006B94949493600008F800808080000082
:1034B000203F210000203F2000809898000000005D
:1034C0000020203F2020000000000080989800008D
:1034D00000C08080807F000008F8000080808000AD
:1034E000203F24022D302000000808F800000000D2
:1034F0000020203F2020000080808080808080008D
:10350000203F20003F20003F00808000808000009E
:1035100000203F2100203F200000808080800000AC
:10352000001F202020201F008080008080000000DD
:1035300080FFA12020110E0000000080808080000C
:10354000000E112020A0FF808080800080808000FD
:1035500020203F212000010000008080808080002A
:103560000033242424241900008080E0808000009F
:103570000000001F202000008080000000808000EC
:10358000001F202020103F2080808000008080804D
:1035900000010E30080601008080008000808080DD
:1035A0000F300C030C300F00008080008080800002
:1035B0000020312E0E31200080808000008080802D
:1035C00080818E70180601000080808080808000DD
:1035D0000021302C2221300000000000807C0202FB
:1035E00000000000003F404000000000FF0000001D
:1035F00000000000FF0000000002027C80000000CC
:103600000040403F000000000080404080000080FB
:1036100000000000000101000000000000000000A8
:10362000002F000000000700070000147F147F1423
:1036300000242A7F2A1200231308646200364955A9
:10364000225000000007000000001C224100000082
:1036500041221C000014083E08140008083E080817
:10366000000000A060000008080808080000606072
:103670000000002010080402003E5149453E0000B1
:10368000427F4000004261514946002141454B3193
:10369000001814127F10002745454539003C4A495F
:1036A00049300001710905030036494949360006D1
:1036B0004949291E00003636000000005636000039
:1036C00000081422410000141414141400004122B4
:1036D0001408000201510906003E4955592E007C8C
:1036E0001211127C007F49494936003E4141412276
:1036F000007F4141221C007F49494941007F09095F
:103700000901003E4149497A007F0808087F00000E
:10371000417F4100002040413F01007F08142241C9
:10372000007F40404040007F020C027F007F040881
:10373000107F003E4141413E007F09090906003EDD
:103740004151215E007F0919294600464949493106
:103750000001017F0101003F4040403F001F204029
:10376000201F003F4038403F0063140814630007E7
:103770000870080700615149454300007F4141003E
:10378000000204081020000041417F0000040201F3
:1037900002040040404040400000010204000020BC
:1037A00054545478007F48444438003844444420FA
:1037B00000384444487F00385454541800087E09A7
:1037C00001020018A4A4A47C007F0804047800006F
:1037D000447D4000004080847D00007F102844002C
:1037E0000000417F4000007C04180478007C08043D
:1037F000047800384444443800FC24242418001879
:10380000242418FC007C0804040800485454542064
:1038100000043F444020003C4040207C001C2040ED
:10382000201C003C4030403C004428102844001C30
:10383000A0A0A07C004464544C440000087F4100D8
:103840000000007F00000000417F0800000804081D
:103850001008A3AC00000000000000000000000001
:1038600000000000000000583800000000000000C8
:103870000000000000A1A300000000000000000004
:1038800000000000000000000000182424180000C0
:103890000000000000000000C4E300008060F807A2
:1038A0004020180F08C80808281800010000FF0071
:1038B000100C0340807F0001061800BAC3001010EE
:1038C000F01F10F000808282E2928A8680004022FF
:1038D00015081661000040807F0000000000CAC08B
:1038E00000202020FE2020FF202020FF202020205C
:1038F000000000007F4040474444444740404000AF
:1039000000BDE700000000FE929292FE929292FEAD
:103910000000000008080484621E010001FE020489
:1039200004080800B6E6008080FC96E584FC0038B8
:10393000C8090E08A8180080601F024C807F000094
:103940003F444241407800BBFA001010D0FF901075
:1039500000FE020202FE00000000040300FF0083DC
:10396000601F0000003F40407800BFD800101010DA
:10397000FF9020984828090E2848A8180002428184
:103980007F0040404242427E4242424000D6C60052
:1039900040504E4848FF48484840F80000FF0000AB
:1039A00000003E0202FF12221E000F40807F000036
:1039B000D2A300404042CC00004A32222AF12131F9
:1039C0002D00000080403F408081BDA1A1BFA1A18A
:1039D000BD8100B8D0000000FC04D4545454D40479
:1039E0007F84C53604008866010063828292AB84BE
:1039F00082C10224CF00CAFD0090523410FF10345F
:103A00005280708F0808F80800829A566322528EFE
:103A1000008040330C33408000BEDD001010FF10EA
:103A20009000FE929292F292929E800042827F01DA
:103A300080601F00FC44474444FC0000CEC20010DC
:103A400060028C0000FE9292929292FE00000004AE
:103A5000047E01407E42427E427E42427E4000B66B
:103A6000C8000000FC242424FC252624FC24242453
:103A7000040040308F80844C55252525554C80808E
:103A80008000CAAA001060028C00FE92929292926C
:103A900092FE00000004047E014448507F40407FB5
:103AA0005048444000B7E40000F808FF08F8809050
:103AB0004C57A4544C8480002063211F11391010EE
:103AC0001515FF1515101000C3F90000FC0404FCC7
:103AD0000000FC0416650484FC0000000F04040FC1
:103AE0000010131212125292423E00C6F70080805C
:103AF0009E9292929EE0809EB2D2929E8000080892
:103B0000F4949292F10001F2929494F80800D3D0C8
:103B10000004040484E43C2724242424E40404044E
:103B20000004020100FF0909090949897F0000001A
:103B300000B6BE00002022AAAAAAAABFAAAAAAAAC0
:103B40002220000004043C2724242D3624A4A47F32
:103B500024240400C6F80020104C475454545454F4
:103B60005454D404040000000000000000000000D1
:103B700000000F3040F000CCE500008060F8071036
:103B80001010D0FFD01010100000010000FF10082E
:103B9000040B08FF080B04081000D6C7001094534C
:103BA000321E325210007E4242427E00000000006F
:103BB000FF49494949494949FF00000000C4DC0068
:103BC00008CC4A49484ACC18007F88888482E000A3
:103BD00000FF121252927F00007E88888482E000EB
:103BE000CEDD000000FE12525252D25252525252B8
:103BF0005E000080609F8090929392FE92929396D6
:103C0000908000C4DA0000F808080808887F880857
:103C1000080808F8000000FF000804020100000185
:103C2000024C807F0000BCE00000007E0000FF002E
:103C300040300F04146404000040407E42427E4243
:103C400042427E42427E404000B2E2001060028C5E
:103C500000FE02F202FE00F800FF000004047E01F4
:103C60008047300F10270047807F0000CFB500004D
:103C70000022322AA6A2622111098101000000005F
:103C80004222130B42827E02020A1223460000CD1A
:103C9000B3002030AC63300088C8A8998E88A8C8CB
:103CA000880022672212128040300F00003F4040FF
:103CB0007100B2CB00040444C44F4444C424242FF4
:103CC000B42404040040442424150C04FE040C1500
:103CD0002424444000B5A5000000F8494A4C48F8A7
:103CE000484C4A49F800000010101312121212FF3B
:103CF0001212121213101000B7BF000000FC24248F
:103D0000242566A4242424243C000040300F814153
:103D1000310F090909498979010000C8D50000005F
:103D200000FE82828282828282FE00000000000009
:103D300000FF40404040404040FF00000000D6BE31
:103D40000008088888888888FF8888888888080804
:103D500000403800003C4040424C40407004083075
:103D600000C7EB004042CC0000445454547F5454EC
:103D70005444400000007F201000FF151515559594
:103D80007F000000CAE40088681FC80810C85452A9
:103D9000D1129408D01000091909FF0500FF1292F2
:103DA000FF005F807F0000C8EB0000000000000102
:103DB000E21CE000000000000000804020100C0326
:103DC000000000030C3040808000C3DC00108C44F5
:103DD00004E40495A64424148444940C0002027A5A
:103DE000414143427E42424243F8000000C2EB00A0
:103DF0000484E45C44C40002F2828282FE8080007B
:103E000002017F10103F00080808084888403F0062
:103E1000D5FD00000202C2020202FE82828282827C
:103E20000200004040407F4040407F4040404040D2
:103E3000404000D4DA00080888C8380C0B0808E8AD
:103E4000080808080800020100FF40414141417F85
:103E5000414141414000B3F500080889EA18880053
:103E60000404FC040404FC0000020100FF0186407D
:103E70002018074080403F0000CABC001010F01F0F
:103E800010F00040E05847405060C0004022150844
:103E900016210000FE42424242FE0000BBAF00007D
:103EA0008060F807000000FF4020100804000001B7
:103EB0000000FF000402013F40404040407800C73E
:103EC000EB004042CC0000445454547F54545444BA
:103ED000400000007F201000FF15151555957F004C
:103EE0000000B5C80008042322262A22FA2423222F
:103EF000262A020200010909091969090949897D6F
:103F00000909090100B4FD00001088C43340484885
:103F1000487F48C848484000020100FF00020A32BA
:103F20000242827F02020200BFAA0080828282FED9
:103F30008282828282FE8282828000008040300FF4
:103F40000000000000FF0000000000B9D8000000E1
:103F50001011161010F010101413100000008181C1
:103F6000414121110D030D11214141818100CDCB32
:103F700000404042CC0000FF4949C949497F8000C8
:103F8000000040201F20405F4844404142455840C7
:103F900000B3F60000007C40404040FF40404040FD
:103FA000FC000000007C40404040407F40404040DA
:103FB00040FC0000200000000000000000000000A5
:103FC00000000000000000000000000000000000F1
:103FD00000000000000000000000FF0101013109A5
:103FE000090909897101010101FFFF80808080803A
:103FF000809681808080808080FFFF01818181FDAB
:104000008991A1C1FD81818101FFFF808080809F16
:10401000888482819F80808080FF00003C4000086F
:1040200000000020C0000000B4110008FC4000089F
:10403000C000002040380100C4110008000000004A
:1040400000000000007A030A0000000000000000E9
:104050000102030406070809000000000000000038
:104060000000000000000000000000000000000050
:104070000000000000000000000000000102030436
:104080000102030406070809000000000000000008
:104090000000000000000000000000000000000020
:1040A0000000000000000000000000000000000010
:1040B0000000000000000000000000000000000000
:1040C00000000000000000000000000000000000F0
:1040D0000000000000000000AAAAAAAA0000000038
:1040E00000000000000000000000000000000000D0
:0C40F000000000000000000000000000C4
:040000050800018965
:00000001FF
