:020000040800F2
:1000000060370120590200086912000875110008C4
:100010006512000845080008B92400080000000027
:10002000000000000000000000000000A101000826
:10003000990A000800000000F5010008C11A000834
:1000400073020008730200087302000873020008BC
:1000500073020008730200087302000873020008AC
:10006000730200087302000873020008730200089C
:10007000730200087302000873020008730200088C
:10008000730200087302000873020008730200087C
:10009000730200087302000873020008510B000885
:1000A000730200087302000873020008730200085C
:1000B000730200087302000873020008730200084C
:1000C000730200087302000873020008730200083C
:1000D00073020008D91E00087D1F00080D200008CB
:1000E000730200087302000873020008730200081C
:1000F0007302000873020008811C000873020008E4
:1001000073020008730200087302000873020008FB
:1001100073020008730200087302000873020008EB
:1001200073020008730200087302000873020008DB
:1001300073020008730200087302000873020008CB
:1001400073020008730200087302000873020008BB
:1001500073020008730200087302000873020008AB
:10016000730200087302000873020008730200089B
:10017000730200087302000873020008730200088B
:100180007302000873020008DFF810D000F028FBAB
:1001900000480047AD2D0008AFF300806037012014
:1001A0002A4B19680868B0E8F04F80F30988BFF35C
:1001B0006F8F4FF0000080F311887047000000003F
:1001C00006480068006880F3088862B661B6BFF32D
:1001D0004F8FBFF36F8F00DF00BF00BF08ED00E05F
:1001E000DFF80C00016841F470010160704700BF46
:1001F00088ED00E0EFF30980BFF36F8F134B1A68AF
:100200001EF0100F08BF20ED108A20E9F04F10609B
:1002100008B44FF0500080F31188BFF34F8FBFF345
:100220006F8F03F06FFF4FF0000080F3118808BC60
:1002300019680868B0E8F04F1EF0100F08BFB0EC66
:10024000108A80F30988BFF36F8F70478400002005
:10025000EFF30580704700000648804706480047D6
:10026000FEE7FEE7FEE7FEE7FEE7FEE7FEE7FEE766
:10027000FEE7FEE7F51A00088901000840EA0103DD
:100280009B0703D009E008C9121F08C0042AFAD24C
:1002900003E011F8013B00F8013B521EF9D2704710
:1002A000D2B201E000F8012B491EFBD270470022B8
:1002B000F6E710B513460A4604461946FFF7F0FF65
:1002C000204610BD2DE9FE4F804681EA0300C00F95
:1002D0000C46009021F0004123F00045B8EB0200ED
:1002E000A94105D24046214690461C460B4602468F
:1002F00023F00040104347D0270DC7F30A00C3F393
:100300000A510290401A019040286BDAC3F313009F
:1003100040F4801B0098924620B10023D2EB030AE0
:1003200063EB0B0B01985946C0F14002504600F0B8
:10033000B0F906460D4650465946019A00F0C8F9F4
:1003400010EB08006141002487EA115284EAE77348
:100350001A4340D0009A62B3019A012A4FEA075229
:1003600015DC001B61EB02014FF0004202EA07526C
:10037000CDE90042001C41F5801132462B4600F0C9
:10038000C8F903B0BDE8F08F40462146F9E7001BED
:1003900061EB0201001C41F5801300185B4120183D
:1003A000A2F5001747EB030140EAD570B6196D417D
:1003B00011E06D084FEA360645EAC0754FEA07526C
:1003C000001B61EB0201001C41F5801149084FEA56
:1003D00030000019514132462B4603B0BDE8F04FC2
:1003E00000F088B90098012240000023D0EB0202FF
:1003F00063EBE073009821464FEAE074B8EB00002D
:1004000061EB0401E9E783F000435BE781F0004121
:1004100058E72DE9FE4F81EA030404F0004421F07F
:10042000004100944FF0000B23F0004350EA010418
:100430005ED052EA03045BD0C3F30A54C1F30A55F9
:100440002C44A4F2F3340194A0FB0254C1F3130131
:1004500041F48011C3F3130343F4801301FB0244FE
:1004600000FB034E840A970A44EA815447EA835703
:10047000A4FB076802958D0A05FB07854FEA932CBC
:1004800004FB0C542705029D4FEA065847EA16372D
:10049000B5EB08056EEB070C870E920E47EA811745
:1004A00042EA8312A7FB0201B6EB0B0164EB0004E6
:1004B0002B0D43EA0C335E1844EB1C50DA465146D0
:1004C000E7FB0201C5F313044FEA0B3343EA14536D
:1004D0004FEA0432019C43EA0603A4F10C0402949F
:1004E000009CCDE900B400F014F903B0BDE8F08F32
:1004F00000200146F9E72DE9F04D81EA030404F0FC
:10050000004B21F0004514464FF0000A23F0004153
:1005100050EA050220D054EA01021DD0C5F30A5763
:100520000246C5F31303C1F31300C1F30A5640F4A6
:10053000801543F48013A7EB0608101BD64608F27B
:10054000FD3873EB050002D308F1010801E09218B1
:100550005B41B8F1000F03DA00200146BDE8F08DE1
:1005600000204FF48011064684460EE0171B73EB03
:10057000050705D3121B63EB050306434CEA010C88
:1005800049084FEA300092185B4150EA0107EDD16B
:1005900052EA030012D082EA040083EA050108430C
:1005A00005D0101BAB4106D20122002306E0002239
:1005B0004FF0004302E06FF0010253101AEB060007
:1005C0004CEB085110EB0A0041EB0B01BDE8F04D7C
:1005D00000F090B830B5041E71F1000404DB4FF058
:1005E0000044404264EB0101141E73F1000405DB7A
:1005F0001C464FF00043524263EB0403994208BF8C
:10060000904230BD30B50B46014600202022012427
:1006100009E021FA02F59D4205D303FA02F5491BD0
:1006200004FA02F52844151EA2F10102F1DC30BDE6
:100630002DE9F05F0546002092469B468846064617
:10064000814640241BE0284641464746224600F0AA
:100650002FF853465A46C01A914110D311461846F6
:10066000224600F016F82D1A67EB01084F46224685
:100670000120002100F00DF817EB00094E41201E6B
:10068000A4F10104DFDC484631462A464346BDE872
:10069000F09F202A04DB203A00FA02F10020704784
:1006A0009140C2F1200320FA03F3194390407047B0
:1006B000202A04DB203A21FA02F00021704721FAB7
:1006C00002F3D040C2F1200291400843194670471E
:1006D000202A06DBCB17203A41FA02F043EAE07306
:1006E00006E041FA02F3D040C2F1200291400843F3
:1006F0001946704710B5141E73F1000408DA401C47
:1007000041F1000192185B411A4301D120F0010030
:1007100010BD2DE9F04D92469B4611B1B1FA81F220
:1007200002E0B0FA80F220329046FFF7B2FF0446B2
:100730000F4640EA0A0041EA0B0153465A46084375
:1007400013D0114653EA010019D0C8F140025046B7
:10075000FFF7AEFF05460E46504659464246FFF7A4
:1007600098FF084305D0012004E020463946BDE843
:10077000F08D0020054346EAE0762C4337430A9883
:100780006305E40AA0EB08000022FD0A44EA47548E
:100790000A3002D500200146E9E701051019694138
:1007A000DDE9084500196941BDE8F04DA2E7C1F354
:1007B0000A52C1F3130140F2FF3341F480119A420F
:1007C00002DA00200146704740F233439A42A2F217
:1007D000334202DC5242FFF76BBFFFF75ABF000003
:1007E000064C074D06E0E06840F0010394E807007E
:1007F00098471034AC42F6D3FFF7CAFCD45E000829
:10080000F45E00081CB50121202001F01FF84FF410
:100810008070009001208DF8040003208DF8050001
:1008200000208DF807008DF806006946034800F0A7
:1008300015FA0020024908601CBD000000140240A7
:10084000A082424200BFFEE72DE9F04705460024A2
:100850000027A046A146012000F0BEF800204C4928
:100860000860142000F01AF901204A49C1F8A402D6
:100870001E2000F033F9002000F0AEF800BF0BE0BE
:10088000601C84B2012000F029F9B4F57A6F03DD11
:100890004FF0FF30BDE8F0873D4880380068012800
:1008A000EED0002409E0601C84B2012000F016F9AB
:1008B000642C02DD6FF00100ECE7354880380068F9
:1008C0000028F0D0002409E0601C84B2012000F070
:1008D00005F9642C02DD6FF00200DBE72C4880385C
:1008E00000680128F0D000263AE04FF00008072702
:1008F00030E0002409E0601C84B2012000F0EEF832
:100900003C2C02DD6FF00300C4E72148803800680A
:100910000028F0D0282000F0E1F81D488038006859
:10092000012815D1B84040EA080000F0FF08002473
:1009300009E0601C84B2012000F0D0F8282C02DD10
:100940006FF00400A6E71248803800680128F0D054
:10095000781E47B2002FCCDA05F80680701C46B22C
:10096000052EC2DB287869780844A9780844E9781C
:1009700000EB010909F0FF002979884202D06FF0ED
:10098000050087E7642000F0A9F8002082E7000056
:10099000A4024342000043421CB50121402000F064
:1009A00055FF4FF40070009001208DF804000320E3
:1009B0008DF8050000208DF807008DF806006946C7
:1009C000034800F04BF90120024908601CBD0000FB
:1009D00000180240A40243421CB504464FF40070C4
:1009E0000090012C0BD101208DF8040003208DF81C
:1009F000050000208DF807008DF8060009E02CB9ED
:100A000000208DF804008DF8070002E04FF0FF3061
:100A10001CBD6946024800F021F90020F8E70000FB
:100A2000001802401CE000235A1E19460D480068B9
:100A300003F098FC01280FD10B48FFF705FF0A4887
:100A40008278017809A001F039FD00231A46194681
:100A50000448006803F0B4FD4FF47A7003F020FA04
:100A6000E1E70000180000201C0000204448543139
:100A7000315F446174615B305D203D2025642C2032
:100A800044485431315F446174615B325D203D20E4
:100A900025640D0A000000007047000070B5044690
:100AA00003F0C4FF012810D00B480088844206D30D
:100AB00009480088B4FBF0F5284603F0F1F9064830
:100AC0000088B4FBF0F100FB11444FF47A7104FB91
:100AD00001F000F003F870BD5A0000202DE9F04746
:100AE00007460026B0464FF0E020D0F81490164894
:100AF00000681649B0FBF1F000FB07FA4FF0E02068
:100B0000856903F0F7FA19E04FF0E0208469AC4200
:100B10000CD0AC4202D2281B064403E0A9EB04002F
:100B2000284406442546564500D308E04FF0E0200F
:100B3000D0F8108008F0010000B900E0E4E700BF41
:100B400004F0DEF8BDE8F0872C00002040420F00E2
:100B500008B5002000904FF4807000F023F80128C1
:100B60000BD10B48006820B169460948006803F0C2
:100B700077FE4FF4807000F00FF8009838B14FF016
:100B8000805004490860BFF34F8FBFF36F8F08BDDB
:100B90005400002004ED00E00149086070470000A7
:100BA000143C014001460020034A12680A400AB181
:100BB000012000E000207047143C0140002123493F
:100BC0008279002A3AD00A46126803689A430B4693
:100BD0001A600A1D126803689A430B1D1A60027995
:100BE00011440A6803681A430A60184A08321268F6
:100BF00003689A43154B08331A601A1D126803687C
:100C00009A43124B0C331A604279102A0ED11A1FE4
:100C1000126803681A430D4B08331A601A1D1268D4
:100C200003681A43094B0C331A600DE007494279F7
:100C300011440A6803681A430A6005E00279114406
:100C40000A6803689A430A6070470000003C01404C
:100C500010B50446204601F05FFB10BDF0B50A4612
:100C600000210023002400BF3DE0012505FA01F327
:100C7000156805EA03049C4234D105684F00032639
:100C8000BE40B543056015794E00B5400668354352
:100C900005601579012D02D01579022D16D18568D0
:100CA0004F000326BE40B543856055794E00B540E0
:100CB000866835438560456801268E40B5434560AA
:100CC000456896798E40B6B235434560C5684F0099
:100CD0000326BE40B543C560D5794E00B540C66811
:100CE0003543C560491C1029BFD3F0BDF0B50023C2
:100CF00000244D07ED0E02FA05F3CE1000F1200599
:100D000055F826504E07F70E0F26BE40B543CF10BC
:100D100000F1200646F82750CE1000F1200555F8C6
:100D2000265045EA0304CE1000F1200545F8264080
:100D3000F0BD000070B500250024002600202849E1
:100D4000087028490860284908602849086005207B
:100D5000FFF7C4FE01202649C1F89C020F20FFF7CF
:100D6000BDFE00202249C1F89C022248066809E025
:100D700020480068801B4EF66021884202D94FF05F
:100D8000FF3070BD164800780028F1D01648006882
:100D900014490968884205D3134800681149096855
:100DA000451A08E00F4800684FF6FF71081A0E490F
:100DB00009680844451C05EB850040F2231101EB4E
:100DC000400040F24721B0FBF1F4022C02D3B4F50D
:100DD000C87F02D94FF0FF30D3E72046D1E70000AB
:100DE0004800002040000020440000209C82414236
:100DF00000804142240401401CB50121082000F07C
:100E000025FD01208DF8040003208DF805008020C9
:100E1000009000208DF8060069460348FFF71EFF8A
:100E200000F004F81CBD0000000C024000B589B0C1
:100E30000121022000F02AFD0121042000F006FD1E
:100E400002208DF820008DF823004020079007A98C
:100E50003548FFF703FF032206213348FFF746FF1B
:100E60004FF6FF700590A720ADF810000020ADF8F8
:100E70001800ADF8120004A92C4800F0EBFF002088
:100E8000ADF804000F20ADF80C000020ADF806000E
:100E9000ADF80A000120ADF8080001A9234800F0D0
:100EA0005AFF0420ADF804000F20ADF80C0002201A
:100EB000ADF806000020ADF80A000220ADF80800E9
:100EC00001A91A4800F047FF01220021174800F04D
:100ED0000DFF01220421154800F008FF0122022124
:100EE000124800F06FFF01220421104800F06AFF51
:100EF0002E208DF8000000208DF8010001208DF8D3
:100F000002008DF80300684600F0B0F95021074850
:100F100000F061FF0521054800F066FF012103484C
:100F200000F0F6FE09B000BD0008024000040140D8
:100F30000CE0FFF7FFFE064908600846016805A0BF
:100F400001F0BCFA4FF47A7002F0AAFFF1E700005A
:100F50002400002064697374616E6365203D202560
:100F6000646D6D0D0A00000070B50025002408E0D6
:100F700000F00CF8012802D1A0402843C5B2601C43
:100F8000C4B2082CF4DB284670BD000070B5002404
:100F90000AE0641C0120FFF7A1FD40F28A20844290
:100FA00002D96FF0020070BD104800680028F0D030
:100FB0004FF44870FFF792FD00250C4800680128A7
:100FC00000D101250024012D0DD107E0641C012072
:100FD000FFF784FDB4F57A7F00D903E00348006889
:100FE0000128F3D000BF68B2DDE7000020024042D4
:100FF00010B5002400BF114800680128FBD008E0AC
:10100000641C0120FFF76AFD42F21C50844200D9A3
:1010100010BD0A4800680028F2D0002408E0641CD3
:101020000120FFF75BFD41F28830844200D9EFE7F1
:10103000024800680128F2D000BFE9E720024042E0
:1010400010B5FFF7D5FF002405E0FFF78DFF0C4931
:101050000855601CC4B2042CF7DB09480078084925
:101060004978084428B9064880780549C978084471
:1010700000B110BD4FF41670FFF730FD00BFF8E768
:101080004D0000201DE000235A1E19460D4800683F
:1010900003F068F9012809D10BA001F00FFAFFF75E
:1010A000CFFF0D4881780DA001F008FA00236422DB
:1010B00019460448006803F055F940F6B83002F0CC
:1010C000EFFEE0E7540000204853303033385F53E0
:1010D000746172740D0A00004D00002048533030D6
:1010E00033385F52656164646174613A2025580D3C
:1010F0000A00000000B585B00121084600F0A6FBFB
:101100000121880300F0C2FB00208DF810004FF48D
:101110008070039000208DF8130002208DF81100DC
:1011200003A91348FFF79AFD0821002000F032FCC4
:101130004FF48070019001208DF80A0000208DF896
:1011400008000C208DF8090001A8FFF737FD1720D3
:101150008DF8000001208DF8030005208DF80100B6
:1011600002208DF80200684600F080F805B000BD4E
:101170000000024000BFFEE710B54FF4407000F0E1
:10118000B1F801F041F901F06FF800F031F800F02A
:101190000FF8FFF737FB00F09CF9FFF7FDFBFFF7B7
:1011A0002BFE4FF4E130FFF753FDFFF7A3FF10BD17
:1011B0001CB50121084600F049FB0121102000F078
:1011C00045FB0120009000208DF804008DF80700F9
:1011D00069460548FFF742FD1C2000906946034818
:1011E000FFF73CFD1CBD0000000002400010024063
:1011F0001CB50121102000F029FB0121202000F066
:1012000025FB4FF4C060009001208DF804000320FE
:101210008DF8050000208DF807008DF8060069465E
:101220000A48FFF71BFD4FF4C0400090694608488C
:10123000FFF714FD0120074908600749C1F8A8021B
:10124000064908600649C1F8B8021CBD00140240F6
:1012500000100240A482424200804242B402424254
:101260000000424200BFFEE77047000070B5002159
:1012700000230F22C4781CB3174C246804F4E064E4
:10128000C4F5E064C4F30721C1F10404E3B20A41E8
:1012900044789C40E1B28478144021430C07210E2D
:1012A0000E4C05786155047804F01F050124AC400C
:1012B00005786D11AD0005F1E025C5F8004109E0A4
:1012C000047804F01F050124AC40054D0678761122
:1012D00045F8264070BD00000CED00E000E400E0A1
:1012E00080E100E002490143024A116070470000BA
:1012F0000000FA050CED00E010B500200EE0002122
:1013000008E0002200EB8013064C04EB43035A5420
:101310004A1CD1B28229F4DB421CD0B20828EEDB91
:1013200010BD0000F80000202DE9F04304460D46F2
:1013300016461F4628463CE0224635E0002A31DBAF
:10134000812A2FDC00282DDB3F282BDC4FEAE07CB4
:1013500000EB5C7C4FEAEC0C0CEB8C1CDFF85C8047
:1013600008EB4C0C1CF802C003464FEAE07800EB97
:1013700058784FEAE808A0EBC8094FF0010808FACE
:1013800009F82CEA080C01464FEAE07800EB58789F
:101390004FEAE80808EB8818DFF8209009EB4808C6
:1013A00008F802C0511C0AB2A1199142C6DC411CC6
:1013B00008B2E9198142BFDCBDE8F083F8000020E3
:1013C0001CB54FF47A70FFF789FB0121022000F071
:1013D0003DFA0121082000F039FA4FF40040009056
:1013E00001208DF8040000208DF8060001208DF802
:1013F000070003208DF8050069460A48FFF72EFC18
:101400004FF48060009001208DF804006946064882
:10141000FFF724FC012000F0E5F9012000F0E8F9D5
:101420001CBD000000040240000C024070B50546DF
:1014300000241AE080212141294009B1012100E066
:101440000021084600F0D4F90120FFF747FB0120F6
:1014500000F0C8F90120FFF741FB002000F0C2F9BD
:101460000120FFF73BFB601CC4B2082CE2DB01202B
:1014700000F0B8F90120FFF731FB002000F0B2F9CD
:101480000120FFF72BFB70BD10B5012000F0B0F973
:10149000012000F0A7F90120FFF720FB002000F059
:1014A000A7F90120FFF71AFB002000F09BF910BDFF
:1014B00010B5002000F09CF9012000F093F9012004
:1014C000FFF70CFB012000F093F90120FFF706FB6A
:1014D00010BD10B5FFF774FFAE2000F08FF9D520D6
:1014E00000F08CF9802000F089F9A82000F086F93E
:1014F0003F2000F083F9D32000F080F9002000F0B5
:101500007DF9402000F07AF9A12000F077F9C82099
:1015100000F074F9DA2000F071F9122000F06EF991
:10152000812000F06BF9CF2000F068F9D92000F09D
:1015300065F9F12000F062F9DB2000F05FF930205E
:1015400000F05CF9A42000F059F9A62000F056F94B
:101550008D2000F053F9142000F050F9AF2000F076
:101560004DF9FFF7C9FE00F027F910BD10B502468E
:10157000012000E050430B1EA1F10101FAD110BD82
:1015800070B505460C4645F0B00000F037F9102163
:1015900041EA141000F032F904F00F0000F02EF9C7
:1015A00070BD0000F8B506460F4614461D46082DCE
:1015B0000CD1A4F120000E4901EB001010230822E9
:1015C00039460090304600F017F80FE0062D0DD197
:1015D000A4F1200000EB4000064901EB4000082385
:1015E000062239460090304600F006F8F8BD0000AB
:1015F000E04E0008D05400082DE9FF4F80460E460B
:101600009146DDF834B0002500244A463146404674
:10161000039BFFF789FE00BF66E0002560E008EB52
:10162000050000285ADB08EB05007F2856DC304611
:10163000F11706EB5171C9100FB2F11706EB51719A
:10164000C910A6EBC10A002E05DA781E07B20AF10E
:1016500008000FFA80FA381900281BDB3819072810
:1016600018DC381900EB8010254901EB400008EB2D
:101670000501405C04FB09511BF8011001FA0AF155
:101680000843391901EB81111D4A02EB410108EBB6
:10169000050288543819401C00281FDB3819401CEB
:1016A00007281BDC3819401C00EB8010144901EBA3
:1016B000400008EB0501405C04FB09511BF80110D8
:1016C000CAF10802114108433919491C01EB811183
:1016D0000B4A02EB410108EB05028854681CC5B2B5
:1016E0004D459CDB601CC4B20399481EC11700EB3A
:1016F0005171012202EBE101A1428EDCBDE8FF8FB6
:10170000F80000202DE9F0470646894617461D4699
:10171000DDF82080002417E0281B411E0A20FFF777
:1017200025FFB7FBF0F00A21B0FBF1F201FB12003C
:1017300000F1300A04FB086108B2434652464946AC
:10174000FFF730FF601CC4B2AC42E5DBBDE8F087B8
:101750000EB500200190029028E000230A221946CD
:101760001348006802F0FEFD01281CD1114903C98D
:10177000CDE9010100231A4619460D48006802F020
:101780001FFF082000909DF8042002231021202034
:10179000FFF7B8FF082000909DF8062002231021D3
:1017A0004020FFF7AFFF192002F07AFBD5E70000D9
:1017B000180000201C00002010B500240DE00021BE
:1017C0002046FFF7DDFE04EB8411054A02EB4100E1
:1017D000822100F023F8601CC4B2082CEFDB10BD9E
:1017E000F80000200149086070470000BC824042B8
:1017F0000149086070470000A882414210B50446C4
:10180000FFF742FE7820FFF711FE0020FFF70EFEE3
:101810002046FFF70BFEFFF74BFE10BD70B50546E7
:101820000E46FFF731FE7820FFF700FE4020FFF75D
:10183000FDFD002404E0285DFFF7F8FD601CC4B244
:10184000B442F8DBFFF734FE70BD000029B1064A50
:1018500012680243044B1A6004E0034A1268824390
:10186000014B1A60704700003038024029B1064A27
:1018700012680243044B1A6004E0034A1268824370
:10188000014B1A60704700004038024029B1064AF7
:1018900012680243044B1A6004E0034A1268824350
:1018A000014B1A607047000044380240F0B5002137
:1018B00000220024022500260223324F3F6807F051
:1018C0000C0121B1042905D0082937D105E02E4F9C
:1018D000076036E02D4F076033E02A4F3F1F3F6817
:1018E000C7F38056274F3F1F3F6807F03F036EB195
:1018F000264FB7FBF3F7DFF88CC0ACF1040CDCF833
:1019000000C0CCF3881C07FB0CF40CE01E4FB7FBA7
:10191000F3F7DFF870C0ACF1040CDCF800C0CCF3D6
:10192000881C07FB0CF4174F3F1F3F68C7F30147A4
:101930007F1C7D00B4FBF5F7076002E0124F0760E3
:1019400000BF00BF0F4F3F6807F0F0010909104FBB
:101950007A5C0768D74047600A4F3F6807F4E05158
:10196000890A0B4F7A5C4768D7408760054F3F680C
:1019700007F46041490B064F7A5C4768D740C7605F
:10198000F0BD0000083802400024F40000127A0084
:101990007100002030B500228B071C0F0F2303FAC3
:1019A00004F20B4B8C1053F824309343084C8D10E9
:1019B00044F8253023468C1053F824308C07240F2C
:1019C00000FA04F42343024C8D1044F8253030BD56
:1019D000083801400CB500200190009034480068A0
:1019E00040F480303249086000BF3148006800F49C
:1019F000003000900198401C0190009818B901989F
:101A0000B0F5A04FF1D12A48006800F4003010B1C1
:101A10000120009001E0002000900098012846D1AC
:101A200023484030006840F0805021494031086030
:101A30002048006840F440401E4908601C480830B7
:101A400000681B49083108600846006840F40040FF
:101A500008600846006840F4A05008601648091F56
:101A60000860081F006840F08070091F086000BF10
:101A70000F48006800F000700028F9D040F20570AF
:101A80000E4908600A480830006820F00300084941
:101A9000083108600846006840F00200086000BF96
:101AA00003480830006800F00C000828F8D10CBD8D
:101AB000003802400070004008544007003C0240DB
:101AC00010B500BF502080F31188BFF34F8FBFF3D4
:101AD0006F8F00BF02F0C0FF18B14FF08050044973
:101AE000086000BF002080F3118800BF10BD000017
:101AF00004ED00E010B51548006840F4700013498B
:101B000008601348006840F0010011490860002097
:101B10000F49083108600E4800680E4908400C491A
:101B200008600D48091D0860081F006820F4802027
:101B3000091F0860002006490C310860FFF74AFFC2
:101B40004FF0006001498039086010BD88ED00E069
:101B500000380240FFFFF6FE10300024F0B50C46BE
:101B6000154600210022068C4FF6FE773E40068483
:101B7000018B028C4FF60C7631407E1C06EA031670
:101B80002E4331434FF6F576324044F0010632439E
:101B900001830284F0BDF0B50C46154600210022F9
:101BA0000026078C4FF6EF7C07EA0C070784018BB1
:101BB000028C4FF6FF7707EA041640F6FF473940DC
:101BC0004FF6FF7707EA033739434FF6FF7707EA07
:101BD000052739434FF65F773A4046F010073A43FE
:101BE00001830284F0BDF0B50C46154600210022A9
:101BF0000026078C4FF6FF6C07EA0C070784818BE1
:101C0000028C4FF6FF7707EA04264FF60C7739402F
:101C10004FF6FF7707EA03172F4339434FF2FF5779
:101C20003A4046F480773A4381830284F0BDF0B5B0
:101C30000C461546002100220026078C4EF6FF7C3C
:101C400007EA0C070784818B028C4FF6FF7707EABF
:101C5000043640F6FF4739404FF6FF7707EA05277D
:101C600039434FF6FF7707EA0337394345F6FF77E5
:101C70003A4046F480573A4381830284F0BD000025
:101C800010B500240221144800F054F840B1124865
:101C900000F04AF81149086002210F4800F035F8B9
:101CA00004210D4800F046F858B10B4800F03FF809
:101CB0000B49086001200B4908700421064800F018
:101CC00024F83CB14FF0805007490860BFF34F8FB4
:101CD000BFF36F8F10BD00000004014040000020E2
:101CE000440000204800002004ED00E030B500234F
:101CF00001248C40A3B2048C9C430484048C02FA1B
:101D000001F5ADB22C43048430BDCA430282704752
:101D100021B1028842F00102028004E002884FF6FD
:101D2000FE731A40028070470146486B70470146B7
:101D3000886B704730B50246002000230024158AC6
:101D400005EA0103958905EA010413B10CB10120EC
:101D500000E0002030BD70B505460C46208850B923
:101D60002389A28861882846FFF7F8FEE188284683
:101D700000F043F825E0208804280AD12389A288AE
:101D800061882846FFF707FFE188284600F03EF803
:101D900017E0208808280AD12389A288618828466C
:101DA000FFF721FFE188284600F03DF809E023898C
:101DB000A28861882846FFF73AFFE188284600F0AC
:101DC0003BF870BD1AB183890B43838102E083899C
:101DD0008B43838170470A46002101894FF68F7338
:101DE000194011430181704702894FF6F8731A4078
:101DF000028102890A4302817047028B4FF6F37316
:101E00001A400283028B0A4302837047028B4FF20F
:101E1000FF331A400283028B4FF6FF7303EA01235C
:101E20001A4302837047828B4FF6F3731A40828302
:101E3000828B0A4382837047828B4FF2FF331A40B2
:101E40008283828B4FF6FF7303EA01231A43828356
:101E50007047000000220288184B98420ED0184BA1
:101E600098420BD0B0F1804F08D0164B984205D065
:101E7000154B984202D0154B984204D14FF68F7300
:101E80001A404B881A43124B984207D0114B984284
:101E900004D04FF6FF431A400B891A4302804B6867
:101EA000C3620B880385054B984202D0044B9842CD
:101EB00001D18B7A038601238382704700000140A1
:101EC000000401400004004000080040000C0040F5
:101ED000001000400014004010B5002440F22551CD
:101EE000164800F0FDF8012826D1144800F0B2F998
:101EF000C4B21348134909884454232C03D1012048
:101F00001149087004E00F480088401C0D49088002
:101F100021460A4800F0A3F921460C4800F09FF939
:101F200000BF8021054800F0CEF80028F9D040F22B
:101F30002551024800F0ACF810BD0000001001402F
:101F4000B00500206200002064000020004800402E
:101F500010B504460BE014F8011B074800F07FF9A8
:101F600000BF8021044800F0AEF80028F9D02078A6
:101F70000028F0D110BD00000010014010B540F263
:101F800025511E4800F0ACF8012834D11B4800F060
:101F900061F91B491B4A127821F812000846194AB8
:101FA000127830F81210154800F059F91448154904
:101FB000097830F81100232813D100201049114A64
:101FC000127821F81200104800F004FA00F00EFA1E
:101FD00000200C49087040F22551084800F058F8DC
:101FE00010BD08480078401C0649087040F2255191
:101FF000024800F04DF800BFF2E700000044004046
:102000001C050020700000200805002070B5002489
:1020100040F22551194800F063F8012815D11748FE
:1020200000F018F9C4B216480088802808DA15486C
:1020300013490988445412480088401C10490880FC
:1020400040F225510D4800F023F840F224410B489E
:1020500000F046F8012810D10B49087008480088A4
:102060000A4908800748FFF773FF002004490880E9
:1020700002480588001D058800BF70BD004800406B
:102080005C000020300500205E0000206000002081
:1020900010B50022002340F66A14A14200D100BF0F
:1020A0000A1201249440A3B2DC43048010BD21B184
:1020B000828942F40052828104E082894DF6FF73E6
:1020C0001A408281704702460020B1F5007F00D19E
:1020D00000BF13880B400BB1012000E000207047C7
:1020E00070B50246002400230025002040F66A1641
:1020F000B14200D100BFC1F3421501F01F03012618
:1021000006FA03F3012D02D19689334006E0022D31
:1021100002D1168A334001E0968A33400C12012620
:1021200006FA04F41688344013B10CB1012000E023
:10213000002070BDF0B503460024002600250020D5
:1021400040F66A17B94200D100BF1846C1F34214E5
:1021500001F01F06012707FA06F5012C01D10C300A
:1021600004E0022C01D1103000E014301AB10768ED
:102170002F43076002E00768AF430760F0BD00002F
:102180002DE9FF4705460E460024A14600BFA046A4
:10219000B08900B100BF2C8A24F44054F088044375
:1021A0002C82AC8941F20C608443B08831890843A9
:1021B000718908430443AC81AC8A24F44074B0892B
:1021C0000443AC826846FFF771FB2048854202D089
:1021D0001F48854202D1DDF80C9001E0DDF808903F
:1021E000A88900F4004040B109EBC90000EB0910D8
:1021F00031684900B0FBF1F707E009EBC90000EBDB
:10220000091031688900B0FBF1F76420B7FBF0F0EA
:1022100004012009642101FB1078A88900F4004022
:1022200040B1322000EBC800B0FBF1F000F0070035
:10223000044308E0322000EB08106421B0FBF1F009
:1022400000F00F0004432C81BDE8FF87001001401F
:102250000014014001468888C0F308007047C1F3AC
:10226000080282807047000000B587B0012108464F
:10227000FFF7ECFA01214804FFF7F8FA02208DF885
:10228000180000208DF81A008DF81B000C20059016
:1022900003208DF8190005A91D48FEF7DFFC072271
:1022A00002211B48FEF722FD072203211848FEF7F2
:1022B0001DFD4FF4165001900020ADF810000C20C9
:1022C000ADF80E000020ADF80C00ADF80A00ADF836
:1022D000080001A90F48FFF753FF012240F22551E2
:1022E0000C48FFF727FF01210A48FFF7E0FE2620F0
:1022F0008DF8000001208DF803008DF8010000200A
:102300008DF802006846FEF7B1FF07B000BD00007F
:10231000000002400044004010B588B0044601218E
:102320008804FFF7A3FA01210220FFF78FFA0722A2
:102330000A212648FEF7DAFC07220B212348FEF784
:10234000D5FC4FF44060069002208DF81C0003205D
:102350008DF81D0000208DF81F008DF81E0006A9C5
:102360001A48FEF77BFC02940020ADF814000C2004
:10237000ADF812000020ADF81000ADF80E00ADF879
:102380000C0002A91248FFF7FBFE27208DF804007D
:1023900000208DF805008DF8060001208DF807005B
:1023A00001A8FEF763FF012240F225510848FFF71C
:1023B000C1FE012240F224410548FFF7BBFE012186
:1023C0000348FFF774FE08B010BD0000000402408F
:1023D000004800400246002005E031F8103022F8A5
:1023E0001030431C98B20A28F7DB7047002005E044
:1023F0000021044A22F81010411C88B20A28F7DB99
:10240000704700001C05002000B587B00121084678
:10241000FFF71CFA01211020FFF738FA02208DF88F
:10242000180000208DF81A008DF81B004FF4C060D2
:10243000059003208DF8190005A91D48FEF70EFC34
:10244000072209211A48FEF751FC07220A211848E1
:10245000FEF74CFC4FF4E13001900020ADF8100085
:102460000C20ADF80E000020ADF80C00ADF80A000D
:10247000ADF8080001A90F48FFF782FE012240F2E3
:1024800025510C48FFF756FE01210A48FFF70FFEC1
:1024900025208DF8000001208DF803008DF8010043
:1024A00000208DF802006846FEF7E0FE07B000BD90
:1024B000000002400010014000BFFEE70FB4054BD2
:1024C00010B503A9044A029800F0DAF810BC5DF8D0
:1024D00014FB0000892D00086800002002E008C8F5
:1024E000121F08C1002AFAD170477047002001E08E
:1024F00001C1121F002AFBD1704700002DE9FF5FC8
:1025000082B00021DDE90430020DDDF840B0034364
:1025100018D044F61050A2F2FF324243151411981D
:1025200001281FD0A5EB0B00401C5FEA000A4FF00A
:1025300000064E4FDFF83891B046504615D5CAF127
:10254000000413E0119801244AA3012801D16FEA85
:102550000B010298119AC0E90031C0E9024206B0AD
:10256000BDE8F09FCBF10000DFE704460021404AC0
:10257000491842EB0450CDE9001012E0E00707D003
:1025800032463B4640464946FDF743FF8046894672
:1025900032463B4610461946FDF73BFF06460F46BE
:1025A0006410002CEAD1DDE90401DDE90023BAF171
:1025B000000F06DAFDF72DFF42464B46FDF729FFD7
:1025C00005E0FDF798FF42464B46FDF794FF0446B1
:1025D0000E460022284BFDF7FDFF03D84FF0FF30D9
:1025E000014607E00022254B20463146FDF76AFEF2
:1025F000FEF7DDF8102409E0002C0ADB0A22002394
:10260000FEF716F8039B30321A55641E50EA010299
:10261000F2D1641C039AC4F111031444119A012AE3
:1026200003D0012208430DD10AE0084304D0002062
:102630004FF0110B119072E7A3EB0B056D1E0DE02F
:102640005B4504DD4FF0000205F1010504E003DA0B
:102650004FF00002A5F10105002AECD00298119973
:10266000C0E90231C0E9004579E7000000001440EC
:102670000000F03F300000000000F0430000E03FA9
:102680002DE9FF4F95B09A46884606460025EEE1B3
:10269000252877D100242746F94A0121039400E038
:1026A000044316F8013F203B01FA03F01042F7D132
:1026B00030782A2811D06FF02F033078A0F1300243
:1026C000092A16D8039A44F0020402EB820203EBB3
:1026D00042021044761C0390EFE758F8042B039253
:1026E000002A03DA504244F40054039044F00204F8
:1026F000761C30782E2816D116F8010F44F0040409
:102700002A280DD06FF02F023078A0F13003092B6A
:1027100009D807EB870302EB4303C718761CF3E7DE
:1027200058F8047B761C30786C280FD006DC4C28D7
:1027300017D068280DD06A2814D104E0742810D06E
:102740007A280FD10DE044F400140AE044F4801418
:1027500001E044F440147278824202D104F58014FE
:10276000761C761C307866280BD013DC582877D07E
:1027700009DC002875D04528F6D04628F4D0472833
:102780001AD193E118E0632835D0642879D0652800
:1027900012D18BE1702873D008DC6728F1D069284A
:1027A0006FD06E280DD06F2806D1ACE073282CD0E6
:1027B000752874D0782853D05246179990476D1CCD
:1027C00054E1C4F30250022809D003280DD0D8F8F0
:1027D000001004280DD00D6008F1040846E1D8F877
:1027E0000010EA17C1E90052F6E7D8F800100D8092
:1027F000F2E70D70F0E718F8041B8DF800100020C8
:102800008DF80100EB46012003E058F804BB4FF0BF
:10281000FF3061074FF0000102D40DE009F1010122
:102820008946B9420FDA8145F8DB1BF80910002907
:10283000F4D108E009F1010189468142FADB1BF875
:1028400009100029F6D103985346A0EB0907214649
:102850003846179A00F080FA284400EB090507E093
:1028600044E008E10DE01BF8010B52461799904730
:10287000B9F10109F7D2534621463846179AF2E0DA
:1028800039E00A21C4F302524FF0000B0091022AF2
:1028900006D058F8040BC117032A09D00AE023E038
:1028A00008F1070020F00702F2E80201904605E077
:1028B00000B2C117042A01D140B2C117002906DABB
:1028C0000A460021404261EB02012D2202E022056E
:1028D00004D52B228DF80420012203E0E20701D069
:1028E0002022F7E7914657E00A2100E010214FF03F
:1028F000000B00910BE010214FF0000B44F004049A
:102900000827009103E008204FF0000B0090C4F36B
:102910000252022A05D058F8040B0021032A08D0DD
:1029200008E008F1070020F00702F2E802019046F3
:1029300003E080B2042A00D1C0B24FF000092207A0
:102940002AD53278702A07D0DDF800C08CF0100C40
:102950005CEA0B0C05D00EE040228DF80420012229
:1029600008E050EA010306D030238DF804308DF8DA
:10297000052002229146009B83F0080353EA0B03D3
:102980000AD150EA010201D1620705D530228DF843
:1029900004204FF001097F1E3278582A04D039A252
:1029A0000C920CAA02920BE03BA2F9E75B46009A5C
:1029B000FDF73EFE0C9B9B5C029A521E0292137026
:1029C00050EA0102F2D1029804A9081A00F1200B82
:1029D000600702D524F4803400E001275F4502DD62
:1029E000A7EB0B0000E0002000EB0B010090039828
:1029F0004944401A0390E00306D453462146179AEF
:102A0000039800F0A9F90544002706E001A8524602
:102A1000C05D179990476D1C7F1C4F45F6DBE003A6
:102A20000CD553462146179A039800F095F90544B2
:102A300004E030205246179990476D1C0099481EBB
:102A400000900029F5DC08E00298029952460078CF
:102A5000491C0291179990476D1CBBF10001ABF125
:102A6000010BF1DC5BE100F065F90544761C307880
:102A700000287FF40DAE19B02846BDE8F08F0000A5
:102A80000928010030313233343536373839616244
:102A90006364656600000000303132333435363708
:102AA000383941424344454600000000600700D4E5
:102AB000062708F1070020F00700F0E8022380460F
:102AC00003F0004C5FEA0C0001D097A009E020055C
:102AD00001D596A005E0E00701D095A001E0AFF296
:102AE0004C001390307823F0004365280CD006DCAE
:102AF000452809D046281DD047287FD13BE06628CD
:102B000018D067287AD136E00021112F01DB11207F
:102B100000E0781CCDE9000104A90CA8FFF7EEFC49
:102B2000DDE90D010C9A4FF0000B07F1010910923D
:102B300000914EE04FF000400097CDE9011004A94C
:102B40000CA8FFF7DBFCDDE90D020C9B0F994FF0A1
:102B5000000B91461093009211B9791C00EB01090A
:102B6000B7EB090003D4C0F1FF3B07F10109A9EB62
:102B70000700019042E0012F00DA01270021112F08
:102B800001DD112000E03846CDE9000104A90CA8C0
:102B9000FFF7B4FCDDE90D010C9A00914FF0000B3A
:102BA000B946109221070FD4009A4A4503DA91469C
:102BB00001E0A9F10109B9F1010F05DD109AA9F1B0
:102BC0000101515C3029F4D0B84202DA10F1040F4F
:102BD00003DA0121CDE9011010E0002803DC834471
:102BE000A9EB000102E0411C494500DD8946A0EB4C
:102BF0000B00401C01904FF000400290200705D4CC
:102C00000198484502DB4FF0FF30019000208DF81D
:102C10004B0002980DF14B07B0F1004F25D0022078
:102C20000C902B200D90029800280CDA4042029064
:102C30002D200D9007E00A210298FDF7E3FC3031CA
:102C4000029007F8011D0C99481E0C900029F2DC37
:102C500002980028EFD1791E0D980870307800F0A6
:102C6000200040F0450007F8020D11A8C01BC01D50
:102C700002901398007800B1012000EB090101983F
:102C800001EBE071029801440398401A401E039042
:102C9000E00306D453462146179A039800F05CF8E7
:102CA00005441398007818B15246179990476D1C47
:102CB000E00323D553462146179A039800F04CF8B9
:102CC00005441BE0BBF1000F07DB0098584504DD0D
:102CD0001098179910F80B0001E017993020524610
:102CE000904701980BF1010B401E05F10105019081
:102CF00004D12E205246179990476D1CB9F100015E
:102D0000A9F10109DEDC05E017F8010B524617991D
:102D100090476D1C0299481E02900029F4DC53462E
:102D20002146179A03989EE62D0000002B00000014
:102D3000200000002DE9F041044600251E461746FC
:102D4000880404D405E039462020B0476D1C641E79
:102D5000F9D52846BDE8F0812DE9F041044600256B
:102D60001E469046C80301D5302700E0202788047E
:102D700004D505E041463846B0476D1C641EF9D5C0
:102D80002846BDE8F081000070B504460D46A1B2AA
:102D90000548FFF764FA00BF80210348FFF793F965
:102DA0000028F9D0204670BD001001401CB5FEF788
:102DB000E3F9012001F098FA3E49086008460068EE
:102DC00010B93DA0FFF77AFB01F0E2F94249086033
:102DD0000846006820B941A0FFF770FB00BFFEE77E
:102DE00048A0FFF76BFB03220021012001F08DFAC0
:102DF0004E4908600846006818B94DA0FFF75EFB11
:102E000002E056A0FFF75AFB5F4800210B464FF443
:102E10000072CDE900105DA15F4801F0D7FD0446C6
:102E2000012C03D15DA0FFF749FB02E060A0FFF792
:102E300045FB6648022100230A02CDE9001064A187
:102E4000664801F0C3FD0446012C03D164A0FFF7DE
:102E500035FB02E068A0FFF731FB6E48012100233B
:102E60004A02CDE900106CA16F4801F0AFFD0446A5
:102E7000012C03D16DA0FFF721FB02E071A0FFF749
:102E80001DFB7848032100234FF40072CDE90010A8
:102E900075A1784801F09AFD0446012C03D176A073
:102EA000FFF70CFB02E07AA0FFF708FB01F0D8F86F
:102EB00000201CBD180000204448543131204D75BD
:102EC00074657820637265617465206661696C65FC
:102ED00064210D0A00000000000000204553503816
:102EE000323636204576656E742047726F757020D5
:102EF000637265617465206661696C6564210D0AA1
:102F00000000000045535038323636204576656E55
:102F1000742047726F7570206372656174652073E9
:102F2000756363657373210D0A000000540000206F
:102F300048432D78495253656D6170686F72652002
:102F400053656D6170686F72652063726561746549
:102F5000206661696C6564210D0A000048432D7884
:102F6000495253656D6170686F72652053656D617C
:102F700070686F7265206372656174652073756334
:102F800063657373210D0A00040000204F4C454413
:102F90005F5461736B000000511700084F4C4544AB
:102FA0005F5461736B20637265617465210D0A0063
:102FB0004F4C45445F5461736B2063726561746567
:102FC000206661696C6564210D0A0000080000201C
:102FD00044485431315F5461736B0000250A000886
:102FE00044485431315F5461736B2063726561747E
:102FF00065210D0A0000000044485431315F5461DE
:10300000736B20637265617465206661696C6564C9
:10301000210D0A000C00002048435F535230345FFA
:103020005461736B00000000310F000848435F5388
:103030005230345F5461736B206372656174652133
:103040000D0A000048435F535230345F5461736B84
:1030500020637265617465206661696C6564210D29
:103060000A000000140000204853303033385F5409
:1030700061736B00851000084853303033385F545B
:1030800061736B20637265617465210D0A00000035
:103090004853303033385F5461736B20637265611D
:1030A0007465206661696C6564210D0A000000008A
:1030B0002DE9F04105460E461C4807681C4800688B
:1030C000001D00F089FD50B91948006890F82C10D7
:1030D0000120884017490968814316480160681C2F
:1030E00038B936B112480168091D134800F0B2FD25
:1030F0001AE07C190E4800684460BC4207D20C48B4
:103100000168091D0D48006800F08AFD0CE00848C0
:103110000168091D0A48006800F082FD094800683E
:10312000844201D207480460BDE8F0819800002085
:10313000840000209C000020240700208C00002038
:1031400088000020B400002010B5044600F08EFD79
:1031500024480068401C234908602348006840B99F
:10316000214804600846006801280DD100F0ECF900
:103170000AE01E48006838B91B480068C06AE16A66
:10318000884201D81848046019480068401C184952
:10319000086008460068206494F82C1001208840DC
:1031A00014490968084313490860E16A01EB810189
:1031B000114A02EB8100211D00F04CFD00F080FD62
:1031C0000A48006868B108480068C06AE16A884235
:1031D00007D24FF0805009490860BFF34F8FBFF30B
:1031E0006F8F10BD9400002084000020A0000020FC
:1031F000B00000209C0000207006002004ED00E0DC
:1032000010B500F033FD10480068D0B90F4800F049
:10321000F7FC0F4800F0F4FC0C480E4908600C481D
:103220000D49086000220C210A2001F06EF80649C1
:1032300008600846006820B108A10348006800F053
:10324000F3FD00F03DFD10BDC80000203807002050
:103250004C070020C0000020C4000020546D7251B3
:103260000000000070B523E000F044FF1348006840
:1032700008B9012000E00020054601F041FDBDB97C
:1032800000F0F4FC0D48C068C468201D00F0A4FCE8
:103290000B480068401E0A4908600A480068401E42
:1032A0000849086000F00CFD204600F060F800BFFF
:1032B000044800680028D7D170BD00001007002026
:1032C000940000209000002070B504460D46206C4C
:1032D00070B1216CE0680844E0606168E068884291
:1032E00001D32068E0602846226CE168FCF7C6FF45
:1032F00070BD2DE9F04104460F4615464FF0000819
:10330000A66B206C40B9206860BB606801F048FC87
:1033100080460020606025E07DB93946226CA068B7
:10332000FCF7ACFF216CA0680844A060D4E9011050
:10333000884217D32068A06014E03946226CE06808
:10334000FCF79CFF216CE068401AE0602168E068AF
:10335000884203D2216C6068401AE060022D01D1DE
:1033600006B1761E701CA0634046BDE8F08110B522
:103370000446206B00F0C2FC204600F0BFFC10BDEC
:103380000146084A126812680AB9012200E00022C8
:103390000A600A6822B9034A1268D268106800E01D
:1033A00000207047C000002030B54FF49633174816
:1033B00000F007042CB1C01D20F00700134C041BC3
:1033C0001B1B0246124C22600024114D6C60D01869
:1033D000083820F007000F4C206000240D4D2D68A8
:1033E0006C600C4D2D682C601146441A4C60094CE1
:1033F00024680C60084D4C682C60084D4C682C60AB
:103400004FF00044064D2C6030BD000060070020E6
:10341000E0000020E8000020F0000020EC00002088
:10342000F400002000BFFFF71DFF064800680128D8
:10343000F9D94FF0805004490860BFF34F8FBFF3B4
:103440006F8FF0E77006002004ED00E010B5044631
:103450004CB1002060602060E06000231A461946ED
:10346000204601F0ADF810BD2DE9F04106460D46AD
:1034700017469846069C0DB9246000E02760E66375
:1034800025640121204601F04FF884F84C80BDE806
:10349000F0812DE9F05F82460F4690469B460A9EDA
:1034A0000C9C4FEA8801A522206BFCF7F9FEA8F1DD
:1034B0000100216B01EB800929F0070909F00700E1
:1034C00008B9012000E0002050B900BF502080F36F
:1034D0001188BFF34F8FBFF36F8F00BF00BFFEE7B0
:1034E000002507E0795D04F134004155785D00B9AD
:1034F00002E06D1C0A2DF5D300BF00213D200155CF
:10350000052E00D30426E662A6640020E064201D98
:1035100000F083FB04F1180000F07FFB2461C6F18A
:103520000500A06164620020206584F854005A46BA
:103530005146484600F03AFB20600B9808B10B98C2
:103540000460BDE8F09F000010B5002407E004EB24
:1035500084010F4A02EB810000F052FB641C052C31
:10356000F5D30C4800F04CFB0B4800F049FB0B482E
:1035700000F046FB0A4800F043FB0A4800F040FB1D
:1035800004480949086004480849086010BD000063
:1035900070060020D4060020E8060020FC0600206B
:1035A0001007002024070020880000208C00002045
:1035B00010B50146164800E0006803688B42FBD353
:1035C0000246436813448B4204D143684C68234449
:1035D000436001460A464B6813440468A34211D174
:1035E0000C4C03682468A34208D04B6804686468E4
:1035F00023444B6003681B680B6005E0054B1B68A8
:103600000B6001E003680B60884200D0016010BDD0
:10361000E0000020E80000202DE9F04104460D46BE
:1036200016461F464FF0000865602461B5420CD86D
:10363000F01BA169884202D34FF0010811E0211D5F
:103640000948006800F0ECFA0BE0BE4204D2BD422B
:1036500002D34FF0010804E0211D0448006800F087
:10366000DFFA4046BDE8F081C4000020C000002021
:1036700070B5054600F0FAFAA86B08B9012400E01D
:10368000002400F01DFB204670BD70B5054600F01B
:10369000EDFAA86BE96B884201D1012400E0002417
:1036A00000F00EFB204670BDF8B505460F461648E3
:1036B0000068C068C468201D00F08EFAE069012827
:1036C0001DD1A06941192B463A462046FFF7A4FFB9
:1036D000A8B1002003462A4601460090204601F08A
:1036E000BDFB064656B900BF502080F31188BFF3DA
:1036F0004F8FBFF36F8F00BF00BFFEE700BF2046B4
:10370000616A8847F8BD0000C000002070B586B02F
:103710006AE00398002867DB059C606908B901200E
:1037200000E0002010B9201D00F056FA02A800F0B9
:10373000BDF8054603980A2854D2DFE800F00905D1
:103740000731334F0608323400BF00BF00BF00BF4F
:103750000498A269811803462A462046FFF75CFFB9
:10376000E8B12046616A8847E069012817D1002046
:1037700000900498A169421800231946204601F0E0
:103780006DFB064656B900BF502080F31188BFF389
:103790004F8FBFF36F8F00BF00BFFEE700BF22E077
:1037A00000BF20E000BF0498A061A06908B101201B
:1037B00000E0002050B900BF502080F31188BFF313
:1037C0004F8FBFF36F8F00BF00BFFEE7A0694119A5
:1037D0002B462A462046FFF71FFF04E0204600F054
:1037E0008DFA00E000BF00BF00231A4603A9044879
:1037F000006800F0B7FD00288BD106B070BD000056
:10380000C8000020F8B505460C4600F073FC684679
:1038100000F04CF80646009820BB44B9B54206D8E3
:1038200001F06EFA31462846FFF73EFF1CE03CB13E
:103830000E480068006808B9012000E00020044636
:10384000A91B22460A48006800F004FB01F058FA60
:1038500050B94FF0805007490860BFF34F8FBFF356
:103860006F8F01E001F04CFAF8BD0000C4000020A9
:10387000C800002004ED00E00A490968096809B998
:10388000012100E0002121B14FF0FF31064A116013
:1038900006E004490968C968C868034A41681160BC
:1038A0007047000088000020B400002070B5044676
:1038B00001F0CCF8054607480068854204D200F0C4
:1038C0000BF80120206001E0002020600148056025
:1038D000284670BDD00000202DE9F84332E024488E
:1038E0000068C068056822480068C068C468201D78
:1038F00000F072F92046616A8847E069012821D109
:10390000A0694619AE4207D966602461211D184896
:10391000006800F085F915E0002003462A460146BC
:103920000090204601F09AFA074657B900BF502090
:1039300080F31188BFF34F8FBFF36F8F00BF00BFBD
:10394000FEE700BF0A480068006808B9012000E0EF
:1039500000200028C3D00648D0F800800548006841
:10396000034908600348C0F80080BDE8F883000000
:10397000C0000020C40000200E480068401C08B9A8
:10398000012000E0002050B900BF502080F31188D2
:10399000BFF34F8FBFF36F8F00BF00BFFEE700BFC5
:1039A000502080F31188BFF34F8FBFF36F8F00BF9C
:1039B00000BFFEE7D400002008B500BF6846FFF74F
:1039C000DFFC044620460099FFF71CFFFFF79EFE30
:1039D000F4E770B5044600F049F994F9455010E059
:1039E000606A08B9012000E0002038B904F1240021
:1039F00001F03AF918B100F081FA00E003E0681E26
:103A000045B2002DECDC00BFFF2084F8450000F03B
:103A100057F900F02BF994F9445010E0206908B9E7
:103A2000012000E0002048B904F1100001F01CF969
:103A300008B100F063FA681E45B200E001E0002D15
:103A4000ECDC00BFFF2084F8440000F039F970BDC1
:103A50002DE9F04104464FF0000800F04BFB4648CA
:103A6000006808B9FFF7A0FC44480068204000281F
:103A70006BD1D4B1083404F00700B0B104F00700F2
:103A8000C0F10800044404F0070008B9012000E078
:103A9000002050B900BF502080F31188BFF34F8F32
:103AA000BFF36F8F00BF00BFFEE7002C4DD034483E
:103AB0000068844249D8334E3046056801E02E46FE
:103AC0002D686868A04202D228680028F7D12A48E9
:103AD0000068854239D0306800F1080828683060F5
:103AE0006868001B102819D92F1907F0070008B9BA
:103AF000012000E0002050B900BF502080F3118861
:103B0000BFF34F8FBFF36F8F00BF00BFFEE7686842
:103B1000001B78606C603846FFF74AFD18496868FA
:103B20000968081A164908600846006816490968B5
:103B3000884203D212480068134908600F49686838
:103B40000968084368600020286001F0D9F808F08F
:103B5000070008B9012000E0002050B900BF502044
:103B600080F31188BFF34F8FBFF36F8F00BF00BF8B
:103B7000FEE74046BDE8F081E8000020F4000020A8
:103B8000EC000020E0000020F00000200648006863
:103B900030B10549096801F14C00C96C491C01604C
:103BA000014800687047000084000020001F4FF0AB
:103BB00080730360001F21F001030360001F054BA9
:103BC000036014380260001F6FF0020303602038A6
:103BD000704700007939000801460A69D1E90130CF
:103BE0009860D1E9010358605068884201D1886823
:103BF0005060002008611068401E10601068704717
:103C000000F1080141604FF0FF31816000F10801CF
:103C1000C1600161002101607047002101617047AE
:103C200010B502460B685C1C0CB9106907E002F184
:103C3000080000E04068446824689C42FAD944685F
:103C40004C604C68A160886041600A611468641C23
:103C5000146010BD42684A6093688B609368596035
:103C60009160086103685B1C0360704700BF5020CF
:103C700080F31188BFF34F8FBFF36F8F00BF0E48E3
:103C80000068401C0C49086008460068012812D1F1
:103C90000A480068C0B208B9012000E0002050B90D
:103CA00000BF502080F31188BFF34F8FBFF36F8F99
:103CB00000BF00BFFEE77047D400002004ED00E025
:103CC0000D48006850B900BF502080F31188BFF341
:103CD0004F8FBFF36F8F00BF00BFFEE7064800683D
:103CE000401E054908600846006820B9002080F39E
:103CF000118800BF00BF7047D400002070B5064691
:103D00003546002E3FD0083D2C461F4960680968A3
:103D1000084008B1012000E0002050B900BF502049
:103D200080F31188BFF34F8FBFF36F8F00BF00BFC9
:103D3000FEE7206808B9012000E0002050B900BF6C
:103D4000502080F31188BFF34F8FBFF36F8F00BFF8
:103D500000BFFEE70C4960680968084098B1206818
:103D600088B90949606809688843606000F0C2F951
:103D70000649606809680844044908602046FFF75E
:103D800017FC00F0BDFF70BDF4000020EC00002027
:103D9000064800684FF47A71B0FBF1F0401E4FF016
:103DA000E021486107200861704700002C000020D6
:103DB00070B5FCF74DFA0446102C16D304F1E02040
:103DC00090F8F05315480078854201DB012000E0AF
:103DD000002050B900BF502080F31188BFF34F8FEF
:103DE000BFF36F8F00BF00BFFEE70D48006800F40F
:103DF000E0600C490968884201D8012000E00020F9
:103E000050B900BF502080F31188BFF34F8FBFF32C
:103E10006F8F00BF00BFFEE770BD0000D80000201C
:103E20000CED00E0DC000020024600200BE0084B17
:103E300053F8303033B9064B43F8301003EBC0036E
:103E40005A6002E0401C0828F1D300BF7047000010
:103E5000300600202DE9F04105460E4617462C4657
:103E6000FFF704FF94F94400401C10B9002084F8C7
:103E7000440094F94500401C10B9002084F8450026
:103E8000FFF71EFFA06B28B93A46314604F1240023
:103E900000F056F82046FFF79CFDBDE8F0810000D9
:103EA00070B504460025D4B11248006808B9012055
:103EB00000E0002050B900BF502080F31188BFF30C
:103EC0004F8FBFF36F8F00BF00BFFEE700F012F906
:103ED00000212046FFF7ECF800F012FF05463DB93F
:103EE0004FF0805004490860BFF34F8FBFF36F8FCE
:103EF00070BD0000BC00002004ED00E0012001497D
:103F000008607047A800002070B504460D4654B9FB
:103F100000BF502080F31188BFF34F8FBFF36F8F26
:103F200000BF00BFFEE70548016818312046FFF7D3
:103F300077FE01212846FFF7BBF870BD8400002002
:103F400070B505460E46144655B900BF502080F3A3
:103F50001188BFF34F8FBFF36F8F00BF00BFFEE725
:103F60000648016818312846FFF774FE0CB14FF07F
:103F7000FF3621463046FFF79BF870BD84000020D5
:103F800070B505462C46002D4BD02649E06A0968DD
:103F9000C96A884245D2A06900F0004028B921488A
:103FA0000068C06AC0F10500A061E16A01EB81010F
:103FB0001D4A02EB81016069884201D1012000E0C5
:103FC000002050B3201DFFF707FE78B9E06A00EB30
:103FD0008000154951F8200040B994F82C100120B8
:103FE0008840124909688143104801600D48006803
:103FF000C06AE06294F82C10012088400B490968DF
:1040000008430A490860E16A01EB8101064A02EBB4
:104010008100211DFFF71EFE03E002480068C06A10
:10402000E06270BD84000020700600209C0000202B
:1040300050B900BF502181F31188BFF34F8FBFF3F8
:104040006F8F00BF00BFFEE70349096801600349A5
:104050000968416070470000AC0000209800002013
:104060001CB51D4800210B468222CDE900101BA182
:104070001C4800F0ABFC0446012C02D100F0C2FE4B
:104080000446012C15D100BF502080F31188BFF3E6
:104090004F8FBFF36F8F00BF4FF0FF3012490860A2
:1040A00001201249086000201149086000F07EF8E4
:1040B00010E0601C08B1012000E0002050B900BFF2
:1040C000502080F31188BFF34F8FBFF36F8F00BF75
:1040D00000BFFEE71CBD0000B800002049444C456D
:1040E0000000000025340008B4000020A0000020DB
:1040F0009800002002480068401C01490860704791
:10410000BC0000201D48006818B101201C4908604F
:1041100032E000201A4908601A480068B0FA80F0BE
:10412000C0F11F0101EB8100174A52F8200008B1CD
:10413000012000E0002050B900BF502080F311881A
:10414000BFF34F8FBFF36F8F00BF00BFFEE701EBE0
:1041500081020D4B03EB820042685268426000F11D
:1041600008024368934202D1426852684260426842
:10417000D268064B1A6000BF70470000BC000020E8
:10418000A80000209C000020700600208400002071
:1041900010B51C20FFF75CFC044624B10020206011
:1041A000201DFFF72DFD204610BD00001CB547481F
:1041B00000684749884201D0012000E0002050B942
:1041C00000BF502080F31188BFF34F8FBFF36F8F74
:1041D00000BF00BFFEE73D4800683D49491E8842D8
:1041E00001D0012000E0002050B900BF502080F332
:1041F0001188BFF34F8FBFF36F8F00BF00BFFEE783
:104200003449084600780190FF200A46107008469D
:10421000007800909DF8000000F0F0009DF800206C
:10422000904201D1012000E0002050B900BF502091
:1042300080F31188BFF34F8FBFF36F8F00BF00BFB4
:10424000FEE79DF8000000F05000234A10700720A0
:10425000224A106009E021480068401E1F4A106091
:104260009DF800004006000E00909DF8000000F050
:1042700080008028EFD0194800680002174A1060BB
:104280001046008800F4E0601060124A0198107037
:104290000E482030006840F470000C49203108605E
:1042A0000846006840F070400860FFF771FD00208C
:1042B0000B490860FBF794FF0A48006840F0404053
:1042C00008490860FBF77CFF00201CBD00ED00E002
:1042D00071C20F4100E400E0D8000020DC000020A3
:1042E000D400002034EF00E02DE9F041044601261F
:1042F000002722460021012000F007F80546284645
:10430000FFF7A4F82846BDE8F0812DE9F8430546FB
:104310000E4690460DB1012000E0002050B900BFCC
:10432000502080F31188BFF34F8FBFF36F8F00BF12
:1043300000BFFEE70EB9002701E005FB06F707F115
:104340005000FFF785FB044644B104F15009434691
:104350004A46314628460094FFF786F82046BDE8D5
:10436000F88300002DE9FF4782B005460E461F4640
:104370004FF0000A2C4654B900BF502080F311883A
:10438000BFF34F8FBFF36F8F00BF00BFFEE70EB9C3
:10439000206C08B9012000E0002050B900BF502077
:1043A00080F31188BFF34F8FBFF36F8F00BF00BF43
:1043B000FEE700F03BFB08B9049808B9012000E0D3
:1043C000002050B900BF502080F31188BFF34F8FF9
:1043D000BFF36F8F00BF00BFFEE700BFFFF746FCD3
:1043E000D4F83890B9F1000F3DD0D4F80C803146A4
:1043F0002046FEF769FFDFB9A9F10100A06320683C
:1044000010B9FFF7C3FB6060206908B9012000E024
:10441000002010BB04F1100000F026FCE8B14FF0C2
:10442000805040490860BFF34F8FBFF36F8F14E097
:10443000C4F80C80606A08B9012000E0002060B96F
:1044400004F1240000F010FC38B14FF080503549E1
:104450000860BFF34F8FBFF36F8FFFF731FC012070
:1044600006B0BDE8F087049818B9FFF729FC0020D2
:10447000F6E7BAF1000F04D16846FFF7D9FD4FF017
:10448000010AFFF71DFCFFF735FEFFF7EFFB94F97C
:104490004400401C10B9002084F8440094F9450001
:1044A000401C10B9002084F84500FFF709FC04A95E
:1044B000684600F045FA40BB2046FFF7D9F8F0B156
:1044C000206830B9FFF7D2FB6068FFF759FDFFF7AE
:1044D000F7FB04F124000499FFF716FD2046FFF7CF
:1044E00078FA00F00DFC00287FF478AF4FF0805090
:1044F0000C490860BFF34F8FBFF36F8F6EE7204604
:10450000FFF767FA00F0FCFB68E72046FFF761FA67
:1045100000F0F6FB2046FFF7ABF80028EED00020B5
:104520009EE7000004ED00E070B505460E462C46FF
:1045300054B900BF502080F31188BFF34F8FBFF3F1
:104540006F8F00BF00BFFEE7FFF790FBD4E90F12AB
:10455000206801FB020060600020A0632068A0606A
:10456000E06B401E226C216800FB0210E060FF201F
:1045700084F8440084F845009EB9206908B90120F8
:1045800000E00020A8B904F1100000F06DFB80B13C
:104590004FF0805009490860BFF34F8FBFF36F8F12
:1045A00007E004F11000FFF72BFB04F12400FFF7F4
:1045B00027FBFFF785FB012070BD000004ED00E044
:1045C0002DE9FF4383B0064688461D464FF000099B
:1045D000344654B900BF502080F31188BFF34F8F89
:1045E000BFF36F8F00BF00BFFEE7B8F1000F01D12E
:1045F000206C08B9012000E0002050B900BF502015
:1046000080F31188BFF34F8FBFF36F8F00BF00BFE0
:10461000FEE7022D02D1E06B012801D1012000E06C
:10462000002050B900BF502080F31188BFF34F8F96
:10463000BFF36F8F00BF00BFFEE700F0F7F908B9C6
:10464000059808B9012000E0002050B900BF5020B3
:1046500080F31188BFF34F8FBFF36F8F00BF00BF90
:10466000FEE700BFFFF702FBA06BE16B884201D3BE
:10467000022D28D12A4641462046FEF73AFE07463B
:10468000606A08B9012000E0002068B904F1240044
:1046900000F0EAFA88B14FF0805032490860BFF369
:1046A0004F8FBFF36F8F08E03FB14FF080502D491F
:1046B0000860BFF34F8FBFF36F8FFFF701FB01203F
:1046C00007B0BDE8F083059818B9FFF7F9FA0020A4
:1046D000F6E7B9F1000F04D101A8FFF7A9FC4FF0EC
:1046E0000109FFF7EDFAFFF705FDFFF7BFFA94F9AF
:1046F0004400401C10B9002084F8440094F945009F
:10470000401C10B9002084F84500FFF7D9FA05A92C
:1047100001A800F015F9F0B92046FEF7B6FFA0B1E8
:1047200004F110000599FFF7EFFB2046FFF751F960
:1047300000F0E6FA002895D14FF080500949086052
:10474000BFF34F8FBFF36F8F8CE72046FFF741F920
:1047500000F0D6FA86E72046FFF73BF900F0D0FAE2
:104760000020ADE704ED00E02DE9F05F07468A4642
:1047700090461E463C4654B900BF502080F3118835
:10478000BFF34F8FBFF36F8F00BF00BFFEE7BAF1DB
:10479000000F01D1206C08B9012000E0002050B9C1
:1047A00000BF502080F31188BFF34F8FBFF36F8F8E
:1047B00000BF00BFFEE7022E02D1E06B012801D14D
:1047C000012000E0002050B900BF502080F3118884
:1047D000BFF34F8FBFF36F8F00BF00BFFEE7FFF740
:1047E000E7FA00BF5021EFF3118081F31188BFF386
:1047F0004F8FBFF36F8F00BF0546A06BE16B884200
:1048000001D3022E23D194F945B0324651462046B9
:10481000FEF76FFD0BF1010088B9606A08B901204D
:1048200000E0002080B904F1240000F01DFA58B126
:10483000B8F1000F08D00120C8F8000004E00BF127
:10484000010040B284F845004FF0010901E04FF04B
:10485000000900BF85F3118800BF4846BDE8F09FFE
:104860002DE9F04706460F46344654B900BF5020A4
:1048700080F31188BFF34F8FBFF36F8F00BF00BF6E
:10488000FEE7206C08B9012000E0002050B900BF0D
:10489000502080F31188BFF34F8FBFF36F8F00BF9D
:1048A00000BFFEE7206808B9606808B9012000E091
:1048B000002050B900BF502080F31188BFF34F8F04
:1048C000BFF36F8F00BF00BFFEE7FFF771FA00BFB5
:1048D0005021EFF3118081F31188BFF34F8FBFF3A5
:1048E0006F8F00BF0546D4F83890E06B48451ED95D
:1048F00094F945A009F10100A0630AF1010070B923
:10490000606A08B9012000E0002068B904F12400C1
:1049100000F0AAF940B13FB10120386004E00AF18B
:10492000010040B284F845004FF0010801E04FF06B
:10493000000800BF85F3118800BF4046BDE8F0873E
:1049400070B504460D4654B900BF502080F311885D
:10495000BFF34F8FBFF36F8F00BF00BFFEE755B9A6
:1049600000BF502080F31188BFF34F8FBFF36F8FCC
:1049700000BF00BFFEE7FFF779F912480368286817
:10498000401C08B9002619E00F49206809688842D0
:1049900004D06068984201D801260FE06068181AB8
:1049A0002968884209D228686168591A401A286023
:1049B0002046FFF73DFB002600E00126FFF780F9C7
:1049C000304670BD98000020AC0000202DE9FF4F5C
:1049D00085B0804689461746DDE912ABB800FFF77F
:1049E00037F8064656B15820FFF732F804460CB1A6
:1049F000266304E03046FFF781F900E000247CB133
:104A00000020CDE900ABCDE902403A464946404698
:104A1000089BFEF73EFD2046FEF796FB012501E0D0
:104A20004FF0FF35284609B0BDE8F08F0549096809
:104A300009B9012005E00449096809B9022000E02C
:104A400000207047A0000020BC0000200149086839
:104A500070470000980000202DE9F0414FF0000859
:104A600044480068002877D143480068451C424804
:104A7000056015BB41480068006808B9012000E0E6
:104A8000002050B900BF502080F31188BFF34F8F32
:104A9000BFF36F8F00BF00BFFEE738480768384894
:104AA0000068364908603648076036480068401C90
:104AB00034490860FEF7E0FE00BF334800688542D5
:104AC0003CD300BF2D480068006808B9012000E011
:104AD000002020B14FF0FF302B4908602DE027481F
:104AE0000068C068C4686668B54202D2264806609D
:104AF00023E0201DFFF770F8A06A18B104F1180038
:104B0000FFF76AF894F82C10012088401F490968C3
:104B100008431E490860E16A01EB81011C4A02EB6F
:104B20008100211DFFF796F81A49E06A0968C96AF1
:104B30008842C7D34FF00108C4E700BF154800689A
:104B4000C06A00EB8000124951F82000012801D909
:104B50004FF0010805E0FFE70F480068401C0E49D0
:104B600008600E48006808B14FF001084046BDE8F3
:104B7000F0810000BC000020980000208800002088
:104B80008C000020AC000020B40000209C0000201D
:104B90007006002084000020A4000020A80000204F
:104BA00070B505462C460026002D55D02B480068D0
:104BB000844201D1012000E0002050B900BF502004
:104BC00080F31188BFF34F8FBFF36F8F00BF00BF1B
:104BD000FEE7E06C50B900BF502080F31188BFF3AE
:104BE0004F8FBFF36F8F00BF00BFFEE7E06C401E2A
:104BF000E064A16CE06A88422ED0E06C60BB201DAE
:104C0000FEF7EAFF78B9E06A00EB8000144951F83A
:104C1000200040B994F82C100120884011490968FF
:104C2000814310480160A06CE062E06AC0F10500B9
:104C3000A06194F82C10012088400A4909680843B3
:104C400008490860E16A01EB8101054A02EB810035
:104C5000211DFEF7FFFF0126304670BD84000020B5
:104C6000700600209C00002070B50646F068C468FD
:104C700054B900BF502080F31188BFF34F8FBFF3AA
:104C80006F8F00BF00BFFEE704F11800FEF7A4FF1E
:104C900015480068A8B9201DFEF79EFF94F82C1057
:104CA0000120884011490968084310490860E16AF9
:104CB00001EB81010E4A02EB8100211DFEF7CAFFC4
:104CC00004E004F118010B48FEF7C4FF0A49E06A4A
:104CD0000968C96A884204D901250120074908608A
:104CE00000E00025284670BDBC0000209C0000208C
:104CF00070060020FC06002084000020A800002090
:104D000070B5002400263648006850B900BF502016
:104D100080F31188BFF34F8FBFF36F8F00BF00BFC9
:104D2000FEE7FEF7A3FF2E480068401E2C490860EE
:104D30000846006800284FD12A48006800284BD058
:104D400024E02948C068C46804F11800FEF744FF55
:104D5000201DFEF741FF94F82C10012088402349C4
:104D60000968084321490860E16A01EB8101204A92
:104D700002EB8100211DFEF76DFF1E49E06A096804
:104D8000C96A884202D301201B490860164800689E
:104D900008B9012000E000200028D2D00CB1FEF7B5
:104DA0006BFD1648056865B100BFFFF755FE10B1F1
:104DB0000120114908606D1E002DF6D100200F4919
:104DC00008600D48006838B1012630070C490860BA
:104DD000BFF34F8FBFF36F8FFEF772FF304670BD8A
:104DE000BC00002094000020FC0600209C00002055
:104DF0007006002084000020A8000020A4000020ED
:104E000004ED00E01CB50024FEF7FAF90E48006836
:104E100058B10E48022100234FF48272CDE90010F0
:104E20000BA10D48FFF7D2FD044654B900BF502036
:104E300080F31188BFF34F8FBFF36F8F00BF00BFA8
:104E4000FEE720461CBD0000C8000020CC0000206A
:104E5000546D722053766300B93900082DE9FE4382
:104E600004460D4616461F46DDF828804FF000091F
:104E700054B900BF502080F31188BFF34F8FBFF3A8
:104E80006F8F00BF00BFFEE71448006810B30095A5
:104E900001960294062D15DAFFF7C8FD022808D105
:104EA0000023424669460D480068FFF789FB8146AA
:104EB00010E000231A46694608480068FFF780FBA7
:104EC000814607E000233A46694604480068FFF738
:104ED0004BFC81464846BDE8FE830000C800002028
:104EE00000000000000000000000000000000000C2
:104EF000000000F800000000000000333000000057
:104F000000160E00160E0000000000000000000059
:104F100040C07840C0784000043F04043F040400CF
:104F2000007088FC08300000001820FF211E0000DF
:104F3000F008F000E018000000211C031E211E00F4
:104F400000F00888700000001E212324192721107A
:104F5000000000160E00000000000000000000002D
:104F6000000000E0180402000000000718204000C4
:104F700000020418E00000000040201807000000B4
:104F8000404080F0804040000202010F0102020018
:104F9000000000F0000000000101011F01010100FC
:104FA000000000000000000000B0700000000000E1
:104FB00000000000000000000001010101010101EA
:104FC0000000000000000000003030000000000081
:104FD0000000000080601804006018060100000056
:104FE00000E010080810E000000F102020100F0053
:104FF000001010F8000000000020203F20200000DA
:105000000070080808887000003028242221300031
:1050100000300888884830000018202020110E0039
:105020000000C02010F8000000070424243F2400E2
:1050300000F80888880808000019212020110E00B7
:1050400000E0108888180000000F112020110E00C9
:1050500000380808C83808000000003F00000000C1
:105060000070880808887000001C222121221C0082
:1050700000E010080810E0000000312222110F00AB
:10508000000000C0C0000000000000303000000040
:10509000000000C0C0000000000080B070000000F0
:1050A00000008040201008000001020408102000C9
:1050B0004040404040404000040404040404040014
:1050C00000081020408000000020100804020100A9
:1050D000007048080808F0000000003036010000A9
:1050E000C030C828E810E0000718272423140B005C
:1050F0000000C038E0000000203C230202273820D6
:1051000008F8888888700000203F202020110E00B9
:10511000C0300808080838000718202020100800B0
:1051200008F808080810E000203F202020100F0099
:1051300008F88888E8081000203F20202320180065
:1051400008F88888E8081000203F200003000000CD
:10515000C03008080838000007182020221E02006E
:1051600008F808000008F808203F210101213F202D
:10517000000808F8080800000020203F2020000058
:1051800000000808F8080800C08080807F00000048
:1051900008F888C028180800203F20012638200081
:1051A00008F8080000000000203F202020203000E8
:1051B00008F8F800F8F80800203F003F003F200002
:1051C00008F830C00008F808203F200007183F000A
:1051D000E01008080810E0000F10202020100F0039
:1051E00008F808080808F000203F2101010100002C
:1051F000E01008080810E0000F18242438504F0071
:1052000008F8888888887000203F2000030C302030
:1052100000708808080838000038202121221C006E
:10522000180808F8080818000000203F20000000B7
:1052300008F808000008F808001F202020201F00A0
:105240000878880000C83808000007380E01000000
:10525000F80800F80008F800033C0700073C0300CA
:10526000081868808068180820302C03032C302030
:105270000838C800C83808000000203F200000009F
:1052800010080808C83808002038262120201800F7
:10529000000000FE020202000000007F40404000CB
:1052A000000C30C000000000000000010638C00003
:1052B00000020202FE000000004040407F000000AB
:1052C000002010080408102000000000000000006A
:1052D00000000000000000008080808080808080CE
:1052E00000020408000000000000000000000000B0
:1052F00000008080808000000019242222223F20AC
:1053000008F8008080000000003F112020110E00EE
:105310000000008080800000000E1120202011007D
:10532000000000808088F800000E112020103F202F
:105330000000808080800000001F222222221300B3
:10534000008080F0888888180020203F20200000FE
:105350000000808080808000006B949494936000B3
:1053600008F8008080800000203F210000203F20BE
:1053700000809898000000000020203F20200000BE
:10538000000000809898000000C08080807F0000AE
:1053900008F8000080808000203F24022D3020008B
:1053A000000808F8000000000020203F2020000036
:1053B0008080808080808000203F20003F20003F50
:1053C000008080008080000000203F2100203F20DE
:1053D0000000808080800000001F202020201F000F
:1053E000808000808000000080FFA12020110E003E
:1053F0000000008080808000000E112020A0FF802F
:10540000808080008080800020203F2120000100DB
:105410000000808080808000003324242424190030
:10542000008080E0808000000000001F202000003D
:105430008080000000808000001F202020103F207E
:10544000808080000080808000010E30080601000E
:1054500080800080008080800F300C030C300F00B3
:1054600000808000808080000020312E0E312000DE
:10547000808080000080808080818E70180601000E
:1054800000808080808080000021302C222130002C
:1054900000000000807C020200000000003F40404D
:1054A00000000000FF00000000000000FF000000FE
:1054B0000002027C800000000040403F000000002D
:1054C00000804040800000800000000000010100DA
:1054D0000000000000000000002F00000000070096
:1054E000070000147F147F1400242A7F2A1200234F
:1054F000130864620036495522500000000700007E
:1055000000001C224100000041221C000014083E43
:1055100008140008083E0808000000A06000000809
:10552000080808080000606000000020100804025D
:10553000003E5149453E0000427F4000004261511B
:105540004946002141454B31001814127F100027B5
:1055500045454539003C4A49493000017109050378
:1055600000364949493600064949291E00003636A9
:10557000000000005636000000081422410000140C
:1055800014141414000041221408000201510906E9
:10559000003E4955592E007C1211127C007F49496A
:1055A0004936003E41414122007F4141221C007F9B
:1055B00049494941007F09090901003E4149497AA9
:1055C000007F0808087F0000417F41000020404123
:1055D0003F01007F08142241007F40404040007F8F
:1055E000020C027F007F0408107F003E4141413ED3
:1055F000007F09090906003E4151215E007F09191B
:1056000029460046494949310001017F0101003F17
:105610004040403F001F2040201F003F4038403F97
:1056200000631408146300070870080700615149FB
:10563000454300007F4141000002040810200000A3
:1056400041417F000004020102040040404040400C
:10565000000001020400002054545478007F4844A4
:10566000443800384444442000384444487F0038DB
:105670005454541800087E0901020018A4A4A47C04
:10568000007F080404780000447D400000408084CE
:105690007D00007F102844000000417F4000007C16
:1056A00004180478007C0804047800384444443822
:1056B00000FC242424180018242418FC007C08046E
:1056C000040800485454542000043F444020003C47
:1056D0004040207C001C2040201C003C4030403CCE
:1056E000004428102844001CA0A0A07C004464545E
:1056F0004C440000087F41000000007F00000000D3
:10570000417F0800000804081008A3AC0000000056
:105710000000000000000000000000000000005831
:1057200038000000000000000000000000A1A300FD
:105730000000000000000000000000000000000069
:1057400000001824241800000000000000000000E1
:10575000C4E300008060F8074020180F08C808085C
:10576000281800010000FF00100C0340807F00019A
:10577000061800BAC3001010F01F10F000808282DB
:10578000E2928A868000402215081661000040805F
:105790007F0000000000CAC000202020FE2020FF63
:1057A000202020FF20202020000000007F404047D4
:1057B000444444474040400000BDE700000000FE74
:1057C000929292FE929292FE0000000008080484D9
:1057D000621E010001FE020404080800B6E6008013
:1057E00080FC96E584FC0038C8090E08A8180080E3
:1057F000601F024C807F00003F444241407800BB64
:10580000FA001010D0FF901000FE020202FE00000D
:105810000000040300FF0083601F0000003F4040C1
:105820007800BFD800101010FF9020984828090E6B
:105830002848A818000242817F0040404242427E30
:105840004242424000D6C60040504E4848FF4848B9
:105850004840F80000FF000000003E0202FF122254
:105860001E000F40807F0000D2A300404042CC00C9
:10587000004A32222AF121312D00000080403F40B1
:105880008081BDA1A1BFA1A1BD8100B8D000000051
:10589000FC04D4545454D4047F84C5360400886670
:1058A000010063828292AB8482C10224CF00CAFDD0
:1058B0000090523410FF10345280708F0808F8089E
:1058C00000829A566322528E008040330C3340800F
:1058D00000BEDD001010FF109000FE929292F29236
:1058E000929E800042827F0180601F00FC444744FA
:1058F00044FC0000CEC2001060028C0000FE9292B8
:10590000929292FE00000004047E01407E42427E9C
:10591000427E42427E4000B6C8000000FC2424249F
:10592000FC252624FC242424040040308F80844C51
:1059300055252525554C80808000CAAA001060029C
:105940008C00FE929292929292FE00000004047EDD
:10595000014448507F40407F5048444000B7E40035
:1059600000F808FF08F880904C57A4544C8480003D
:105970002063211F113910101515FF151510100087
:10598000C3F90000FC0404FC0000FC041665048458
:10599000FC0000000F04040F0010131212125292A8
:1059A000423E00C6F70080809E9292929EE0809ECA
:1059B000B2D2929E80000808F4949292F10001F213
:1059C000929494F80800D3D00004040484E43C27A3
:1059D00024242424E40404040004020100FF09092F
:1059E000090949897F00000000B6BE00002022AAF4
:1059F000AAAAAABFAAAAAAAA2220000004043C2795
:105A000024242D3624A4A47F24240400C6F80020D6
:105A1000104C4754545454545454D40404000000BB
:105A2000000000000000000000000F3040F000CC3B
:105A3000E500008060F807101010D0FFD0101010A3
:105A40000000010000FF1008040B08FF080B040809
:105A50001000D6C700109453321E325210007E42FE
:105A600042427E0000000000FF4949494949494936
:105A7000FF00000000C4DC0008CC4A49484ACC18AA
:105A8000007F88888482E00000FF121252927F001B
:105A9000007E88888482E000CEDD000000FE125285
:105AA0005252D252525252525E000080609F8090F9
:105AB000929392FE92929396908000C4DA0000F83E
:105AC00008080808887F8808080808F8000000FF10
:105AD0000008040201000001024C807F0000BCE0CD
