:020000040800F2
:10000000A837012059020008171800080517000832
:10001000131800087D080008AD2A00080000000041
:10002000000000000000000000000000A101000826
:100030008108000800000000F50100087520000894
:1000400073020008730200087302000873020008BC
:1000500073020008730200087302000873020008AC
:10006000730200087302000873020008730200089C
:10007000730200087302000873020008730200088C
:10008000730200087302000873020008730200087C
:100090007302000873020008730200089913000835
:1000A000730200087302000873020008730200085C
:1000B000730200087302000873020008730200084C
:1000C000730200087302000873020008730200083C
:1000D000730200088D24000831250008C12500089E
:1000E000730200087302000873020008730200081C
:1000F000730200087302000835220008730200082A
:1001000073020008730200087302000873020008FB
:1001100073020008730200087302000873020008EB
:1001200073020008730200087302000873020008DB
:1001300073020008730200087302000873020008CB
:1001400073020008730200087302000873020008BB
:1001500073020008730200087302000873020008AB
:10016000730200087302000873020008730200089B
:10017000730200087302000873020008730200088B
:100180007302000873020008DFF810D000F044FB8F
:100190000048004701340008AFF30080A837012071
:1001A0002A4B19680868B0E8F04F80F30988BFF35C
:1001B0006F8F4FF0000080F311887047000000003F
:1001C00006480068006880F3088862B661B6BFF32D
:1001D0004F8FBFF36F8F00DF00BF00BF08ED00E05F
:1001E000DFF80C00016841F470010160704700BF46
:1001F00088ED00E0EFF30980BFF36F8F134B1A68AF
:100200001EF0100F08BF20ED108A20E9F04F10609B
:1002100008B44FF0500080F31188BFF34F8FBFF345
:100220006F8F04F09FFA4FF0000080F3118808BC34
:1002300019680868B0E8F04F1EF0100F08BFB0EC66
:10024000108A80F30988BFF36F8F70478000002009
:10025000EFF30580704700000648804706480047D6
:10026000FEE7FEE7FEE7FEE7FEE7FEE7FEE7FEE766
:10027000FEE7FEE7A92000088901000840EA010323
:100280009B0703D009E008C9121F08C0042AFAD24C
:1002900003E011F8013B00F8013B521EF9D2704710
:1002A000D2B201E000F8012B491EFBD270470022B8
:1002B000F6E710B513460A4604461946FFF7F0FF65
:1002C000204610BD30B505462A460B4612F8010BF4
:1002D00013F8014B08B1A042F8D01CB1002802D09D
:1002E0006D1CF1E7284630BD034611F8012B00F8DC
:1002F000012B002AF9D1184670472DE9FE4F8046A0
:1003000081EA0300C00F0C46009021F0004123F069
:100310000045B8EB0200A94105D24046214690466F
:100320001C460B46024623F00040104347D0270DE1
:10033000C7F30A00C3F30A510290401A0190402803
:100340006BDAC3F3130040F4801B0098924620B18F
:100350000023D2EB030A63EB0B0B01985946C0F163
:100360004002504600F0B1F906460D465046594647
:10037000019A00F0C9F910EB08006141002487EAF6
:10038000115284EAE7731A4340D0009A62B3019A8B
:10039000012A4FEA075215DC001B61EB02014FF006
:1003A000004202EA0752CDE90042001C41F58011EB
:1003B00032462B4600F0C9F903B0BDE8F08F404645
:1003C0002146F9E7001B61EB0201001C41F5801397
:1003D00000185B412018A2F5001747EB030140EA23
:1003E000D570B6196D4111E06D084FEA360645EA41
:1003F000C0754FEA0752001B61EB0201001C41F57A
:10040000801149084FEA30000019514132462B460D
:1004100003B0BDE8F04F00F089B900980122400018
:100420000023D0EB020263EBE073009821464FEA11
:10043000E074B8EB000061EB0401E9E783F00043EE
:100440005BE781F0004158E72DE9FE4F81EA0304A4
:1004500004F0004421F0004100944FF0000B23F021
:10046000004350EA01045ED052EA03045BD0C3F3B8
:100470000A54C1F30A552C44A4F2F3340194A0FBAE
:100480000254C1F3130141F48011C3F3130343F485
:10049000801301FB024400FB034E840A970A44EADE
:1004A000815447EA8357A4FB076802958D0A05FB30
:1004B00007854FEA932C04FB0C542705029D4FEA55
:1004C000065847EA1637B5EB08056EEB070C870EA2
:1004D000920E47EA811742EA8312A7FB0201B6EBAC
:1004E0000B0164EB00042B0D43EA0C335E1844EB64
:1004F0001C50DA465146E7FB0201C5F313044FEAEC
:100500000B3343EA14534FEA0432019C43EA0603D7
:10051000A4F10C040294009CCDE900B400F015F99C
:1005200003B0BDE8F08F00200146F9E72DE9F04D5A
:1005300081EA030404F0004B21F0004514464FF01B
:10054000000A23F0004150EA050220D054EA0102DB
:100550001DD0C5F30A570246C5F31303C1F31300B8
:10056000C1F30A5640F4801543F48013A7EB060844
:10057000101BD64608F2FD3873EB050002D308F1D4
:10058000010801E092185B41B8F1000F03DA002086
:100590000146BDE8F08D00204FF4801106468446E8
:1005A0000EE0171B73EB050705D3121B63EB050366
:1005B00006434CEA010C49084FEA300092185B41AF
:1005C00050EA0107EDD152EA030012D082EA04009A
:1005D00083EA0501084305D0101BAB4106D2012276
:1005E000002306E000224FF0004302E06FF001021A
:1005F00053101AEB06004CEB085110EB0A0041EBCC
:100600000B01BDE8F04D00F091B8000030B5041EBC
:1006100071F1000404DB4FF00044404264EB01013F
:10062000141E73F1000405DB1C464FF000435242D8
:1006300063EB0403994208BF904230BD30B50B46CE
:10064000014600202022012409E021FA02F59D4202
:1006500005D303FA02F5491B04FA02F52844151ED6
:10066000A2F10102F1DC30BD2DE9F05F054600206A
:1006700092469B4688460646814640241BE0284613
:1006800041464746224600F02FF853465A46C01AC4
:10069000914110D311461846224600F016F82D1A43
:1006A00067EB01084F4622460120002100F00DF8BB
:1006B00017EB00094E41201EA4F10104DFDC48467F
:1006C00031462A464346BDE8F09F202A04DB203A03
:1006D00000FA02F1002070479140C2F1200320FA95
:1006E00003F3194390407047202A04DB203A21FA93
:1006F00002F00021704721FA02F3D040C2F120023B
:100700009140084319467047202A06DBCB17203A50
:1007100041FA02F043EAE07306E041FA02F3D04006
:10072000C2F12002914008431946704710B5141ECB
:1007300073F1000408DA401C41F1000192185B419A
:100740001A4301D120F0010010BD2DE9F04D924671
:100750009B4611B1B1FA81F202E0B0FA80F2203288
:100760009046FFF7B2FF04460F4640EA0A0041EA0E
:100770000B0153465A46084313D0114653EA010071
:1007800019D0C8F140025046FFF7AEFF05460E46AD
:10079000504659464246FFF798FF084305D00120CE
:1007A00004E020463946BDE8F08D0020054346EAC6
:1007B000E0762C4337430A986305E40AA0EB08006F
:1007C0000022FD0A44EA47540A3002D500200146BF
:1007D000E9E7010510196941DDE90845001969419A
:1007E000BDE8F04DA2E7C1F30A52C1F3130140F294
:1007F000FF3341F480119A4202DA0020014670472B
:1008000040F233439A42A2F2334202DC5242FFF7F3
:100810006BBFFFF75ABF0000064C074D06E0E068CB
:1008200040F0010394E8070098471034AC42F6D337
:10083000FFF7AEFCE8660008086700081CB5012158
:10084000202001F0FDFA4FF48070009001208DF817
:10085000040003208DF8050000208DF807008DF8B6
:1008600006006946034800F0D3FD002002490860F5
:100870001CBD000000140240A082424200BFFEE7FF
:100880007047000070B5044604F082FC012810D0C7
:100890000B480088844206D309480088B4FBF0F571
:1008A000284603F02DFE06480088B4FBF0F100FB5B
:1008B00011444FF47A7104FB01F000F003F870BDAD
:1008C000560000202DE9F04707460026B0464FF0BD
:1008D000E020D0F81490164800681649B0FBF1F0FB
:1008E00000FB07FA4FF0E020856903F033FF19E0C1
:1008F0004FF0E0208469AC420CD0AC4202D2281BFD
:10090000064403E0A9EB0400284406442546564566
:1009100000D308E04FF0E020D0F8108008F001008C
:1009200000B900E0E4E700BF04F0F4FDBDE8F087A3
:100930001C00002040420F002DE9F04105460C4606
:100940002E460A4F03E00120FFF79CFF641E31464C
:100950003846FFF7B7FC08B9002CF4DC002C02DDA8
:100960000020BDE8F0814FF0FF30FAE77605002067
:1009700070B5A0B004460D4615A000F091FC41F200
:10098000883117A0FFF7D8FF401C18B94FF0FF308F
:1009900020B070BD4FF4FA70FFF774FF2B4622466B
:1009A00010A1684602F094F8064641F2883113A07F
:1009B000FFF7C2FF401C48B941F2883108A0FFF799
:1009C000BBFF401C10B94FF0FF30E1E70020DFE72C
:1009D00041542B43574D4F44453D310D0A00000013
:1009E0004F4B000041542B43574A41503D22257341
:1009F000222C222573220D0A000000005749464987
:100A000020474F542049500030B5A1B00446802102
:100A100001A8FFF74CFC00254CF2513219A11DA092
:100A200000F0A4F80546002D06DA1BA002F040F8FD
:100A30004FF0FF3021B030BD1FA002F039F84FF465
:100A4000FA70FFF71FFF00F06DFA0546002D05DA7A
:100A500023A002F02DF84FF0FF30EBE72CA002F0BE
:100A600027F84FF4FA70FFF70DFF224635A101A8D1
:100A700002F02EF801A800F02DFC34A002F018F8C6
:100A80000020D7E7382E3133342E3132312E353530
:100A90000000000054435000455350383236365F52
:100AA000436F6E6E6563745365727665722065720E
:100AB000726F72210D0A000030313A2045535038D0
:100AC0003236365F436F6E6E65637453657276655A
:100AD000722073756363657373210D0A0000000053
:100AE000455350383236365F456E746572547261C4
:100AF0006E73706172656E745472616E736D69733A
:100B000073696F6E206572726F72210D0A000000AA
:100B100030323A20455350383236365F456E746570
:100B2000725472616E73706172656E745472616E2C
:100B3000736D697373696F6E207375636365737327
:100B4000210D0A00237265672025730030323A2098
:100B5000455350383236365F53656E644D736720A7
:100B600073756363657373210D0A00007FB50546D5
:100B70000C461646002000900190029003901DA0A4
:100B800000F08EFB1FA000F08BFB284600F088FBD6
:100B90001CA000F085FB1CA000F082FB19A000F057
:100BA0007FFB204600F07CFB16A000F079FB16A02E
:100BB00000F076FB324615A1684601F089FF6846D1
:100BC00000F06EFB12A000F06BFB41F2883111A027
:100BD000FFF7B2FE401C50B941F288310FA0FFF779
:100BE000ABFE401C18B94FF0FF3004B070BD0020C0
:100BF000FBE7000041542B43495053544152543DAC
:100C000000000000220000002C000000256400000D
:100C10000D0A0000434F4E4E454354004F4B000019
:100C2000002400BF43A001F043FF82E000214A48B6
:100C3000006803F0DDFD054605F0200090B147A0F7
:100C400001F036FF41F2883003F05AFC202142487F
:100C5000006803F0CDFD40213F48006803F003FE2B
:100C6000002466E005F0400038B148A001F020FF04
:100C700007213948006803F0BBFD05F0010000289A
:100C800022D149A001F014FF00F090F948B94EA01C
:100C900001F00EFF01213048006803F0E4FD00245C
:100CA00043E0601CC4B2032221464FA001F000FFC4
:100CB000032C04DB20212848006803F0D4FD40F613
:100CC000B83003F01DFC30E005F0020000282CD104
:100CD0004CA001F0EDFE54A0FFF796FE80B954A0A1
:100CE00001F0E6FE4FF47A7003F00AFC0E211A4878
:100CF000006803F0B8FD002456A001F0D9FE11E011
:100D0000601CC4B2032221465DA001F0D1FE032C79
:100D100004DB20211048006803F0A5FD41F2883073
:100D200003F0EEFB5FA001F0C3FE642003F0E8FBDC
:100D300000BF7BE74553503832363620636F6E6E06
:100D4000656374207461736B207374617274202EF8
:100D50002E2E200D0A0000000000002045535038C0
:100D60003236363A206572726F7220737461747510
:100D7000732C2072657472792061667465722035F7
:100D800073202E2E2E200D0A0000000045535038EF
:100D90003236363A20626567696E20726574727900
:100DA000202E2E2E200D0A00455350383236363A6A
:100DB00020626567696E206C696E6B2057694669B1
:100DC000202E2E2E200D0A00455350383236363A4A
:100DD0002057694669E8BF9EE68EA5E68890E58AB9
:100DE0009F21200D0A000000455350383236363A14
:100DF000206C696E6B206572726F722025642F25DE
:100E0000640D0A00455350383236363A2062656721
:100E1000696E206C696E6B20736572766572202E28
:100E20002E2E200D0A00000073746D333200000076
:100E3000455350383236363A2073657276657220E3
:100E40006C696E6B207375636365737321200D0A83
:100E500000000000455350383236363A207379731B
:100E600074656D2072656164792C2063616E2073F6
:100E7000656E64206D65737361676521200D0A00DE
:100E8000455350383236363A207365727665722093
:100E90006C696E6B206572726F722025642F2564F9
:100EA0000D0A0000455350383236363A20436F6EF3
:100EB0006E656374696F6E207375636365737366C3
:100EC000756C2E2053656E64696E67206669727357
:100ED00074206865617274626561742E0D0A000089
:100EE00010B50446012C03D109A000F0D9F902E0A5
:100EF00009A000F0D5F941F2883109A0FFF71CFDE7
:100F0000401C10B94FF0FF3010BD0020FCE700007E
:100F1000415445310D0A0000415445300D0A00008E
:100F20004F4B000010B50FA000F0BAF941F2883124
:100F300010A0FFF701FD401C10B94FF0FF3010BDAD
:100F40000DA000F0ADF941F288310AA0FFF7F4FCE2
:100F5000401C10B96FF00200F1E701200A49087047
:100F60000020ECE741542B4349504D4F44453D315F
:100F70000D0A00004F4B000041542B43495053458C
:100F80004E440D0A000000004000002010B505A0EE
:100F900000F086F94FF4FA70FFF774FC0020024964
:100FA000087010BD2B2B2B004000002010B5002432
:100FB000FFF7ECFF0446002C05DA24A001F078FDD1
:100FC0004FF0FF3010BD2DA001F072FD4FF4FA700C
:100FD000FFF758FC00F04CF90446002C05DA33A06A
:100FE00001F066FD6FF00100ECE736A001F060FD56
:100FF0004FF4FA70FFF746FC0020FFF771FF04463C
:10100000002C05DA35A001F053FD6FF00200D9E79E
:1010100038A001F04DFD4FF4FA70FFF733FC3DA10D
:1010200040A0FFF7A5FC0446002C05DA3EA001F025
:101030003FFD6FF00200C5E742A001F039FD4FF41B
:10104000FA70FFF71FFC0020BCE700004553503842
:101050003236365F457869745472616E73706172AE
:10106000656E745472616E736D697373696F6E200F
:101070006572726F72210D0A0000000045535038EE
:101080003236365F457869745472616E737061727E
:10109000656E745472616E736D697373696F6E20DF
:1010A00073756363657373210D0A000045535038EF
:1010B0003236365F527374206572726F72210D0A78
:1010C00000000000455350383236365F52737420AA
:1010D00073756363657373210D0A000045535038BF
:1010E0003236365F456E4563686F206572726F7287
:1010F000210D0A0030333A20455350383236365FDE
:10110000456E4563686F2073756363657373210D66
:101110000A00000031313232333435353636373853
:1011200000000000616A6C00455350383236365F6B
:10113000436F6E6E6563744170206572726F7221C9
:101140000D0A000030343A20455350383236365FAD
:10115000436F6E6E6563744170207375636365736E
:1011600073210D0A00000000A0B039E01D4800788E
:10117000012832D11C48007801282ED103F0A6F8AE
:101180001A491BA001F094FC18496846FFF7ACF817
:101190008021164801F00EFC00201349087003F06E
:1011A000BFF80A2217A1684600F020FB40B918A03A
:1011B00001F07EFC80211D48006803F054FB02E032
:1011C0001BA001F075FC052226A1684600F00EFB6D
:1011D00018B924A12548FFF787F8642003F090F997
:1011E000C4E70000400000205A00002076050020DF
:1011F00075335F72656376627566203D3D202573A9
:101200000D0A0000236865617274626561740000F4
:1012100072656365697665206865617274206265D0
:101220006174206563686F0D0A00000000000020F3
:10123000455350383236363A206661696C65642011
:10124000746F20676574206D757465782C206461F7
:101250007461206E6F742070726F63657373656460
:101260002E0D0A00477265656E0000001E01002009
:1012700010B507A000F014F841F2883107A0FFF77D
:101280005BFB401C10B94FF0FF3010BD0020FCE7A5
:1012900041542B5253540D0A000000004F4B0000E4
:1012A00010B504468021074801F084FB0020064960
:1012B00008800649087006490880204601F0C2F9F6
:1012C00010BD000076050020580000205A000020C4
:1012D0005C00002010B504468021074801F06AFB3D
:1012E0000020064908800649087006490880204603
:1012F00001F0A8F910BD000076050020580000207C
:101300005A0000205C0000201FE000210F48006808
:1013100003F06EFA044604F0040088B104F01000F3
:1013200070B90BA001F0C4FB002002F03FF838B9FF
:1013300010A001F0BDFB10210448006803F093FAEF
:1013400040F6B83003F0DCF800BFDEE70000002014
:10135000455350383236363A20626567696E2073DD
:10136000656E64206D657373616765202E2E2E2077
:101370000D0A0000455350383236363A206D6573F9
:10138000736167652073656E64207375636365734D
:1013900073210D0A0000000008B5002000904FF4F2
:1013A000807000F023F801280BD10B48006820B1B1
:1013B00069460948006803F005FE4FF4807000F0AC
:1013C0000FF8009838B14FF0805004490860BFF31F
:1013D0004F8FBFF36F8F08BD5000002004ED00E079
:1013E0000149086070470000143C0140014600209C
:1013F000034A12680A400AB1012000E00020704749
:10140000143C014010B50446204601F075FA10BDA9
:10141000F0B50A4600210023002400BF3DE001256D
:1014200005FA01F3156805EA03049C4234D1056806
:101430004F000326BE40B543056015794E00B54008
:101440000668354305601579012D02D01579022D06
:1014500016D185684F000326BE40B5438560557997
:101460004E00B540866835438560456801268E404C
:10147000B5434560456896798E40B6B235434560C0
:10148000C5684F000326BE40B543C560D5794E0000
:10149000B540C6683543C560491C1029BFD3F0BDAF
:1014A000F0B5002300244D07ED0E02FA05F3CE102F
:1014B00000F1200555F826504E07F70E0F26BE40C6
:1014C000B543CF1000F1200646F82750CE1000F1AA
:1014D000200555F8265045EA0304CE1000F12005FA
:1014E00045F82640F0BD000070B500250024002618
:1014F00000202849087028490860284908602849C0
:1015000008600520FFF7DEF901202649C1F89C029A
:101510000F20FFF7D7F900202249C1F89C0222488A
:10152000066809E020480068801B4EF6602188426A
:1015300002D94FF0FF3070BD164800780028F1D076
:101540001648006814490968884205D313480068A2
:1015500011490968451A08E00F4800684FF6FF7105
:10156000081A0E4909680844451C05EB850040F23D
:10157000231101EB400040F24721B0FBF1F4022CB3
:1015800002D3B4F5C87F02D94FF0FF30D3E720462D
:10159000D1E7000038000020300000203400002097
:1015A0009C82414200804142240401401CB501213B
:1015B000082000F045FC01208DF8040003208DF880
:1015C00005008020009000208DF806006946034841
:1015D000FFF71EFF00F004F81CBD0000000C0240E5
:1015E00000B589B00121022000F04AFC012104204D
:1015F00000F026FC02208DF820008DF8230040200A
:10160000079007A93548FFF703FF03220621334857
:10161000FFF746FF4FF6FF700590A720ADF81000CA
:101620000020ADF81800ADF8120004A92C4800F015
:10163000EBFE0020ADF804000F20ADF80C000020F8
:10164000ADF80600ADF80A000120ADF8080001A9C8
:10165000234800F05AFE0420ADF804000F20ADF836
:101660000C000220ADF806000020ADF80A000220B0
:10167000ADF8080001A91A4800F047FE0122002138
:10168000174800F00DFE01220421154800F008FE65
:1016900001220221124800F06FFE012204211048AD
:1016A00000F06AFE2E208DF8000000208DF8010069
:1016B00001208DF802008DF80300684600F0ACF8B8
:1016C0005021074800F061FE0521054800F066FE44
:1016D0000121034800F0F6FD09B000BD00080240FA
:1016E0000004014000240AE0FFF7FEFE0446601CEF
:1016F00008B1034804604FF47A7002F001FFF3E789
:101700003C00002000BFFEE710B54FF4407000F031
:10171000BFF801F073F901F097F800F02DF800F030
:101720000BF8FFF78BF800F0AAF9FFF73FFF4FF433
:10173000E130FFF767FE10BD1CB50121084600F03F
:101740007FFB0121102000F07BFB01200090002096
:101750008DF804008DF8070069460548FFF758FE2C
:101760001C20009069460348FFF752FE1CBD000094
:1017700000000240001002401CB50121102000F0C2
:101780005FFB0121202000F05BFB4FF4C060009064
:1017900001208DF8040003208DF8050000208DF84D
:1017A00007008DF8060069460A48FFF731FE4FF43E
:1017B000C040009069460848FFF72AFE012007490B
:1017C00008600749C1F8A802064908600649C1F83F
:1017D000B8021CBD0014024000100240A482424224
:1017E00000804242B40242420000424230B5034609
:1017F0000C46002100BF08E058566556A84202D0AA
:101800004FF0FF3030BD481C01B29142F4DB0020A4
:10181000F8E700BFFEE7704770B5002100230F22F4
:10182000C4781CB3174C246804F4E064C4F5E06485
:10183000C4F30721C1F10404E3B20A4144789C4097
:10184000E1B28478144021430C07210E0E4C057838
:101850006155047804F01F050124AC4005786D1132
:10186000AD0005F1E025C5F8004109E0047804F079
:101870001F050124AC40054D0678761145F8264039
:1018800070BD00000CED00E000E400E080E100E04D
:1018900002490143024A1160704700000000FA0546
:1018A0000CED00E010B500200EE0002108E0002261
:1018B00000EB8013064C04EB43035A544A1CD1B28C
:1018C0008229F4DB421CD0B20828EEDB10BD0000F8
:1018D0003E0100202DE9F04304460D4616461F4602
:1018E00028463CE0224635E0002A31DB812A2FDC05
:1018F00000282DDB3F282BDC4FEAE07C00EB5C7CF2
:101900004FEAEC0C0CEB8C1CDFF85C8008EB4C0C09
:101910001CF802C003464FEAE07800EB58784FEA23
:10192000E808A0EBC8094FF0010808FA09F82CEA0A
:10193000080C01464FEAE07800EB58784FEAE808D7
:1019400008EB8818DFF8209009EB480808F802C077
:10195000511C0AB2A1199142C6DC411C08B2E91916
:101960008142BFDCBDE8F0833E0100201CB54FF48E
:101970007A70FEF7A7FF0121022000F061FA012131
:10198000082000F05DFA4FF40040009001208DF82F
:10199000040000208DF8060001208DF807000320C8
:1019A0008DF8050069460A48FFF732FD4FF4806064
:1019B000009001208DF8040069460648FFF728FDD5
:1019C000012000F009FA012000F00CFA1CBD000013
:1019D00000040240000C024070B5054600241AE0E5
:1019E00080212141294009B1012100E00021084660
:1019F00000F0F8F90120FEF765FF012000F0ECF996
:101A00000120FEF75FFF002000F0E6F90120FEF75D
:101A100059FF601CC4B2082CE2DB012000F0DCF9A5
:101A20000120FEF74FFF002000F0D6F90120FEF75D
:101A300049FF70BD10B5012000F0D4F9012000F07D
:101A4000CBF90120FEF73EFF002000F0CBF901208A
:101A5000FEF738FF002000F0BFF910BD10B50020E0
:101A600000F0C0F9012000F0B7F90120FEF72AFFCD
:101A7000012000F0B7F90120FEF724FF10BD10B5DA
:101A8000FFF774FFAE2000F0B3F9D52000F0B0F9F5
:101A9000802000F0ADF9A82000F0AAF93F2000F066
:101AA000A7F9D32000F0A4F9002000F0A1F940200C
:101AB00000F09EF9A12000F09BF9C82000F098F9F1
:101AC000DA2000F095F9122000F092F9812000F060
:101AD0008FF9CF2000F08CF9D92000F089F9F1209E
:101AE00000F086F9DB2000F083F9302000F080F967
:101AF000A42000F07DF9A62000F07AF98D2000F0F6
:101B000077F9142000F074F9AF2000F071F9FFF7B5
:101B1000C9FE00F00BF910BD10B50246012000E02F
:101B200050430B1EA1F10101FAD110BD70B505465D
:101B30000C4645F0B00000F05BF9102141EA1410AA
:101B400000F056F904F00F0000F052F970BD0000EB
:101B5000F8B506460F4614461D46082D0CD1A4F1D3
:101B600020000E4901EB0010102308223946009096
:101B7000304600F017F80FE0062D0DD1A4F120003B
:101B800000EB4000064901EB4000082306223946DD
:101B90000090304600F006F8F8BD0000F45600084A
:101BA000E45C00082DE9FF4F80460E469146DDF8C3
:101BB00034B0002500244A4631464046039BFFF7D7
:101BC00089FE00BF66E0002560E008EB0500002804
:101BD0005ADB08EB05007F2856DC3046F11706EB90
:101BE0005171C9100FB2F11706EB5171C910A6EB74
:101BF000C10A002E05DA781E07B20AF108000FFAB2
:101C000080FA381900281BDB3819072818DC381926
:101C100000EB8010254901EB400008EB0501405C1A
:101C200004FB09511BF8011001FA0AF108433919A4
:101C300001EB81111D4A02EB410108EB05028854BA
:101C40003819401C00281FDB3819401C07281BDCF2
:101C50003819401C00EB8010144901EB400008EBE0
:101C60000501405C04FB09511BF80110CAF1080290
:101C7000114108433919491C01EB81110B4A02EB50
:101C8000410108EB05028854681CC5B24D459CDB38
:101C9000601CC4B20399481EC11700EB51710122A8
:101CA00002EBE101A1428EDCBDE8FF8F3E01002086
:101CB0002DE9F0470646894617461D46DDF8208087
:101CC000002417E0281B411E0A20FFF725FFB7FB61
:101CD000F0F00A21B0FBF1F201FB120000F1300A32
:101CE00004FB086108B2434652464946FFF730FFFD
:101CF000601CC4B2AC42E5DBBDE8F08708B511E07A
:101D00000820032300900848102102682020FFF7D4
:101D1000CFFF102318221946202000F01DF80120C3
:101D200002F0EEFBECE700003C00002010B50024C0
:101D30000DE000212046FFF7F9FE04EB8411054A6F
:101D400002EB4100822100F063F8601CC4B2082C51
:101D5000EFDB10BD3E0100202DE9F04706460D46A1
:101D6000174698462846E91705EB5171C9100FFA36
:101D700081F905EB0801481EC11700EB5171C9102C
:101D8000491C0FFA81FA002D07DAA9F101000FFAB8
:101D900080F9AAF101000FFA80FA4C4616E0002EF5
:101DA00012DB812E10DC002C0EDB072C0CDCF1B2D8
:101DB000E0B2FFF7BBFE04EB8411064A02EB4101DF
:101DC0008819394600F024F8601C04B25445E6DB5B
:101DD000BDE8F0873E01002001490860704700001F
:101DE000BC8240420149086070470000A88241421D
:101DF00010B50446FFF71EFE7820FFF7EDFD00202A
:101E0000FFF7EAFD2046FFF7E7FDFFF727FE10BDCD
:101E100070B505460E46FFF70DFE7820FFF7DCFD96
:101E20004020FFF7D9FD002404E0285DFFF7D4FD32
:101E3000601CC4B2B442F8DBFFF710FE70BD0000B6
:101E400029B1064A12680243044B1A6004E0034AAF
:101E500012688243014B1A6070470000303802401C
:101E600029B1064A12680243044B1A6004E0034A8F
:101E700012688243014B1A607047000040380240EC
:101E800029B1064A12680243044B1A6004E0034A6F
:101E900012688243014B1A607047000044380240C8
:101EA000F0B5002100220024022500260223324F33
:101EB0003F6807F00C0121B1042905D0082937D16A
:101EC00005E02E4F076036E02D4F076033E02A4FC4
:101ED0003F1F3F68C7F38056274F3F1F3F6807F0FB
:101EE0003F036EB1264FB7FBF3F7DFF88CC0ACF1C0
:101EF000040CDCF800C0CCF3881C07FB0CF40CE0ED
:101F00001E4FB7FBF3F7DFF870C0ACF1040CDCF840
:101F100000C0CCF3881C07FB0CF4174F3F1F3F6831
:101F2000C7F301477F1C7D00B4FBF5F7076002E0B3
:101F3000124F076000BF00BF0F4F3F6807F0F0016E
:101F40000909104F7A5C0768D74047600A4F3F681D
:101F500007F4E051890A0B4F7A5C4768D7408760E5
:101F6000054F3F6807F46041490B064F7A5C4768AC
:101F7000D740C760F0BD0000083802400024F400DC
:101F800000127A006D0000200CB500200190009036
:101F90003448006840F480303249086000BF31485E
:101FA000006800F4003000900198401C01900098F7
:101FB00018B90198B0F5A04FF1D12A48006800F493
:101FC000003010B10120009001E000200090009846
:101FD000012846D123484030006840F08050214914
:101FE000403108602048006840F440401E490860C5
:101FF0001C48083000681B49083108600846006822
:1020000040F4004008600846006840F4A0500860B2
:102010001648091F0860081F006840F08070091FFB
:10202000086000BF0F48006800F000700028F9D079
:1020300040F205700E4908600A480830006820F038
:1020400003000849083108600846006840F00200B3
:10205000086000BF03480830006800F00C00082842
:10206000F8D10CBD00380240007000400854400711
:10207000003C024010B500BF502080F31188BFF330
:102080004F8FBFF36F8F00BF03F098F818B14FF078
:1020900080500449086000BF002080F3118800BF11
:1020A00010BD000004ED00E010B51548006840F4D4
:1020B0007000134908601348006840F0010011499E
:1020C000086000200F49083108600E4800680E497A
:1020D00008400C4908600D48091D0860081F006889
:1020E00020F48020091F0860002006490C31086098
:1020F000FFF74AFF4FF0006001498039086010BDCA
:1021000088ED00E000380240FFFFF6FE10300024AA
:10211000F0B50C46154600210022068C4FF6FE77DE
:102120003E400684018B028C4FF60C7631407E1CBB
:1021300006EA03162E4331434FF6F576324044F05B
:102140000106324301830284F0BDF0B50C4615460A
:10215000002100220026078C4FF6EF7C07EA0C07CF
:102160000784018B028C4FF6FF7707EA041640F6CE
:10217000FF4739404FF6FF7707EA033739434FF6F9
:10218000FF7707EA052739434FF65F773A4046F075
:1021900010073A4301830284F0BDF0B50C461546A2
:1021A000002100220026078C4FF6FF6C07EA0C077F
:1021B0000784818B028C4FF6FF7707EA04264FF6DF
:1021C0000C7739404FF6FF7707EA03172F4339435F
:1021D0004FF2FF573A4046F480773A4381830284B6
:1021E000F0BDF0B50C461546002100220026078CF4
:1021F0004EF6FF7C07EA0C070784818B028C4FF6B2
:10220000FF7707EA043640F6FF4739404FF6FF777D
:1022100007EA052739434FF6FF7707EA03373943C3
:1022200045F6FF773A4046F480573A43818302846B
:10223000F0BD000010B500240221144800F054F84D
:1022400040B1124800F04AF81149086002210F48D5
:1022500000F035F804210D4800F046F858B10B485D
:1022600000F03FF80B49086001200B490870042179
:10227000064800F024F83CB14FF080500749086050
:10228000BFF34F8FBFF36F8F10BD000000040140FC
:1022900030000020340000203800002004ED00E071
:1022A00030B5002301248C40A3B2048C9C430484E9
:1022B000048C02FA01F5ADB22C43048430BDCA434C
:1022C0000282704721B1028842F00102028004E0DC
:1022D00002884FF6FE731A40028070470146486B31
:1022E00070470146886B704730B5024600200023D6
:1022F0000024158A05EA0103958905EA010413B152
:102300000CB1012000E0002030BD70B505460C4640
:10231000208850B92389A28861882846FFF7F8FEF3
:10232000E188284600F043F825E0208804280AD1F7
:102330002389A28861882846FFF707FFE18828469D
:1023400000F03EF817E0208808280AD12389A288E7
:1023500061882846FFF721FFE188284600F03DF814
:1023600009E02389A28861882846FFF73AFFE188BF
:10237000284600F03BF870BD1AB183890B43838176
:1023800002E083898B43838170470A4600210189DB
:102390004FF68F73194011430181704702894FF640
:1023A000F8731A40028102890A4302817047028B46
:1023B0004FF6F3731A400283028B0A43028370477D
:1023C000028B4FF2FF331A400283028B4FF6FF73EA
:1023D00003EA01231A4302837047828B4FF6F3739B
:1023E0001A408283828B0A4382837047828B4FF22A
:1023F000FF331A408283828B4FF6FF7303EA012377
:102400001A4382837047000000220288184B9842CA
:102410000ED0184B98420BD0B0F1804F08D0164B1D
:10242000984205D0154B984202D0154B984204D1E2
:102430004FF68F731A404B881A43124B984207D0BD
:10244000114B984204D04FF6FF431A400B891A43B0
:1024500002804B68C3620B880385054B984202D00B
:10246000044B984201D18B7A038601238382704703
:10247000000001400004014000040040000800404A
:10248000000C0040001000400014004010B5002473
:1024900040F22551164800F013F9012826D11448BE
:1024A00000F0C8F9C4B21348134909884454232CD6
:1024B00003D101201149087004E00F480088401C36
:1024C0000D49088021460A4800F0B9F921460C4818
:1024D00000F0B5F900BF8021054800F0E4F80028BD
:1024E000F9D040F22551024800F0C2F810BD0000BA
:1024F00000100140F60500205E0000206000002072
:102500000048004010B504460BE014F8011B0748D2
:1025100000F095F900BF8021044800F0C4F80028BD
:10252000F9D020780028F0D110BD00000010014043
:1025300010B540F225511E4800F0C2F8012834D1F0
:102540001B4800F077F91B491B4A127821F812004A
:102550000846194A127830F81210154800F06FF941
:1025600014481549097830F81100232813D10020A8
:102570001049114A127821F81200104800F024FA8C
:1025800000F02EFA00200C49087040F2255108484E
:1025900000F06EF810BD08480078401C064908702D
:1025A00040F22551024800F063F800BFF2E7000056
:1025B00000440040620500206C0000204E05002011
:1025C00070B5002440F22551194800F079F801282F
:1025D00015D1174800F02EF9C4B21648008880289B
:1025E00008DA154813490988445412480088401CE9
:1025F0001049088040F225510D4800F039F840F2AA
:1026000024410B4800F05CF8012810D10B490870F8
:10261000084800880A4908800748FFF773FF002030
:102620000449088002480588001D058800BF70BD68
:102630000048004058000020760500205A00002085
:102640005C00002010B504460BE014F8011B07489D
:1026500000F0F5F800BF8021044800F024F80028BD
:10266000F9D020780028F0D110BD000000480040CB
:1026700010B50022002340F66A14A14200D100BF29
:102680000A1201249440A3B2DC43048010BD21B19E
:10269000828942F40052828104E082894DF6FF7300
:1026A0001A408281704702460020B1F5007F00D1B8
:1026B00000BF13880B400BB1012000E000207047E1
:1026C00070B50246002400230025002040F66A165B
:1026D000B14200D100BFC1F3421501F01F03012632
:1026E00006FA03F3012D02D19689334006E0022D4C
:1026F00002D1168A334001E0968A33400C1201263B
:1027000006FA04F41688344013B10CB1012000E03D
:10271000002070BDF0B503460024002600250020EF
:1027200040F66A17B94200D100BF1846C1F34214FF
:1027300001F01F06012707FA06F5012C01D10C3024
:1027400004E0022C01D1103000E014301AB1076807
:102750002F43076002E00768AF430760F0BD000049
:102760002DE9FF4705460E460024A14600BFA046BE
:10277000B08900B100BF2C8A24F44054F08804438F
:102780002C82AC8941F20C608443B08831890843C3
:10279000718908430443AC81AC8A24F44074B08945
:1027A0000443AC826846FFF77BFB2048854202D099
:1027B0001F48854202D1DDF80C9001E0DDF8089059
:1027C000A88900F4004040B109EBC90000EB0910F2
:1027D00031684900B0FBF1F707E009EBC90000EBF5
:1027E000091031688900B0FBF1F76420B7FBF0F005
:1027F00004012009642101FB1078A88900F400403D
:1028000040B1322000EBC800B0FBF1F000F007004F
:10281000044308E0322000EB08106421B0FBF1F023
:1028200000F00F0004432C81BDE8FF870010014039
:102830000014014001468888C0F308007047C1F3C6
:10284000080282807047000000B587B00121084669
:10285000FFF7F6FA01214804FFF702FB02208DF88A
:10286000180000208DF81A008DF81B000C20059030
:1028700003208DF8190005A91D48FEF7C9FD0722A0
:1028800002211B48FEF70CFE072203211848FEF721
:1028900007FE4FF4165001900020ADF810000C20F8
:1028A000ADF80E000020ADF80C00ADF80A00ADF850
:1028B000080001A90F48FFF753FF012240F22551FC
:1028C0000C48FFF727FF01210A48FFF7E0FE26200A
:1028D0008DF8000001208DF803008DF80100002024
:1028E0008DF802006846FEF797FF07B000BD0000B4
:1028F000000002400044004010B588B004460121A9
:102900008804FFF7ADFA01210220FFF799FA0722A8
:102910000A212648FEF7C4FD07220B212348FEF7B3
:10292000BFFD4FF44060069002208DF81C0003208C
:102930008DF81D0000208DF81F008DF81E0006A9DF
:102940001A48FEF765FD02940020ADF814000C2033
:10295000ADF812000020ADF81000ADF80E00ADF893
:102960000C0002A91248FFF7FBFE27208DF8040097
:1029700000208DF805008DF8060001208DF8070075
:1029800001A8FEF749FF012240F225510848FFF750
:10299000C1FE012240F224410548FFF7BBFE0121A0
:1029A0000348FFF774FE08B010BD000000040240A9
:1029B000004800400246002003E000231354431C5B
:1029C00098B28842F9DB70470246002005E031F8F2
:1029D000103022F81030431C98B20A28F7DB7047F9
:1029E000002005E00021044A22F81010411C88B2A2
:1029F0000A28F7DB704700006205002000B587B0A9
:102A000001210846FFF71CFA01211020FFF738FAD0
:102A100002208DF8180000208DF81A008DF81B0098
:102A20004FF4C060059003208DF8190005A91D48DA
:102A3000FEF7EEFC072209211A48FEF731FD0722B6
:102A40000A211848FEF72CFD4FF4E13001900020D8
:102A5000ADF810000C20ADF80E000020ADF80C0011
:102A6000ADF80A00ADF8080001A90F48FFF778FE9D
:102A7000012240F225510C48FFF74CFE01210A4883
:102A8000FFF705FE25208DF8000001208DF80300DA
:102A90008DF8010000208DF802006846FEF7BCFEAC
:102AA00007B000BD000002400010014000BFFEE77B
:102AB0000FB4054B10B503A9044A029800F0EEF8D4
:102AC00010BC5DF814FB0000DD330008640000203A
:102AD0000FB4084B10B504A902AA039800F0DEF861
:102AE000044602A9002000F05CFC204610BC5DF802
:102AF00014FB0000A333000802E008C8121F08C13D
:102B0000002AFAD170477047002001E001C1121F6E
:102B1000002AFBD1704700002DE9FF5F82B0002141
:102B2000DDE90430020DDDF840B0034318D044F66F
:102B30001050A2F2FF3242431514119801281FD001
:102B4000A5EB0B00401C5FEA000A4FF000064E4F59
:102B5000DFF83891B046504615D5CAF1000413E0AD
:102B6000119801244AA3012801D16FEA0B010298B0
:102B7000119AC0E90031C0E9024206B0BDE8F09FF9
:102B8000CBF10000DFE704460021404A491842EB40
:102B90000450CDE9001012E0E00707D032463B4672
:102BA00040464946FDF750FC8046894632463B4642
:102BB00010461946FDF748FC06460F466410002CE7
:102BC000EAD1DDE90401DDE90023BAF1000F06DAFC
:102BD000FDF73AFC42464B46FDF736FC05E0FDF7B3
:102BE000A5FC42464B46FDF7A1FC04460E460022DA
:102BF000284BFDF70BFD03D84FF0FF30014607E0EF
:102C00000022254B20463146FDF777FBFDF7EBFD13
:102C1000102409E0002C0ADB0A220023FDF724FD22
:102C2000039B30321A55641E50EA0102F2D1641C33
:102C3000039AC4F111031444119A012A03D001220A
:102C400008430DD10AE0084304D000204FF0110BD7
:102C5000119072E7A3EB0B056D1E0DE05B4504DDE3
:102C60004FF0000205F1010504E003DA4FF0000225
:102C7000A5F10105002AECD002981199C0E90231B2
:102C8000C0E9004579E70000000014400000F03F73
:102C9000300000000000F0430000E03F2DE9FF4F4E
:102CA00095B09A46884606460025EEE1252877D15C
:102CB00000242746F94A0121039400E0044316F852
:102CC000013F203B01FA03F01042F7D130782A2867
:102CD00011D06FF02F033078A0F13002092A16D8F6
:102CE000039A44F0020402EB820203EB4202104416
:102CF000761C0390EFE758F8042B0392002A03DABE
:102D0000504244F40054039044F00204761C30789E
:102D10002E2816D116F8010F44F004042A280DD0ED
:102D20006FF02F023078A0F13003092B09D807EBA0
:102D3000870302EB4303C718761CF3E758F8047BBC
:102D4000761C30786C280FD006DC4C2817D0682809
:102D50000DD06A2814D104E0742810D07A280FD13D
:102D60000DE044F400140AE044F4801401E044F45B
:102D700040147278824202D104F58014761C761CCD
:102D8000307866280BD013DC582877D009DC00286F
:102D900075D04528F6D04628F4D047281AD193E1BB
:102DA00018E0632835D0642879D0652812D18BE1EA
:102DB000702873D008DC6728F1D069286FD06E289E
:102DC0000DD06F2806D1ACE073282CD0752874D0B4
:102DD000782853D05246179990476D1C54E1C4F39C
:102DE0000250022809D003280DD0D8F8001004287A
:102DF0000DD00D6008F1040846E1D8F80010EA177C
:102E0000C1E90052F6E7D8F800100D80F2E70D7026
:102E1000F0E718F8041B8DF8001000208DF8010071
:102E2000EB46012003E058F804BB4FF0FF30610788
:102E30004FF0000102D40DE009F101018946B942C9
:102E40000FDA8145F8DB1BF809100029F4D108E0FE
:102E500009F1010189468142FADB1BF809100029BA
:102E6000F6D103985346A0EB090721463846179A36
:102E700000F080FA284400EB090507E044E008E18F
:102E80000DE01BF8010B524617999047B9F1010963
:102E9000F7D2534621463846179AF2E039E00A2124
:102EA000C4F302524FF0000B0091022A06D058F8EA
:102EB000040BC117032A09D00AE023E008F1070038
:102EC00020F00702F2E80201904605E000B2C117C7
:102ED000042A01D140B2C117002906DA0A460021AE
:102EE000404261EB02012D2202E0220504D52B2293
:102EF0008DF80420012203E0E20701D02022F7E749
:102F0000914657E00A2100E010214FF0000B00919C
:102F10000BE010214FF0000B44F00404082700914F
:102F200003E008204FF0000B0090C4F30252022A85
:102F300005D058F8040B0021032A08D008E008F156
:102F4000070020F00702F2E80201904603E080B299
:102F5000042A00D1C0B24FF0000922072AD53278E6
:102F6000702A07D0DDF800C08CF0100C5CEA0B0C66
:102F700005D00EE040228DF80420012208E050EA3E
:102F8000010306D030238DF804308DF8052002228D
:102F90009146009B83F0080353EA0B030AD150EAE1
:102FA000010201D1620705D530228DF804204FF0CF
:102FB00001097F1E3278582A04D039A20C920CAA3B
:102FC00002920BE03BA2F9E75B46009AFDF74CFB4F
:102FD0000C9B9B5C029A521E0292137050EA0102F3
:102FE000F2D1029804A9081A00F1200B600702D55B
:102FF00024F4803400E001275F4502DDA7EB0B00DD
:1030000000E0002000EB0B01009003984944401AB7
:103010000390E00306D453462146179A039800F024
:10302000A9F90544002706E001A85246C05D17999A
:1030300090476D1C7F1C4F45F6DBE0030CD55346D3
:103040002146179A039800F095F9054404E03020D2
:103050005246179990476D1C0099481E0090002910
:10306000F5DC08E00298029952460078491C02916A
:10307000179990476D1CBBF10001ABF1010BF1DC1E
:103080005BE100F065F90544761C307800287FF498
:103090000DAE19B02846BDE8F08F000009280100E8
:1030A00030313233343536373839616263646566BE
:1030B0000000000030313233343536373839414280
:1030C0004344454600000000600700D4062708F18D
:1030D000070020F00700F0E80223804603F0004CD0
:1030E0005FEA0C0001D097A009E0200501D596A069
:1030F00005E0E00701D095A001E0AFF24C0013908D
:10310000307823F0004365280CD006DC452809D030
:1031100046281DD047287FD13BE0662818D0672875
:103120007AD136E00021112F01DB112000E0781C5C
:10313000CDE9000104A90CA8FFF7EEFCDDE90D01C3
:103140000C9A4FF0000B07F10109109200914EE02C
:103150004FF000400097CDE9011004A90CA8FFF73B
:10316000DBFCDDE90D020C9B0F994FF0000B914643
:103170001093009211B9791C00EB0109B7EB09001B
:1031800003D4C0F1FF3B07F10109A9EB070001904F
:1031900042E0012F00DA01270021112F01DD11206B
:1031A00000E03846CDE9000104A90CA8FFF7B4FC03
:1031B000DDE90D010C9A00914FF0000BB946109219
:1031C00021070FD4009A4A4503DA914601E0A9F19C
:1031D0000109B9F1010F05DD109AA9F10101515C56
:1031E0003029F4D0B84202DA10F1040F03DA0121D9
:1031F000CDE9011010E0002803DC8344A9EB0001B5
:1032000002E0411C494500DD8946A0EB0B00401C53
:1032100001904FF000400290200705D401984845E6
:1032200002DB4FF0FF30019000208DF84B00029838
:103230000DF14B07B0F1004F25D002200C902B2050
:103240000D90029800280CDA404202902D200D903B
:1032500007E00A210298FDF7F1F93031029007F8F2
:10326000011D0C99481E0C900029F2DC02980028E0
:10327000EFD1791E0D980870307800F0200040F0F2
:10328000450007F8020D11A8C01BC01D029013983D
:10329000007800B1012000EB0901019801EBE07119
:1032A000029801440398401A401E0390E00306D49C
:1032B00053462146179A039800F05CF8054413988A
:1032C000007818B15246179990476D1CE00323D53A
:1032D00053462146179A039800F04CF805441BE02A
:1032E000BBF1000F07DB0098584504DD10981799D3
:1032F00010F80B0001E017993020524690470198D2
:103300000BF1010B401E05F10105019004D12E20A7
:103310005246179990476D1CB9F10001A9F10109B6
:10332000DEDC05E017F8010B5246179990476D1C3B
:103330000299481E02900029F4DC53462146179A50
:1033400003989EE62D0000002B00000020000000E6
:103350002DE9F041044600251E461746880404D492
:1033600005E039462020B0476D1C641EF9D528467B
:10337000BDE8F0812DE9F041044600251E46904647
:10338000C80301D5302700E02027880404D505E0D4
:1033900041463846B0476D1C641EF9D52846BDE845
:1033A000F0810A68531C0B601070704710B590B024
:1033B0000446054805A102686846FFF789FB684690
:1033C000FDF788FF10B010BD3C000020236368614A
:1033D000742077696E3120256400000070B50446C2
:1033E0000D46A1B20548FFF72AFA00BF8021034825
:1033F000FFF759F90028F9D0204670BD00100140B0
:103400001CB5FEF781F901F021FA3C490860084635
:10341000006820B93AA0FFF74BFB00BFFEE742A0CF
:10342000FFF746FB4A48032100234FF40072CDE921
:10343000001048A14A4801F07BFE0446012C03D14C
:1034400048A0FFF735FB02E04BA0FFF731FB5148E6
:10345000012100234A02CDE900104FA1524801F09A
:1034600067FE0446012C03D150A0FFF721FB02E0C8
:1034700054A0FFF71DFB5B4804210023CA01CDE9DE
:10348000001059A15E4801F053FE0446012C03D1FF
:103490005CA0FFF70DFB02E062A0FFF709FB6B48A1
:1034A000032100234FF40072CDE9001068A16E489B
:1034B00001F03EFE0446012C03D16CA0FFF7F8FAA0
:1034C00002E072A0FFF7F4FA7A48032100234FF4D8
:1034D0000072CDE9001078A17E4801F029FE044673
:1034E000012C03D17CA0FFF7E3FA02E084A0FFF7F0
:1034F000DFFA01F0E5F800201CBD0000000000200C
:1035000045535038323636204576656E7420477202
:103510006F757020637265617465206661696C65A2
:1035200064210D0A00000000455350383236362021
:103530004576656E742047726F75702063726561A1
:1035400074652073756363657373210D0A00000051
:10355000040000204F4C45445F5461736B00000031
:10356000FD1C00084F4C45445F5461736B2063722F
:1035700065617465210D0A004F4C45445F546173C9
:103580006B20637265617465206661696C65642196
:103590000D0A00000800002048435F535230345F9A
:1035A0005461736B00000000E516000848435F5348
:1035B0005230345F5461736B2063726561746521AE
:1035C0000D0A000048435F535230345F5461736BFF
:1035D00020637265617465206661696C6564210DA4
:1035E0000A0000000C000020455350383236365F88
:1035F000436F6E6E6563745F5461736B000000000F
:10360000210C0008455350383236365F436F6E6EDA
:103610006563745F5461736B2063726561746521C7
:103620000D0A0000455350383236365F436F6E6ED8
:103630006563745F5461736B2063726561746520A8
:103640006661696C6564210D0A00000010000020AD
:10365000455350383236365F50726F636573735F0F
:103660005461736B00000000691100084553503825
:103670003236365F50726F636573735F5461736B7C
:1036800020637265617465210D0A0000455350384E
:103690003236365F50726F636573735F5461736B5C
:1036A00020637265617465206661696C6564210DD3
:1036B0000A00000014000020455350383236365FAF
:1036C0006D6573736167657265706F72745F546165
:1036D000736B000009130008455350383236365FCB
:1036E0006D6573736167657265706F72745F546145
:1036F000736B20637265617465210D0A0000000020
:10370000455350383236365F6D6573736167657245
:1037100065706F72745F5461736B2063726561745E
:1037200065206661696C6564210D0A002DE9F04130
:1037300005460E461C4807681C480068001D00F03E
:103740007BFD50B91948006890F82C100120884082
:1037500017490968814316480160681C38B936B1B9
:1037600012480168091D134800F0A4FD1AE07C19F5
:103770000E4800684460BC4207D20C480168091D2D
:103780000D48006800F07CFD0CE008480168091D48
:103790000A48006800F074FD09480068844201D2BC
:1037A00007480460BDE8F0819400002080000020FC
:1037B000980000206C070020880000208400002072
:1037C000B000002010B5044600F080FD24480068D9
:1037D000401C234908602348006840B92148046020
:1037E0000846006801280DD100F0DEF90AE01E4805
:1037F000006838B91B480068C06AE16A884201D88D
:103800001848046019480068401C184908600846B8
:103810000068206494F82C1001208840144909683D
:10382000084313490860E16A01EB8101114A02EB88
:103830008100211D00F03EFD00F072FD0A48006885
:1038400068B108480068C06AE16A884207D24FF050
:10385000805009490860BFF34F8FBFF36F8F10BDD1
:1038600090000020800000209C000020AC00002080
:1038700098000020B806002004ED00E010B500F02C
:1038800025FD10480068D0B90F4800F0E9FC0F484A
:1038900000F0E6FC0C480E4908600C480D49086031
:1038A00000220C210A2001F0E3F8064908600846CE
:1038B000006820B108A10348006800F0E5FD00F0B1
:1038C0002FFD10BDC40000208007002094070020B9
:1038D000BC000020C0000020546D725100000000A8
:1038E00070B523E000F036FF1348006808B90120E6
:1038F00000E00020054601F00DFEBDB900F0E6FC39
:103900000D48C068C468201D00F096FC0B48006894
:10391000401E0A4908600A480068401E08490860BD
:1039200000F0FEFC204600F060F800BF044800688C
:103930000028D7D170BD000058070020900000205B
:103940008C00002070B504460D46206C70B1216CCF
:10395000E0680844E0606168E068884201D320685C
:10396000E0602846226CE168FCF788FC70BD2DE918
:10397000F04104460F4615464FF00008A66B206C38
:1039800040B9206860BB606801F0BCFC8046002044
:10399000606025E07DB93946226CA068FCF76EFCBA
:1039A000216CA0680844A060D4E90110884217D3B4
:1039B0002068A06014E03946226CE068FCF75EFCE9
:1039C000216CE068401AE0602168E068884203D218
:1039D000216C6068401AE060022D01D106B1761EAC
:1039E000701CA0634046BDE8F08110B50446206B12
:1039F00000F0B4FC204600F0B1FC10BD0146084ABE
:103A0000126812680AB9012200E000220A600A68FE
:103A100022B9034A1268D268106800E0002070479B
:103A2000BC00002030B54FF49633174800F007046F
:103A30002CB1C01D20F00700134C041B1B1B0246B9
:103A4000124C22600024114D6C60D018083820F010
:103A500007000F4C206000240D4D2D686C600C4D4C
:103A60002D682C601146441A4C60094C24680C6087
:103A7000084D4C682C60084D4C682C604FF0004499
:103A8000064D2C6030BD0000A8070020DC0000209F
:103A9000E4000020EC000020E8000020F0000020FE
:103AA00000BFFFF71DFF064800680128F9D94FF055
:103AB000805004490860BFF34F8FBFF36F8FF0E76A
:103AC000B806002004ED00E02DE9F04106460D4661
:103AD00017469846069C0DB9246000E02760E6630F
:103AE00025640121204601F0D1F884F84C80BDE81E
:103AF000F0812DE9F05F82460F4690469B460A9E74
:103B00000C9C4FEA8801A522206BFCF7C9FBA8F1A9
:103B10000100216B01EB800929F0070909F007007A
:103B200008B9012000E0002050B900BF502080F308
:103B30001188BFF34F8FBFF36F8F00BF00BFFEE749
:103B4000002507E0795D04F134004155785D00B946
:103B500002E06D1C0A2DF5D300BF00213D20015568
:103B6000052E00D30426E662A6640020E064201D32
:103B700000F083FB04F1180000F07FFB2461C6F124
:103B80000500A06164620020206584F854005A4654
:103B90005146484600F03AFB20600B9808B10B985C
:103BA0000460BDE8F09F000010B5002407E004EBBE
:103BB00084010F4A02EB810000F052FB641C052CCB
:103BC000F5D30C4800F04CFB0B4800F049FB0B48C8
:103BD00000F046FB0A4800F043FB0A4800F040FBB7
:103BE00004480949086004480849086010BD0000FD
:103BF000B80600201C0700203007002044070020E2
:103C0000580700206C070020840000208800002056
:103C100010B50146164800E0006803688B42FBD3EC
:103C20000246436813448B4204D143684C682344E2
:103C3000436001460A464B6813440468A34211D10D
:103C40000C4C03682468A34208D04B68046864687D
:103C500023444B6003681B680B6005E0054B1B6841
:103C60000B6001E003680B60884200D0016010BD6A
:103C7000DC000020E40000202DE9F04104460D4660
:103C800016461F464FF0000865602461B5420CD807
:103C9000F01BA169884202D34FF0010811E0211DF9
:103CA0000948006800F0ECFA0BE0BE4204D2BD42C5
:103CB00002D34FF0010804E0211D0448006800F021
:103CC000DFFA4046BDE8F081C0000020BC000020C3
:103CD00070B5054600F0FAFAA86B08B9012400E0B7
:103CE000002400F01DFB204670BD70B5054600F0B5
:103CF000EDFAA86BE96B884201D1012400E00024B1
:103D000000F00EFB204670BDF8B505460F4616487C
:103D10000068C068C468201D00F08EFAE0690128C0
:103D20001DD1A06941192B463A462046FFF7A4FF52
:103D3000A8B1002003462A4601460090204601F023
:103D400097FC064656B900BF502080F31188BFF398
:103D50004F8FBFF36F8F00BF00BFFEE700BF20464D
:103D6000616A8847F8BD0000BC00002070B586B0CD
:103D70006AE00398002867DB059C606908B90120A8
:103D800000E0002010B9201D00F056FA02A800F053
:103D9000BDF8054603980A2854D2DFE800F009056B
:103DA0000731334F0608323400BF00BF00BF00BFE9
:103DB0000498A269811803462A462046FFF75CFF53
:103DC000E8B12046616A8847E069012817D10020E0
:103DD00000900498A169421800231946204601F07A
:103DE00047FC064656B900BF502080F31188BFF348
:103DF0004F8FBFF36F8F00BF00BFFEE700BF22E011
:103E000000BF20E000BF0498A061A06908B10120B4
:103E100000E0002050B900BF502080F31188BFF3AC
:103E20004F8FBFF36F8F00BF00BFFEE7A06941193E
:103E30002B462A462046FFF71FFF04E0204600F0ED
:103E40008DFA00E000BF00BF00231A4603A9044812
:103E5000006800F039FE00288BD106B070BD00006C
:103E6000C4000020F8B505460C4600F073FC684617
:103E700000F04CF80646009820BB44B9B54206D87D
:103E800001F048FB31462846FFF73EFF1CE03CB1FD
:103E90000E480068006808B9012000E000200446D0
:103EA000A91B22460A48006800F004FB01F032FB1F
:103EB00050B94FF0805007490860BFF34F8FBFF3F0
:103EC0006F8F01E001F026FBF8BD0000C00000206C
:103ED000C400002004ED00E00A490968096809B936
:103EE000012100E0002121B14FF0FF31064A1160AD
:103EF00006E004490968C968C868034A4168116056
:103F00007047000084000020B000002070B5044617
:103F100001F04EF9054607480068854204D200F0DA
:103F20000BF80120206001E00020206001480560BE
:103F3000284670BDCC0000202DE9F84332E024482B
:103F40000068C068056822480068C068C468201D11
:103F500000F072F92046616A8847E069012821D1A2
:103F6000A0694619AE4207D966602461211D184830
:103F7000006800F085F915E0002003462A46014656
:103F80000090204601F074FB074657B900BF50204F
:103F900080F31188BFF34F8FBFF36F8F00BF00BF57
:103FA000FEE700BF0A480068006808B9012000E089
:103FB00000200028C3D00648D0F8008005480068DB
:103FC000034908600348C0F80080BDE8F88300009A
:103FD000BC000020C00000200E480068401C08B94A
:103FE000012000E0002050B900BF502080F311886C
:103FF000BFF34F8FBFF36F8F00BF00BFFEE700BF5F
:10400000502080F31188BFF34F8FBFF36F8F00BF35
:1040100000BFFEE7D000002008B500BF6846FFF7EC
:10402000EDFC044620460099FFF71CFFFFF79EFEBB
:10403000F4E770B5044600F049F994F9455010E0F2
:10404000606A08B9012000E0002038B904F12400BA
:1040500001F0BCF918B100F081FA00E003E0681E3D
:1040600045B2002DECDC00BFFF2084F8450000F0D5
:1040700057F900F02BF994F9445010E0206908B981
:10408000012000E0002048B904F1100001F09EF981
:1040900008B100F063FA681E45B200E001E0002DAF
:1040A000ECDC00BFFF2084F8440000F039F970BD5B
:1040B0002DE9F04104464FF0000800F04BFB464864
:1040C000006808B9FFF7AEFC4448006820400028AB
:1040D0006BD1D4B1083404F00700B0B104F007008C
:1040E000C0F10800044404F0070008B9012000E012
:1040F000002050B900BF502080F31188BFF34F8FCC
:10410000BFF36F8F00BF00BFFEE7002C4DD03448D7
:104110000068844249D8334E3046056801E02E4697
:104120002D686868A04202D228680028F7D12A4882
:104130000068854239D0306800F10808286830608E
:104140006868001B102819D92F1907F0070008B953
:10415000012000E0002050B900BF502080F31188FA
:10416000BFF34F8FBFF36F8F00BF00BFFEE76868DC
:10417000001B78606C603846FFF74AFD1849686894
:104180000968081A1649086008460068164909684F
:10419000884203D212480068134908600F496868D2
:1041A0000968084368600020286001F0B3F908F04E
:1041B000070008B9012000E0002050B900BF5020DE
:1041C00080F31188BFF34F8FBFF36F8F00BF00BF25
:1041D000FEE74046BDE8F081E4000020F00000204A
:1041E000E8000020DC000020EC0000200648006809
:1041F00030B10549096801F14C00C96C491C0160E6
:10420000014800687047000080000020001F4FF048
:1042100080730360001F21F001030360001F054B42
:10422000036014380260001F6FF00203036020383F
:1042300070470000D93F000801460A69D1E9013002
:104240009860D1E9010358605068884201D18868BC
:104250005060002008611068401E106010687047B0
:1042600000F1080141604FF0FF31816000F1080169
:10427000C160016100210160704700210161704748
:1042800010B502460B685C1C0CB9106907E002F11E
:10429000080000E04068446824689C42FAD94468F9
:1042A0004C604C68A160886041600A611468641CBD
:1042B000146010BD42684A6093688B6093685960CF
:1042C0009160086103685B1C0360704700BF502069
:1042D00080F31188BFF34F8FBFF36F8F00BF0E487D
:1042E0000068401C0C49086008460068012812D18B
:1042F0000A480068C0B208B9012000E0002050B9A7
:1043000000BF502080F31188BFF34F8FBFF36F8F32
:1043100000BF00BFFEE77047D000002004ED00E0C2
:104320000D48006850B900BF502080F31188BFF3DA
:104330004F8FBFF36F8F00BF00BFFEE706480068D6
:10434000401E054908600846006820B9002080F337
:10435000118800BF00BF7047D000002070B506462E
:104360003546002E3FD0083D2C461F49606809683D
:10437000084008B1012000E0002050B900BF5020E3
:1043800080F31188BFF34F8FBFF36F8F00BF00BF63
:10439000FEE7206808B9012000E0002050B900BF06
:1043A000502080F31188BFF34F8FBFF36F8F00BF92
:1043B00000BFFEE70C4960680968084098B12068B2
:1043C00088B90949606809688843606000F0C2F9EB
:1043D0000649606809680844044908602046FFF7F8
:1043E00017FC01F097F870BDF0000020E8000020F5
:1043F000064800684FF47A71B0FBF1F0401E4FF0B0
:10440000E021486107200861704700001C0000207F
:1044100070B5FBF71DFF0446102C16D304F1E02005
:1044200090F8F05315480078854201DB012000E048
:10443000002050B900BF502080F31188BFF34F8F88
:10444000BFF36F8F00BF00BFFEE70D48006800F4A8
:10445000E0600C490968884201D8012000E0002092
:1044600050B900BF502080F31188BFF34F8FBFF3C6
:104470006F8F00BF00BFFEE770BD0000D4000020BA
:104480000CED00E0D8000020024600200BE0084BB5
:1044900053F8303033B9064B43F8301003EBC00308
:1044A0005A6002E0401C0828F1D300BF70470000AA
:1044B000780600202DE9F04105460E4617462C46A9
:1044C000FFF704FF94F94400401C10B9002084F861
:1044D000440094F94500401C10B9002084F84500C0
:1044E000FFF71EFFA06B28B93A46314604F12400BD
:1044F00000F056F82046FFF79CFDBDE8F081000073
:1045000070B504460025D4B11248006808B90120EE
:1045100000E0002050B900BF502080F31188BFF3A5
:104520004F8FBFF36F8F00BF00BFFEE700F012F99F
:1045300000212046FFF7FAF800F0ECFF05463DB9F0
:104540004FF0805004490860BFF34F8FBFF36F8F67
:1045500070BD0000B800002004ED00E0012001491A
:1045600008607047A400002070B504460D4654B999
:1045700000BF502080F31188BFF34F8FBFF36F8FC0
:1045800000BF00BFFEE70548016818312046FFF76D
:1045900077FE01212846FFF7C9F870BD8000002092
:1045A00070B505460E46144655B900BF502080F33D
:1045B0001188BFF34F8FBFF36F8F00BF00BFFEE7BF
:1045C0000648016818312846FFF774FE0CB14FF019
:1045D000FF3621463046FFF7A9F870BD8000002065
:1045E00070B505462C46002D4BD02649E06A096877
:1045F000C96A884245D2A06900F0004028B9214824
:104600000068C06AC0F10500A061E16A01EB8101A8
:104610001D4A02EB81016069884201D1012000E05E
:10462000002050B3201DFFF707FE78B9E06A00EBC9
:104630008000154951F8200040B994F82C10012051
:104640008840124909688143104801600D4800689C
:10465000C06AE06294F82C10012088400B49096878
:1046600008430A490860E16A01EB8101064A02EB4E
:104670008100211DFFF71EFE03E002480068C06AAA
:10468000E06270BD80000020B80600209800002085
:1046900050B900BF502181F31188BFF34F8FBFF392
:1046A0006F8F00BF00BFFEE703490968016003493F
:1046B0000968416070470000A800002094000020B5
:1046C0001CB51D4800210B468222CDE900101BA11C
:1046D0001C4800F02DFD0446012C02D100F09CFF87
:1046E0000446012C15D100BF502080F31188BFF380
:1046F0004F8FBFF36F8F00BF4FF0FF30124908603C
:1047000001201249086000201149086000F012F9E8
:1047100010E0601C08B1012000E0002050B900BF8B
:10472000502080F31188BFF34F8FBFF36F8F00BF0E
:1047300000BFFEE71CBD0000B400002049444C450A
:1047400000000000A13A0008B00000209C000020FA
:104750009400002002480068401C0149086070472E
:10476000B80000201D48006818B101201C490860ED
:1047700032E000201A4908601A480068B0FA80F058
:10478000C0F11F0101EB8100174A52F8200008B167
:10479000012000E0002050B900BF502080F31188B4
:1047A000BFF34F8FBFF36F8F00BF00BFFEE701EB7A
:1047B00081020D4B03EB820042685268426000F1B7
:1047C00008024368934202D14268526842604268DC
:1047D000D268064B1A6000BF70470000B800002086
:1047E000A400002098000020B806002080000020CF
:1047F0002DE9F04105460E462C4655B900BF502024
:1048000080F31188BFF34F8FBFF36F8F00BF00BFDE
:10481000FEE706F07F4008B9012000E0002050B913
:1048200000BF502080F31188BFF34F8FBFF36F8F0D
:1048300000BF00BFFEE7FFF749FD27682068B043CF
:104840002060FFF76DFD3846BDE8F08110B51C20F3
:10485000FFF72EFC044624B100202060201DFFF746
:10486000FFFC204610BD2DE9FE4F0746884600207C
:1048700001903C46009057B900BF502080F311884A
:10488000BFF34F8FBFF36F8F00BF00BFFEE708F08D
:104890007F4008B9012000E0002050B900BF50203F
:1048A00080F31188BFF34F8FBFF36F8F00BF00BF3E
:1048B000FEE704F1040909F108000290FFF74AFF3E
:1048C000D9F80C60206840EA0800206026E0D6F89D
:1048D00004B035680020009005F07F4A25F07F4540
:1048E0000AF0806028B92068284040B1012000907B
:1048F00005E020682840A84201D1012000900098DE
:1049000058B10AF0807010B10198284301902068D6
:1049100040F00071304600F0A5FD5E4602988642E8
:10492000D5D1206801998843206000F0F3FD20680C
:10493000BDE8FE8F1CB5474800684749884201D052
:10494000012000E0002050B900BF502080F3118802
:10495000BFF34F8FBFF36F8F00BF00BFFEE73D482F
:1049600000683D49491E884201D0012000E0002036
:1049700050B900BF502080F31188BFF34F8FBFF3B1
:104980006F8F00BF00BFFEE73449084600780190F2
:10499000FF200A4610700846007800909DF800003D
:1049A00000F0F0009DF80020904201D1012000E0CD
:1049B000002050B900BF502080F31188BFF34F8F03
:1049C000BFF36F8F00BF00BFFEE79DF8000000F04F
:1049D0005000234A10700720224A106009E0214845
:1049E0000068401E1F4A10609DF800004006000E3F
:1049F00000909DF8000000F080008028EFD019485A
:104A000000680002174A10601046008800F4E06059
:104A10001060124A019810700E482030006840F46F
:104A200070000C49203108600846006840F0704072
:104A30000860FFF7DDFC00200B490860FBF7D0FBA6
:104A40000A48006840F0404008490860FBF7B8FB9E
:104A500000201CBD00ED00E071C20F4100E400E049
:104A6000D4000020D8000020D000002034EF00E067
:104A70002DE9F84305460E4690460DB1012000E0B1
:104A8000002050B900BF502080F31188BFF34F8F32
:104A9000BFF36F8F00BF00BFFEE70EB9002701E034
:104AA00005FB06F707F15000FFF702FB044644B18F
:104AB00004F1500943464A46314628460094FFF720
:104AC00003F82046BDE8F8832DE9FF4782B005468C
:104AD0000E461F464FF0000A2C4654B900BF502026
:104AE00080F31188BFF34F8FBFF36F8F00BF00BFFC
:104AF000FEE70EB9206C08B9012000E0002050B993
:104B000000BF502080F31188BFF34F8FBFF36F8F2A
:104B100000BF00BFFEE700F03BFB08B9049808B9EE
:104B2000012000E0002050B900BF502080F3118820
:104B3000BFF34F8FBFF36F8F00BF00BFFEE700BF13
:104B4000FFF7C4FBD4F83890B9F1000F3DD0D4F88A
:104B50000C8031462046FEF7F5FEDFB9A9F10100D1
:104B6000A063206810B9FFF741FB6060206908B9B5
:104B7000012000E0002010BB04F1100000F026FC32
:104B8000E8B14FF0805040490860BFF34F8FBFF34A
:104B90006F8F14E0C4F80C80606A08B9012000E04F
:104BA000002060B904F1240000F010FC38B14FF08F
:104BB000805035490860BFF34F8FBFF36F8FFFF709
:104BC000AFFB012006B0BDE8F087049818B9FFF7E5
:104BD000A7FB0020F6E7BAF1000F04D16846FFF703
:104BE00057FD4FF0010AFFF79BFBFFF7B3FDFFF7FF
:104BF0006DFB94F94400401C10B9002084F8440077
:104C000094F94500401C10B9002084F84500FFF7D6
:104C100087FB04A9684600F045FA40BB2046FFF731
:104C200057F8F0B1206830B9FFF750FB6068FFF724
:104C3000D7FCFFF775FB04F124000499FFF794FCFF
:104C40002046FFF7F6F900F065FC00287FF478AF06
:104C50004FF080500C490860BFF34F8FBFF36F8F48
:104C60006EE72046FFF7E5F900F054FC68E72046C0
:104C7000FFF7DFF900F04EFC2046FFF729F8002887
:104C8000EED000209EE7000004ED00E070B5054680
:104C90000E462C4654B900BF502080F31188BFF354
:104CA0004F8FBFF36F8F00BF00BFFEE7FFF70EFB14
:104CB000D4E90F12206801FB020060600020A063AD
:104CC0002068A060E06B401E226C216800FB02108F
:104CD000E060FF2084F8440084F845009EB9206914
:104CE00008B9012000E00020A8B904F1100000F08C
:104CF0006DFB80B14FF0805009490860BFF34F8FC2
:104D0000BFF36F8F07E004F11000FFF7A9FA04F179
:104D10002400FFF7A5FAFFF703FB012070BD000098
:104D200004ED00E02DE9FF4383B0064688461D46AA
:104D30004FF00009344654B900BF502080F3118869
:104D4000BFF34F8FBFF36F8F00BF00BFFEE7B8F117
:104D5000000F01D1206C08B9012000E0002050B9FB
:104D600000BF502080F31188BFF34F8FBFF36F8FC8
:104D700000BF00BFFEE7022D02D1E06B012801D188
:104D8000012000E0002050B900BF502080F31188BE
:104D9000BFF34F8FBFF36F8F00BF00BFFEE700F080
:104DA000F7F908B9059808B9012000E0002050B9CA
:104DB00000BF502080F31188BFF34F8FBFF36F8F78
:104DC00000BF00BFFEE700BFFFF780FAA06BE16BFA
:104DD000884201D3022D28D12A4641462046FEF7BB
:104DE000C6FD0746606A08B9012000E0002068B9E6
:104DF00004F1240000F0EAFA88B14FF08050324903
:104E00000860BFF34F8FBFF36F8F08E03FB14FF0E3
:104E100080502D490860BFF34F8FBFF36F8FFFF7AE
:104E20007FFA012007B0BDE8F083059818B9FFF7B5
:104E300077FA0020F6E7B9F1000F04D101A8FFF7D7
:104E400027FC4FF00109FFF76BFAFFF783FCFFF730
:104E50003DFA94F94400401C10B9002084F8440045
:104E600094F94500401C10B9002084F84500FFF774
:104E700057FA05A901A800F015F9F0B92046FEF788
:104E800034FFA0B104F110000599FFF76DFB204637
:104E9000FFF7CFF800F03EFB002895D14FF080508F
:104EA00009490860BFF34F8FBFF36F8F8CE720462F
:104EB000FFF7BFF800F02EFB86E72046FFF7B9F8B2
:104EC00000F028FB0020ADE704ED00E02DE9F05FE5
:104ED00007468A4690461E463C4654B900BF5020BD
:104EE00080F31188BFF34F8FBFF36F8F00BF00BFF8
:104EF000FEE7BAF1000F01D1206C08B9012000E0F3
:104F0000002050B900BF502080F31188BFF34F8FAD
:104F1000BFF36F8F00BF00BFFEE7022E02D1E06B30
:104F2000012801D1012000E0002050B900BF50202D
:104F300080F31188BFF34F8FBFF36F8F00BF00BFA7
:104F4000FEE7FFF765FA00BF5021EFF3118081F310
:104F50001188BFF34F8FBFF36F8F00BF0546A06B63
:104F6000E16B884201D3022E23D194F945B0324639
:104F700051462046FEF7FBFC0BF1010088B9606A40
:104F800008B9012000E0002080B904F1240000F0FD
:104F90001DFA58B1B8F1000F08D00120C8F8000080
:104FA00004E00BF1010040B284F845004FF0010924
:104FB00001E04FF0000900BF85F3118800BF4846AB
:104FC000BDE8F09F2DE9F04706460F46344654B938
:104FD00000BF502080F31188BFF34F8FBFF36F8F56
:104FE00000BF00BFFEE7206C08B9012000E00020F0
:104FF00050B900BF502080F31188BFF34F8FBFF32B
:105000006F8F00BF00BFFEE7206808B9606808B96D
:10501000012000E0002050B900BF502080F311882B
:10502000BFF34F8FBFF36F8F00BF00BFFEE7FFF7E7
:10503000EFF900BF5021EFF3118081F31188BFF326
:105040004F8FBFF36F8F00BF0546D4F83890E06BE9
:1050500048451ED994F945A009F10100A0630AF161
:10506000010070B9606A08B9012000E0002068B949
:1050700004F1240000F0AAF940B13FB101203860EA
:1050800004E00AF1010040B284F845004FF0010845
:1050900001E04FF0000800BF85F3118800BF4046D3
:1050A000BDE8F08770B504460D4654B900BF5020E6
:1050B00080F31188BFF34F8FBFF36F8F00BF00BF26
:1050C000FEE755B900BF502080F31188BFF34F8F22
:1050D000BFF36F8F00BF00BFFEE7FFF7F7F812487E
:1050E00003682868401C08B9002619E00F492068A9
:1050F0000968884204D06068984201D801260FE010
:105100006068181A2968884209D228686168591AA3
:10511000401A28602046FFF7BBFA002600E001266F
:10512000FFF7FEF8304670BD94000020A800002074
:105130002DE9FF4F85B0804689461746DDE912AB61
:10514000B800FEF7B5FF064656B15820FEF7B0FF8F
:1051500004460CB1266304E03046FFF7FFF800E098
:1051600000247CB10020CDE900ABCDE902403A46F5
:1051700049464046089BFEF7BCFC2046FEF722FB52
:10518000012501E04FF0FF35284609B0BDE8F08F5A
:105190000549096809B9012005E00449096809B908
:1051A000022000E0002070479C000020B800002092
:1051B0000149086870470000940000202DE9F04183
:1051C0004FF0000844480068002877D14348006841
:1051D000451C4248056015BB41480068006808B995
:1051E000012000E0002050B900BF502080F311885A
:1051F000BFF34F8FBFF36F8F00BF00BFFEE738488C
:1052000007683848006836490860364807603648FD
:105210000068401C34490860FEF75EFE00BF33485A
:10522000006885423CD300BF2D480068006808B97B
:10523000012000E0002020B14FF0FF302B49086032
:105240002DE027480068C068C4686668B54202D28D
:105250002648066023E0201DFEF7EEFFA06A18B185
:1052600004F11800FEF7E8FF94F82C1001208840A4
:105270001F49096808431E490860E16A01EB810182
:105280001C4A02EB8100211DFFF714F81A49E06A5D
:105290000968C96A8842C7D34FF00108C4E700BF54
:1052A00015480068C06A00EB8000124951F82000E0
:1052B000012801D94FF0010805E0FFE70F48006819
:1052C000401C0E4908600E48006808B14FF0010804
:1052D0004046BDE8F0810000B800002094000020A6
:1052E0008400002088000020A8000020B0000020DA
:1052F00098000020B806002080000020A0000020B8
:10530000A400002070B505462C460026002D55D07F
:105310002B480068844201D1012000E0002050B9F0
:1053200000BF502080F31188BFF34F8FBFF36F8F02
:1053300000BF00BFFEE7E06C50B900BF502080F313
:105340001188BFF34F8FBFF36F8F00BF00BFFEE721
:10535000E06C401EE064A16CE06A88422ED0E06CF4
:1053600060BB201DFEF768FF78B9E06A00EB8000A3
:10537000144951F8200040B994F82C1001208840BD
:1053800011490968814310480160A06CE062E06A3D
:10539000C0F10500A06194F82C10012088400A4952
:1053A0000968084308490860E16A01EB8101054A80
:1053B00002EB8100211DFEF77DFF0126304670BD06
:1053C00080000020B80600209800002070B5064636
:1053D000F068C46854B900BF502080F31188BFF34F
:1053E0004F8FBFF36F8F00BF00BFFEE704F11800BF
:1053F000FEF722FF15480068A8B9201DFEF71CFF24
:1054000094F82C100120884011490968084310497C
:105410000860E16A01EB81010E4A02EB8100211D67
:10542000FEF748FF04E004F118010B48FEF742FFC5
:105430000A49E06A0968C96A884204D9012501203D
:105440000749086000E00025284670BDB80000202C
:1054500098000020B80600204407002080000020AB
:10546000A40000202DE9F04105460F4624480068BD
:1054700008B1012000E0002050B900BF502080F3A7
:105480001188BFF34F8FBFF36F8F00BF00BFFEE7E0
:1054900047F000402860EC6854B900BF502080F30A
:1054A0001188BFF34F8FBFF36F8F00BF00BFFEE7C0
:1054B0002846FEF7C1FE201DFEF7BEFE94F82C1014
:1054C000012088400F49096808430E490860E16AD5
:1054D00001EB81010C4A02EB8100211DFEF7EAFE7F
:1054E0000A49E06A0968C96A884204D9012601208C
:1054F0000749086000E000263046BDE8F081000062
:10550000B800002098000020B8060020800000208D
:10551000A400002070B5002400263648006850B969
:1055200000BF502080F31188BFF34F8FBFF36F8F00
:1055300000BF00BFFEE7FEF7C9FE2E480068401E10
:105540002C4908600846006800284FD12A480068A6
:1055500000284BD024E02948C068C46804F1180032
:10556000FEF76AFE201DFEF767FE94F82C1001205E
:10557000884023490968084321490860E16A01EB32
:105580008101204A02EB8100211DFEF793FE1E4996
:10559000E06A0968C96A884202D301201B49086091
:1055A0001648006808B9012000E000200028D2D089
:1055B0000CB1FEF791FC1648056865B100BFFFF716
:1055C000FDFD10B10120114908606D1E002DF6D1BE
:1055D00000200F4908600D48006838B101263007E7
:1055E0000C490860BFF34F8FBFF36F8FFEF798FE33
:1055F000304670BDB8000020900000204407002015
:1056000098000020B806002080000020A4000020A0
:10561000A000002004ED00E01CB50024FEF72EF9E8
:105620000E48006858B10E48022100234FF48272E0
:10563000CDE900100BA10D48FFF77AFD044654B9DF
:1056400000BF502080F31188BFF34F8FBFF36F8FDF
:1056500000BF00BFFEE720461CBD0000C4000020C4
:10566000C8000020546D7220537663001940000872
:105670002DE9FE4304460D4616461F46DDF82880F8
:105680004FF0000954B900BF502080F31188BFF3D8
:105690004F8FBFF36F8F00BF00BFFEE71448006855
:1056A00010B3009501960294062D15DAFFF770FDF0
:1056B000022808D10023424669460D480068FFF7DA
:1056C00031FB814610E000231A466946084800680D
:1056D000FFF728FB814607E000233A466946044865
:1056E0000068FFF7F3FB81464846BDE8FE830000F3
:1056F000C4000020000000000000000000000000C6
:1057000000000000000000F800000000000000336E
:105710003000000000160E00160E00000000000011
:105720000000000040C07840C0784000043F0404FE
:105730003F040400007088FC08300000001820FFBF
:10574000211E0000F008F000E018000000211C03FA
:105750001E211E0000F00888700000001E21232476
:1057600019272110000000160E00000000000000A4
:1057700000000000000000E0180402000000000724
:105780001820400000020418E0000000004020182B
:1057900007000000404080F0804040000202010FFE
:1057A00001020200000000F0000000000101011FE2
:1057B00001010100000000000000000000B07000C6
:1057C00000000000000000000000000000010101D6
:1057D0000101010100000000000000000030300065
:1057E000000000000000000080601804006018063F
:1057F0000100000000E010080810E000000F102079
:1058000020100F00001010F8000000000020203FC2
:10581000202000000070080808887000003028244C
:1058200022213000003008888848300000182020ED
:1058300020110E000000C02010F800000007042412
:10584000243F240000F80888880808000019212057
:1058500020110E0000E0108888180000000F1120B1
:1058600020110E0000380808C83808000000003F6A
:10587000000000000070880808887000001C2221C9
:1058800021221C0000E010080810E0000000312276
:1058900022110F00000000C0C00000000000003016
:1058A00030000000000000C0C0000000000080B018
:1058B0007000000000008040201008000001020479
:1058C00008102000404040404040400004040404D0
:1058D000040404000008102040800000002010088C
:1058E00004020100007048080808F00000000030C1
:1058F00036010000C030C828E810E000071827244F
:1059000023140B000000C038E0000000203C2302FC
:105910000227382008F8888888700000203F20205F
:1059200020110E00C0300808080838000718202091
:105930002010080008F808080810E000203F202088
:1059400020100F0008F88888E8081000203F202069
:105950002320180008F88888E8081000203F20005D
:1059600003000000C0300808083800000718202095
:10597000221E020008F808000008F808203F210154
:1059800001213F20000808F8080800000020203FFF
:105990002020000000000808F8080800C08080806F
:1059A0007F00000008F888C028180800203F200168
:1059B0002638200008F8080000000000203F2020C2
:1059C0002020300008F8F800F8F80800203F003FD9
:1059D000003F200008F830C00008F808203F2000F1
:1059E00007183F00E01008080810E0000F10202002
:1059F00020100F0008F808080808F000203F2101D7
:105A000001010000E01008080810E0000F1824242D
:105A100038504F0008F8888888887000203F2000A0
:105A2000030C302000708808080838000038202156
:105A300021221C00180808F8080818000000203F60
:105A40002000000008F808000008F808001F2020C7
:105A500020201F000878880000C838080000073898
:105A60000E010000F80800F80008F800033C0700E9
:105A7000073C0300081868808068180820302C0351
:105A8000032C30200838C800C83808000000203F28
:105A90002000000010080808C83808002038262117
:105AA00020201800000000FE020202000000007F1B
:105AB00040404000000C30C0000000000000000129
:105AC0000638C00000020202FE0000000040404014
:105AD0007F000000002010080408102000000000D3
