:020000040800F2
:10000000D0370120590200080B200008191D0008F4
:1000100007200008050E00088533000800000000D6
:10002000000000000000000000000000A101000826
:10003000090E000800000000F50100082929000849
:1000400073020008730200087302000873020008BC
:1000500073020008730200087302000873020008AC
:10006000730200087302000873020008730200089C
:10007000730200087302000873020008730200088C
:10008000730200087302000873020008730200087C
:100090007302000873020008730200085D1900086B
:1000A000730200087302000873020008730200085C
:1000B000730200087302000873020008730200084C
:1000C000730200087302000873020008730200083C
:1000D00073020008652D0008092E0008992E0008FB
:1000E000730200087302000873020008730200081C
:1000F0007302000873020008092B0008730200084D
:100100007302000873020008E92A0008730200085D
:1001100073020008730200087302000873020008EB
:1001200073020008730200087302000873020008DB
:1001300073020008730200087302000873020008CB
:1001400073020008730200087302000873020008BB
:1001500073020008730200087302000873020008AB
:10016000730200087302000873020008730200089B
:10017000730200087302000873020008730200088B
:100180007302000873020008DFF810D000F056FC7C
:1001900000480047AD3E0008AFF30080D037012093
:1001A0002A4B19680868B0E8F04F80F30988BFF35C
:1001B0006F8F4FF0000080F311887047000000003F
:1001C00006480068006880F3088862B661B6BFF32D
:1001D0004F8FBFF36F8F00DF00BF00BF08ED00E05F
:1001E000DFF80C00016841F470010160704700BF46
:1001F00088ED00E0EFF30980BFF36F8F134B1A68AF
:100200001EF0100F08BF20ED108A20E9F04F10609B
:1002100008B44FF0500080F31188BFF34F8FBFF345
:100220006F8F05F05BF84FF0000080F3118808BC79
:1002300019680868B0E8F04F1EF0100F08BFB0EC66
:10024000108A80F30988BFF36F8F704790000020F9
:10025000EFF30580704700000648804706480047D6
:10026000FEE7FEE7FEE7FEE7FEE7FEE7FEE7FEE766
:10027000FEE7FEE75D2900088901000840EA010366
:100280009B0703D009E008C9121F08C0042AFAD24C
:1002900003E011F8013B00F8013B521EF9D2704710
:1002A000D2B201E000F8012B491EFBD270470022B8
:1002B000F6E710B513460A4604461946FFF7F0FF65
:1002C000204610BD30B505462A460B4612F8010BF4
:1002D00013F8014B08B1A042F8D01CB1002802D09D
:1002E0006D1CF1E7284630BD10B5002200E0521C1D
:1002F000835C8C5CA34201D1002BF8D1D8B2E1B26F
:10030000401A10BD034611F8012B00F8012B002AFA
:10031000F9D11846704700000FB400B58DB010A990
:1003200009900B9000914FF0FF300A9000200C9044
:1003300005480690054807906A4609A80F9900F0FD
:10034000D9FA0DB05DF814FB110900082F09000857
:100350002DE9FF5F1D464FF0FF3BD5E90146914671
:100360005F464FF00008A9697F1C01988847296AF9
:10037000824688470028F6D1BAF1FF3F0CD024F41A
:10038000C064002E19DD600614D5BAF12B0F09D018
:10039000BAF12D0F0ED103E0584604B0BDE8F09F2E
:1003A00044F48064A9697F1C01988847761E8246C0
:1003B000002E02DDBAF1300F03D0B9F1000F26D0C4
:1003C00032E0A969761E44F400747F1C01988847C6
:1003D0008246002E05DDBAF1780F06D0BAF1580F2B
:1003E00003D0B9F1000F10D01EE0B9F1000F02D018
:1003F000B9F1100F18D1A969761E24F400747F1C7E
:10040000019888478246102002E0082000E00A2078
:10041000814609E008FB0908A969761E44F40074C6
:100420007F1C019888478246002E05DD49465046CC
:1004300000F04CFA0028EDDAE96901988847A00538
:1004400002D46FF00100A8E7E00725D1600613D5BC
:10045000600502D5C8F1000000E0404629680A1D89
:100460002A600968220501D5087015E0220701D528
:10047000088011E008600FE02868011D296000680D
:10048000210502D580F8008006E0210702D5A0F8FA
:10049000008001E0C0F8008038467EE72DE9FE4F7D
:1004A000804681EA0300C00F0C46009021F0004115
:1004B00023F00045B8EB0200A94105D24046214691
:1004C00090461C460B46024623F00040104347D09E
:1004D000270DC7F30A00C3F30A510290401A019096
:1004E00040286BDAC3F3130040F4801B0098924657
:1004F00020B10023D2EB030A63EB0B0B01985946A2
:10050000C0F14002504600F0B0F906460D46504694
:100510005946019A00F0C8F910EB08006141002427
:1005200087EA115284EAE7731A4340D0009A62B313
:10053000019A012A4FEA075215DC001B61EB020108
:100540004FF0004202EA0752CDE90042001C41F59B
:10055000801132462B4600F00AFA03B0BDE8F08F56
:1005600040462146F9E7001B61EB0201001C41F502
:10057000801300185B412018A2F5001747EB030118
:1005800040EAD570B6196D4111E06D084FEA3606A4
:1005900045EAC0754FEA0752001B61EB0201001CDF
:1005A00041F5801149084FEA3000001951413246A7
:1005B0002B4603B0BDE8F04F00F0CAB90098012205
:1005C00040000023D0EB020263EBE0730098214669
:1005D0004FEAE074B8EB000061EB0401E9E783F057
:1005E00000435BE781F0004158E72DE9FE4F81EAC7
:1005F000030404F0004421F0004100944FF0000B8C
:1006000023F0004350EA01045ED052EA03045BD0B9
:10061000C3F30A54C1F30A552C44A4F2F3340194F1
:10062000A0FB0254C1F3130141F48011C3F313037F
:1006300043F4801301FB024400FB034E840A970A33
:1006400044EA815447EA8357A4FB076802958D0A60
:1006500005FB07854FEA932C04FB0C542705029DEC
:100660004FEA065847EA1637B5EB08056EEB070C5C
:10067000870E920E47EA811742EA8312A7FB020116
:10068000B6EB0B0164EB00042B0D43EA0C335E1850
:1006900044EB1C50DA465146E7FB0201C5F3130454
:1006A0004FEA0B3343EA14534FEA0432019C43EA06
:1006B0000603A4F10C040294009CCDE900B400F000
:1006C00056F903B0BDE8F08F00200146F9E72DE9A7
:1006D000F04D81EA030404F0004B21F0004514467C
:1006E0004FF0000A23F0004150EA050220D054EAFE
:1006F00001021DD0C5F30A570246C5F31303C1F327
:100700001300C1F30A5640F4801543F48013A7EB9D
:100710000608101BD64608F2FD3873EB050002D31D
:1007200008F1010801E092185B41B8F1000F03DA0B
:1007300000200146BDE8F08D00204FF480110646F0
:1007400084460EE0171B73EB050705D3121B63EB02
:10075000050306434CEA010C49084FEA30009218A1
:100760005B4150EA0107EDD152EA030012D082EA60
:10077000040083EA0501084305D0101BAB4106D2F3
:100780000122002306E000224FF0004302E06FF058
:10079000010253101AEB06004CEB085110EB0A0053
:1007A00041EB0B01BDE8F04D00F0D2B830B5041EAE
:1007B00071F1000404DB4FF00044404264EB01019E
:1007C000141E73F1000405DB1C464FF00043524237
:1007D00063EB0403994208BF904230BD30B50B462D
:1007E000014600202022012409E021FA02F59D4261
:1007F00005D303FA02F5491B04FA02F52844151E35
:10080000A2F10102F1DC30BD2DE9F05F05460020C8
:1008100092469B4688460646814640241BE0284671
:1008200041464746224600F02FF853465A46C01A22
:10083000914110D311461846224600F016F82D1AA1
:1008400067EB01084F4622460120002100F00DF819
:1008500017EB00094E41201EA4F10104DFDC4846DD
:1008600031462A464346BDE8F09F202A04DB203A61
:1008700000FA02F1002070479140C2F1200320FAF3
:1008800003F3194390407047202A04DB203A21FAF1
:1008900002F00021704721FA02F3D040C2F1200299
:1008A0009140084319467047202A06DBCB17203AAF
:1008B00041FA02F043EAE07306E041FA02F3D04065
:1008C000C2F1200291400843194670473A2800D2ED
:1008D000303820F02002412A01D3A2F137008842AB
:1008E00001D34FF0FF307047026811441378016064
:1008F00018467047D16004495161044911620021D2
:100900001161114600F0B2B8E9080008610A000858
:10091000426842B1016811F8013B23B1521EC0E99F
:100920000012184670470121C160881E7047426856
:100930005AB1C368016843B983688B4205D0491E28
:10094000521CC0E90012002070474FF0FF30704782
:1009500010B5141E73F1000408DA401C41F10001C7
:1009600092185B411A4301D120F0010010BD2DE91E
:10097000F04D92469B4611B1B1FA81F202E0B0FA15
:1009800080F220329046FFF770FF04460F4640EA9F
:100990000A0041EA0B0153465A46084313D0114658
:1009A00053EA010019D0C8F140025046FFF76CFF2E
:1009B00005460E46504659464246FFF756FF084345
:1009C00005D0012004E020463946BDE8F08D002026
:1009D000054346EAE0762C4337430A986305E40A68
:1009E000A0EB08000022FD0A44EA47540A3002D571
:1009F00000200146E9E7010510196941DDE90845D4
:100A000000196941BDE8F04DA2E7C1F30A52C1F3F4
:100A1000130140F2FF3341F480119A4202DA0020C0
:100A20000146704740F233439A42A2F2334202DC5D
:100A30005242FFF729BFFFF718BF0000064C074DD1
:100A400006E0E06840F0010394E80700984710349E
:100A5000AC42F6D3FFF79CFB88740008A87400082A
:100A6000C0B24FF4F05100F099B900002DE9F34FF6
:100A70008BB04FF0000801F10C000C464FF0010B59
:100A800046460DF1080A01906269012101989047DC
:100A9000051E2DD0252D2CD0216A8847C0B1626952
:100AA000012101989047216A88470028F7D1411E0B
:100AB00062690198904700E0761CA1690B9888470D
:100AC000216A88470028F7D1E1690B988847DBE75E
:100AD000A1690B9888470746A84201D1761CD3E745
:100AE000E1690B9888477F1C02D1B8F1000F6FD0E5
:100AF00047E1002762693D463946019890472A2818
:100B000004D162690121019890470125DFF888929C
:100B10006269012101989047A0F130010A290AD2A7
:100B20004F45E5DC07EB870100EB4107303FDFD4A1
:100B300045F01005ECE7E90601D46FF000476C289A
:100B40000AD04C2814D0682815D06A280DD07428F3
:100B50001CD07A281AD01DE06269012101989047C3
:100B60006C2802D045F0040514E045F002050DE0C4
:100B700045F020050AE06269012101989047682844
:100B800002D045F0080505E045F4006562690121E1
:100B900001989047C4E9015765283DD019DC5828D1
:100BA0007AD00CDC452837D004DC252826D0412813
:100BB00031D131E046282FD047282CD12CE05B28BA
:100BC00077D0612828D063287CD0642823D15AE0CC
:100BD000D1E06F2848D008DC66281DD067281BD0DC
:100BE000692821D06E2816D127E0702845D07328B7
:100BF00068D0752847D078280DD14DE0A1690B98B1
:100C00008847054625283FF469AFE1690B98884776
:100C10006D1C3FF46AAFB4E023466A466FF00100F2
:100C20000B99AFF300809FE045F040006060A8079B
:100C300023464FF0000236D43EE0E8077FF447AF8A
:100C40002068011D21600068290501D506701BE799
:100C5000290701D5068017E7A90703D5F117C0E9D1
:100C6000006111E706600FE745F040006060A807EB
:100C700023464FF0080216D41EE040F60E0125EA86
:100C80000100606016E045F040006060A807234660
:100C90004FF00A0207D40FE045F040006060A8075B
:100CA00008D5234610226FF001000B99AFF30080A6
:100CB0005AE007E0234610226FF001000B99FFF77E
:100CC00047FB51E04FF000094F464B46632802D0E6
:100CD0005B2807D041E02079C00601D40120A06044
:100CE00001273AE062690121019890475E2805D109
:100CF0004FF001096269494601989047216939B965
:100D000000210A46534643F82120491C0829FADBF2
:100D1000B0B3216969B9C11700EBD16253110AEB75
:100D2000830122F01F02821A01200B6890400343C6
:100D30000B6062690121019890475D28E8D1B9F103
:100D4000000F09D00020514651F82020D24341F82D
:100D50002020401C0828F7DB02AB224600976FF0EA
:100D600001000B99AFF3008000280CDA401C08D179
:100D7000BBF1000F05D04FF0FF300DB0BDE8F08F94
:100D8000FFE74046F9E7E90701D108F10108064409
:100D90004FF0000B78E60000CCCCCC0C7F2801D9BA
:100DA000002208E0064A02EB5002C007127800D188
:100DB000120902F00F020120904008407047000025
:100DC000487400081CB50121202001F093FC4FF469
:100DD0008070009001208DF8040003208DF805003C
:100DE00000208DF807008DF806006946034800F0E2
:100DF000F1FD0020024908601CBD00000014024003
:100E0000A082424200BFFEE77047000070B5044672
:100E100004F07AFF012810D00B480088844206D3E2
:100E200009480088B4FBF0F5284604F025F9064887
:100E30000088B4FBF0F100FB11444FF47A7104FB1D
:100E400001F000F003F870BD640000202DE9F047C8
:100E500007460026B0464FF0E020D0F81490164820
:100E600000681649B0FBF1F000FB07FA4FF0E020F4
:100E7000856904F02BFA19E04FF0E0208469AC4258
:100E80000CD0AC4202D2281B064403E0A9EB0400BC
:100E9000284406442546564500D308E04FF0E0209C
:100EA000D0F8108008F0010000B900E0E4E700BFCE
:100EB00005F0ECF8BDE8F0871800002040420F0074
:100EC0002DE9F04105460C462E460A4F03E001206D
:100ED000FFF79CFF641E31463846FFF7F3F908B967
:100EE000002CF4DC002C02DD0020BDE8F0814FF086
:100EF000FF30FAE73C05002070B5A0B004460D466F
:100F000015A000F0C9FC41F2883117A0FFF7D8FF07
:100F1000401C18B94FF0FF3020B070BD4FF4FA708C
:100F2000FFF774FF2B46224610A1684602F03CFAF8
:100F3000064641F2883113A0FFF7C2FF401C48B9B2
:100F400041F2883108A0FFF7BBFF401C10B94FF0F9
:100F5000FF30E1E70020DFE741542B43574D4F447A
:100F6000453D310D0A0000004F4B000041542B431A
:100F7000574A41503D222573222C222573220D0A07
:100F8000000000005749464920474F54204950006F
:100F900030B5A1B00446802101A8FFF788F90025EB
:100FA0004CF2513219A11DA000F0A4F80546002D05
:100FB00006DA1BA002F0E8F94FF0FF3021B030BD97
:100FC0001FA002F0E1F94FF4FA70FFF71FFF00F0E5
:100FD0006DFA0546002D05DA23A002F0D5F94FF091
:100FE000FF30EBE72CA002F0CFF94FF4FA70FFF7D7
:100FF0000DFF224635A101A802F0D6F901A800F0A4
:1010000065FC34A002F0C0F90020D7E7382E313358
:10101000342E3132312E353500000000544350005B
:10102000455350383236365F436F6E6E6563745386
:101030006572766572206572726F72210D0A00000A
:1010400030313A20455350383236365F436F6E6E3A
:101050006563745365727665722073756363657337
:1010600073210D0A00000000455350383236365FB8
:10107000456E7465725472616E73706172656E74E0
:101080005472616E736D697373696F6E20657272ED
:101090006F72210D0A00000030323A20455350385B
:1010A0003236365F456E7465725472616E7370616C
:1010B00072656E745472616E736D697373696F6E6D
:1010C0002073756363657373210D0A00237265676E
:1010D0002025730030323A20455350383236365F7F
:1010E00053656E644D736720737563636573732115
:1010F0000D0A00007FB505460C46164600200090FC
:101100000190029003901DA000F0C6FB1FA000F00C
:10111000C3FB284600F0C0FB1CA000F0BDFB1CA0D8
:1011200000F0BAFB19A000F0B7FB204600F0B4FBBA
:1011300016A000F0B1FB16A000F0AEFB324615A1E0
:10114000684602F031F9684600F0A6FB12A000F0F4
:10115000A3FB41F2883111A0FFF7B2FE401C50B949
:1011600041F288310FA0FFF7ABFE401C18B94FF0D9
:10117000FF3004B070BD0020FBE7000041542B435A
:10118000495053544152543D0000000022000000D9
:101190002C000000256400000D0A0000434F4E4E55
:1011A000454354004F4B0000002400BF43A002F011
:1011B000EBF882E000214A48006804F0D5F80546C3
:1011C00005F0200090B147A002F0DEF841F288302F
:1011D00003F052FF20214248006804F0C5F8402186
:1011E0003F48006804F0FBF8002466E005F040008A
:1011F00038B148A002F0C8F807213948006804F067
:10120000B3F805F00100002822D149A002F0BCF893
:1012100000F090F948B94EA002F0B6F8012130482C
:10122000006804F0DCF8002443E0601CC4B2032230
:1012300021464FA002F0A8F8032C04DB2021284807
:10124000006804F0CCF840F6B83003F015FF30E049
:1012500005F0020000282CD14CA002F095F854A013
:10126000FFF796FE80B954A002F08EF84FF47A7022
:1012700003F002FF0E211A48006804F0B0F80024C1
:1012800056A002F081F811E0601CC4B2032221468E
:101290005DA002F079F8032C04DB202110480068DF
:1012A00004F09DF841F2883003F0E6FE5FA002F002
:1012B0006BF8642003F0E0FE00BF7BE74553503835
:1012C00032363620636F6E6E656374207461736BA3
:1012D000207374617274202E2E2E200D0A000000DF
:1012E00000000020455350383236363A206572727D
:1012F0006F72207374617475732C207265747279C7
:10130000206166746572203573202E2E2E200D0A02
:1013100000000000455350383236363A2062656787
:10132000696E207265747279202E2E2E200D0A00AF
:10133000455350383236363A20626567696E206C04
:10134000696E6B2057694669202E2E2E200D0A00EB
:10135000455350383236363A2057694669E8BF9EC1
:10136000E68EA5E68890E58A9F21200D0A00000000
:10137000455350383236363A206C696E6B206572B0
:10138000726F722025642F25640D0A004553503872
:101390003236363A20626567696E206C696E6B2062
:1013A000736572766572202E2E2E200D0A000000C5
:1013B00073746D3332000000455350383236363A7C
:1013C00020736572766572206C696E6B207375632D
:1013D0006365737321200D0A0000000045535038E7
:1013E0003236363A2073797374656D2072656164A4
:1013F000792C2063616E2073656E64206D65737354
:1014000061676521200D0A00455350383236363A5F
:1014100020736572766572206C696E6B20657272DE
:101420006F722025642F25640D0A00004553503843
:101430003236363A20436F6E6E656374696F6E2084
:101440007375636365737366756C2E2053656E6484
:10145000696E672066697273742068656172746270
:101460006561742E0D0A000010B50446012C03D1ED
:1014700009A000F011FA02E009A000F00DFA41F213
:10148000883109A0FFF71CFD401C10B94FF0FF3058
:1014900010BD0020FCE70000415445310D0A00005A
:1014A000415445300D0A00004F4B000010B50FA00D
:1014B00000F0F2F941F2883110A0FFF701FD401C65
:1014C00010B94FF0FF3010BD0DA000F0E5F941F26A
:1014D00088310AA0FFF7F4FC401C10B96FF002003D
:1014E000F1E701200A4908700020ECE741542B4342
:1014F00049504D4F44453D310D0A00004F4B00000F
:1015000041542B43495053454E440D0A00000000FE
:101510004400002010B505A000F0BEF94FF4FA70A9
:10152000FFF774FC00200249087010BD2B2B2B0024
:101530004400002010B50024FFF7ECFF0446002C07
:1015400005DA24A001F020FF4FF0FF3010BD2DA0E0
:1015500001F01AFF4FF4FA70FFF758FC00F084F91D
:101560000446002C05DA33A001F00EFF6FF00100F5
:10157000ECE736A001F008FF4FF4FA70FFF746FCE5
:101580000020FFF771FF0446002C05DA35A001F0BA
:10159000FBFE6FF00200D9E738A001F0F5FE4FF432
:1015A000FA70FFF733FC3DA140A0FFF7A5FC04460D
:1015B000002C05DA3EA001F0E7FE6FF00200C5E75F
:1015C00042A001F0E1FE4FF4FA70FFF71FFC00208B
:1015D000BCE70000455350383236365F45786974B1
:1015E0005472616E73706172656E745472616E7361
:1015F0006D697373696F6E206572726F72210D0A67
:1016000000000000455350383236365F4578697423
:101610005472616E73706172656E745472616E7330
:101620006D697373696F6E2073756363657373217E
:101630000D0A0000455350383236365F527374201D
:101640006572726F72210D0A000000004553503818
:101650003236365F5273742073756363657373211A
:101660000D0A0000455350383236365F456E4563EB
:10167000686F206572726F72210D0A0030333A2054
:10168000455350383236365F456E4563686F207378
:10169000756363657373210D0A00000031313232C6
:1016A000333435353636373800000000616A6C0057
:1016B000455350383236365F436F6E6E6563744102
:1016C00070206572726F72210D0A000030343A206A
:1016D000455350383236365F436F6E6E65637441E2
:1016E000702073756363657373210D0A0000000039
:1016F000A2B05BE02E480078012854D12D48007834
:10170000012850D103F09EFB2B492CA001F03CFE98
:10171000294902A8FEF7F6FD8021274801F0B6FD11
:1017200000202449087003F0B7FB0A2228A102A870
:1017300000F056FC38B929A001F026FE80212E4881
:10174000006803F04CFE2DA102A8FEF7BBFD10B10E
:1017500001202D4908702DA102A8FEF7B3FD10B19C
:101760000020294908702CA102A8FEF7ABFDD0B1DA
:101770002AA102A8FEF7A6FDA8B1002001900090C2
:101780006B4601AA27A102A8FEF7C6FD022806D1D2
:1017900027490198086027490098086002E026A0C0
:1017A00001F0F2FD00BF642003F066FCA2E7000038
:1017B000440000206A0000203C05002075335F7261
:1017C000656376627566203D3D2025730D0A000035
:1017D0002368656172746265617400007265636597
:1017E0006976652068656172742062656174206540
:1017F00063686F0D0A000000000000206D6F746FB9
:10180000725F6F6E00000000600000206D6F746FEB
:10181000725F6F666600000075700000646F776E1F
:101820000000000075702564646F776E2564000009
:101830003C00002040000020E695B0E68DAEE6A01A
:10184000BCE5BC8FE4B88DE6ADA3E7A1AEEFBC8CE0
:10185000E697A0E6B395E68F90E58F96E695B0E51E
:1018600080BC5C6E0000000010B507A000F014F80A
:1018700041F2883107A0FFF723FB401C10B94FF05D
:10188000FF3010BD0020FCE741542B5253540D0A89
:10189000000000004F4B000010B5044680210748AF
:1018A00001F0F4FC0020064908800649087006494A
:1018B0000880204601F032FB10BD00003C050020EE
:1018C000680000206A0000206C00002010B504466B
:1018D0008021074801F0DAFC00200649088006490B
:1018E000087006490880204601F018FB10BD000072
:1018F0003C050020680000206A0000206C000020E9
:1019000016E000210B48006803F02EFD044604F0A9
:10191000040040B104F0100028B907A001F034FD24
:10192000002002F0AFF94FF4FA6003F0A5FB00BF0E
:10193000E7E7000000000020455350383236363AC1
:1019400020626567696E2073656E64206D657373D0
:10195000616765202E2E2E200D0A000008B500209C
:1019600000904FF4807000F023F801280BD10B4851
:10197000006820B169460948006804F0DFF84FF4B8
:10198000807000F00FF8009838B14FF08050044993
:101990000860BFF34F8FBFF36F8F08BD5400002066
:1019A00004ED00E00149086070470000143C01406C
:1019B00001460020034A12680A400AB1012000E0F3
:1019C00000207047143C014010B50446204601F049
:1019D000FFFB10BDF0B50A4600210023002400BF24
:1019E0003DE0012505FA01F3156805EA03049C4270
:1019F00034D105684F000326BE40B5430560157914
:101A00004E00B5400668354305601579012D02D0BA
:101A10001579022D16D185684F000326BE40B543C7
:101A2000856055794E00B5408668354385604568C8
:101A300001268E40B5434560456896798E40B6B222
:101A400035434560C5684F000326BE40B543C560B9
:101A5000D5794E00B540C6683543C560491C10298C
:101A6000BFD3F0BDF0B5002300244D07ED0E02FA00
:101A700005F3CE1000F1200555F826504E07F70E5D
:101A80000F26BE40B543CF1000F1200646F8275080
:101A9000CE1000F1200555F8265045EA0304CE107B
:101AA00000F1200545F82640F0BD000070B5002586
:101AB0000024002600202849087028490860284989
:101AC0000860284908600520FFF7C0F90120264971
:101AD000C1F89C020F20FFF7B9F900202249C1F894
:101AE0009C022248066809E020480068801B4EF6E8
:101AF0006021884202D94FF0FF3070BD164800784F
:101B00000028F1D01648006814490968884205D3B6
:101B10001348006811490968451A08E00F48006831
:101B20004FF6FF71081A0E4909680844451C05EB79
:101B3000850040F2231101EB400040F24721B0FB49
:101B4000F1F4022C02D3B4F5C87F02D94FF0FF3074
:101B5000D3E72046D1E70000340000202C0000200D
:101B6000300000209C824142008041422404014018
:101B70001CB50121082000F0BDFD01208DF80400F6
:101B800003208DF805008020009000208DF80600CD
:101B900069460348FFF71EFF00F004F81CBD000073
:101BA000000C024000B589B00121022000F0C2FD06
:101BB0000121042000F09EFD02208DF820008DF808
:101BC00023004020079007A93548FFF703FF0322B1
:101BD00006213348FFF746FF4FF6FF700590A72018
:101BE000ADF810000020ADF81800ADF8120004A9FF
:101BF0002C4801F075F80020ADF804000F20ADF876
:101C00000C000020ADF80600ADF80A000120ADF888
:101C1000080001A9234800F0E5FF0420ADF8040006
:101C20000F20ADF80C000220ADF806000020ADF842
:101C30000A000220ADF8080001A91A4800F0D2FFFE
:101C400001220021174800F095FF012204211548C8
:101C500000F090FF01220221124800F0FAFF012259
:101C60000421104800F0F5FF2E208DF80000002020
:101C70008DF8010001208DF802008DF80300684600
:101C800000F0C4F95021074800F0ECFF0521054899
:101C900000F0F1FF0121034800F081FF09B000BD11
:101CA0000008024000040140002422E0FFF7FEFE8D
:101CB0000446601CC8B1C4F164000E4908600846BF
:101CC00000680D490968884202D201200B4908705A
:101CD000084800680A490968884202D90020074973
:101CE0000870214607A001F04FFB4FF47A7003F013
:101CF000C3F9DBE73800002040000020600000202E
:101D00003C00002064697374616E63653A20256449
:101D100020636D0D0A00000000BFFEE710B500F063
:101D20003DF84FF4407000F0ADF902F05BF801F0BF
:101D3000D1FA01F0F5F900F019F9FFF743F800F0D6
:101D400098FAFFF715FF4FF4E130FFF73DFE02F080
:101D500043FA10BD10B502F03DF80446012C06D040
:101D6000022C05D0032C04D0042C0FD107E00EE088
:101D70000DE008480078401C0649087007E0054857
:101D800000780549087000F087F900E000BF00BF47
:101D900010BD00005B0000205F0000201FB5012186
:101DA000082000F0B7FC0020ADF80C00ADF80600EC
:101DB0006320029042F2CF00ADF8040001A9104860
:101DC00000F08EFF012211460D4800F042FF012174
:101DD0000B4800F0DEFE32208DF8000001208DF867
:101DE000030005208DF8010000208DF802006846F0
:101DF00000F00CF90121024800F0D1FE1FBD0000E7
:101E0000000C004010B515A22021002000F010FBAE
:101E1000082315A23021002000F004FC14480078AB
:101E2000012802D002280ED106E0102340222021F2
:101E3000002000F075FA0AE010232822302100204B
:101E400000F06EFA03E001200949087000BF00BFEE
:101E500000F006FCFFF77EFF10BD0000B5E7BBFAFF
:101E6000CAD6B6AF0000000048432D303500000050
:101E70005B00002010B501F0ADFF0446012C06D038
:101E8000022C17D0032C28D0042C32D12BE01A4876
:101E90000078012804D119480068401D17490860DE
:101EA00015480078022804D115480068401D1449DF
:101EB00008601FE010480078012804D10F4800682E
:101EC000401F0E4908600C480078022804D10C48D5
:101ED0000068401F0A4908600CE007480078401C71
:101EE0000549087006E000200649087000F0D4F8A3
:101EF00000E000BF00BF10BD5C0000203C000020DF
:101F0000400000205F00002010B501F063FF044690
:101F1000012C06D0022C0ED0032C16D0042C1DD17F
:101F200014E001200F490870282308221146502090
:101F300000F0CAF813E000200A490870282308229C
:101F40001021502000F0C0F809E008E00020064908
:101F500008700449087000F09FF800E000BF00BF5F
:101F600010BD0000600000205F0000201CB50121B2
:101F7000102000F0BFFB0121202000F0BBFB4FF43C
:101F8000C060009001208DF8040003208DF805004A
:101F900000208DF807008DF8060069460A48FFF713
:101FA00019FD4FF4C040009069460848FFF712FD44
:101FB0000120074908600749C1F8A80206490860DE
:101FC0000649C1F8B8021CBD0014024000100240CE
:101FD000A482424200804242B40242420000424295
:101FE00030B503460C46002100BF08E05856655640
:101FF000A84202D04FF0FF3030BD481C01B29142E0
:10200000F4DB0020F8E700BFFEE7704770B5002161
:1020100000230F22C4781CB3174C246804F4E06436
:10202000C4F5E064C4F30721C1F10404E3B20A413A
:1020300044789C40E1B28478144021430C07210E7F
:102040000E4C05786155047804F01F050124AC405E
:1020500005786D11AD0005F1E025C5F8004109E0F6
:10206000047804F01F050124AC40054D0678761174
:1020700045F8264070BD00000CED00E000E400E0F3
:1020800080E100E002490143024A1160704700000C
:102090000000FA050CED00E010B500200EE0002174
:1020A00008E0002200EB8013064C04EB43035A5473
:1020B0004A1CD1B28229F4DB421CD0B20828EEDBE4
:1020C00010BD0000040100202DE9F04304460D4638
:1020D00016461F4628463CE0224635E0002A31DB02
:1020E000812A2FDC00282DDB3F282BDC4FEAE07C07
:1020F00000EB5C7C4FEAEC0C0CEB8C1CDFF85C809A
:1021000008EB4C0C1CF802C003464FEAE07800EBE9
:1021100058784FEAE808A0EBC8094FF0010808FA20
:1021200009F82CEA080C01464FEAE07800EB5878F1
:102130004FEAE80808EB8818DFF8209009EB480818
:1021400008F802C0511C0AB2A1199142C6DC411C18
:1021500008B2E9198142BFDCBDE8F0830401002028
:102160001CB54FF47A70FEF771FE0121022000F0D9
:10217000C1FA0121082000F0BDFA4FF400400090A0
:1021800001208DF8040000208DF8060001208DF854
:10219000070003208DF8050069460A48FFF71AFC7E
:1021A0004FF48060009001208DF8040069460648D5
:1021B000FFF710FC012000F069FA012000F06CFA32
:1021C0001CBD000000040240000C024070B5054632
:1021D00000241AE080212141294009B1012100E0B9
:1021E0000021084600F058FA0120FEF72FFE0120DA
:1021F00000F04CFA0120FEF729FE002000F046FA1C
:102200000120FEF723FE601CC4B2082CE2DB012093
:1022100000F03CFA0120FEF719FE002000F036FA2B
:102220000120FEF713FE70BD10B5012000F034FA56
:10223000012000F02BFA0120FEF708FE002000F03C
:102240002BFA0120FEF702FE002000F01FFA10BD5D
:1022500010B5002000F020FA012000F017FA01204C
:10226000FEF7F4FD012000F017FA0120FEF7EEFD65
:1022700010BD10B5FFF774FFAE2000F013FAD520A3
:1022800000F010FA802000F00DFAA82000F00AFA01
:102290003F2000F007FAD32000F004FA002000F0FD
:1022A00001FA402000F0FEF9A12000F0FBF9C8205F
:1022B00000F0F8F9DA2000F0F5F9122000F0F2F958
:1022C000812000F0EFF9CF2000F0ECF9D92000F0E8
:1022D000E9F9F12000F0E6F9DB2000F0E3F9302025
:1022E00000F0E0F9A42000F0DDF9A62000F0DAF912
:1022F0008D2000F0D7F9142000F0D4F9AF2000F0C1
:10230000D1F9FFF7C9FE00F0ABF910BD10B50246D8
:10231000012000E050430B1EA1F10101FAD110BDD4
:102320002DE9F04304460D4616461F4628463CE07C
:10233000224635E0002A31DB812A2FDC00282DDB04
:102340003F282BDC01464FEAE07C00EB5C7C4FEA47
:10235000EC0C0CEB8C1CDFF85C8008EB4C0C1CF8D4
:1023600002C003464FEAE07800EB58784FEAE808ED
:10237000A0EBC8094FF0010808FA09F88CEA080C2C
:102380004FEAE07800EB58784FEAE80808EB881845
:10239000DFF8209009EB480808F802C0511C0AB287
:1023A000A1199142C6DC411C08B2E9198142BFDC87
:1023B000BDE8F0830401002070B505460C4645F0E9
:1023C000B00000F06FF9102141EA141000F06AF932
:1023D00004F00F0000F066F970BD0000F8B5064685
:1023E0000F4614461D46082D0CD1A4F120000E49BD
:1023F00001EB00101023082239460090304600F00F
:1024000065F80FE0062D0DD1A4F1200000EB40008F
:10241000064901EB40000823062239460090304669
:1024200000F054F8F8BD00006C6200085C68000819
:102430002DE9FC478046894616460027002001907A
:1024400000253AE0705D01A9C855781CC7B2022F7B
:1024500031DB002700240CE0C4EBC40101EB810157
:10246000184A881801A9FDF73FFF00B90CE0601C6D
:10247000C4B2C4EBC40101EB8101124A881812A155
:10248000FDF732FF0028E7D100BFC4EBC40000EB2A
:1024900080000C490844C01C05F1010A0AEBDA71FE
:1024A0004910491E08EB0111009008B210231A468A
:1024B000494600F00BF8681CC5B2705D0028C1D118
:1024C000BDE8FC87966A0008000000002DE9FF4F78
:1024D00080460E469146DDF834B0002500244A4679
:1024E00031464046039BFFF7EFFD00BF66E0002545
:1024F00060E008EB050000285ADB08EB05007F28A8
:1025000056DC3046F11706EB5171C9100FB2F117C6
:1025100006EB5171C910A6EBC10A002E05DA781E30
:1025200007B20AF108000FFA80FA381900281BDBFD
:102530003819072818DC381900EB8010254901EB01
:10254000400008EB0501405C04FB09511BF8011039
:1025500001FA0AF10843391901EB81111D4A02EB16
:10256000410108EB050288543819401C00281FDB84
:102570003819401C07281BDC3819401C00EB801060
:10258000144901EB400008EB0501405C04FB0951D4
:102590001BF80110CAF10802114108433919491CFE
:1025A00001EB81110B4A02EB410108EB0502885453
:1025B000681CC5B24D459CDB601CC4B20399481E23
:1025C000C11700EB5171012202EBE101A1428EDC47
:1025D000BDE8FF8F040100202DE9F047064689463B
:1025E00017461D46DDF82080002417E0281B411EF9
:1025F0000A20FFF78BFEB7FBF0F00A21B0FBF1F2E7
:1026000001FB120000F1300A04FB086108B24346E6
:1026100052464946FFF7E2FE601CC4B2AC42E5DB1D
:10262000BDE8F0872DE9F0410646884615461F466D
:10263000002409E02A5D04FB076108B23B464146DD
:10264000FFF7CCFE601CC4B2285D0028F2D1BDE8C3
:10265000F08104E001F00EFE012002F00DFDF9E72B
:1026600010B500240DE000212046FFF7A5FE04EB85
:102670008411054A02EB4100822100F023F8601C1E
:10268000C4B2082CEFDB10BD040100200149086032
:1026900070470000BC82404201490860704700005A
:1026A000A882414210B50446FFF7BEFD7820FFF72F
:1026B0008DFD0020FFF78AFD2046FFF787FDFFF71D
:1026C000C7FD10BD70B505460E46FFF7ADFD78207D
:1026D000FFF77CFD4020FFF779FD002404E0285D32
:1026E000FFF774FD601CC4B2B442F8DBFFF7B0FD25
:1026F00070BD000029B1064A12680243044B1A60FB
:1027000004E0034A12688243014B1A6070470000DC
:102710003038024029B1064A12680243044B1A605D
:1027200004E0034A12688243014B1A6070470000BC
:102730004038024029B1064A12680243044B1A602D
:1027400004E0034A12688243014B1A60704700009C
:1027500044380240F0B50021002200240225002662
:102760000223324F3F6807F00C0121B1042905D044
:10277000082937D105E02E4F076036E02D4F07605E
:1027800033E02A4F3F1F3F68C7F38056274F3F1F54
:102790003F6807F03F036EB1264FB7FBF3F7DFF852
:1027A0008CC0ACF1040CDCF800C0CCF3881C07FB37
:1027B0000CF40CE01E4FB7FBF3F7DFF870C0ACF180
:1027C000040CDCF800C0CCF3881C07FB0CF4174F9A
:1027D0003F1F3F68C7F301477F1C7D00B4FBF5F73F
:1027E000076002E0124F076000BF00BF0F4F3F6855
:1027F00007F0F0010909104F7A5C0768D74047607D
:102800000A4F3F6807F4E051890A0B4F7A5C47682A
:10281000D7408760054F3F6807F46041490B064F7A
:102820007A5C4768D740C760F0BD000008380240B6
:102830000024F40000127A007D0000200CB5002076
:10284000019000903448006840F4803032490860BC
:1028500000BF3148006800F4003000900198401C2F
:102860000190009818B90198B0F5A04FF1D12A480D
:10287000006800F4003010B10120009001E0002059
:1028800000900098012846D123484030006840F06D
:1028900080502149403108602048006840F44040A1
:1028A0001E4908601C48083000681B490831086050
:1028B0000846006840F4004008600846006840F49C
:1028C000A05008601648091F0860081F006840F003
:1028D0008070091F086000BF0F48006800F000709A
:1028E0000028F9D040F205700E4908600A48083007
:1028F000006820F0030008490831086008460068B5
:1029000040F00200086000BF03480830006800F093
:102910000C000828F8D10CBD0038024000700040BF
:1029200008544007003C024010B500BF502080F31F
:102930001188BFF34F8FBFF36F8F00BF03F0FAF919
:1029400018B14FF080500449086000BF002080F3A8
:10295000118800BF10BD000004ED00E010B515485F
:10296000006840F47000134908601348006840F0A4
:1029700001001149086000200F49083108600E4825
:1029800000680E4908400C4908600D48091D0860A0
:10299000081F006820F48020091F086000200649F5
:1029A0000C310860FFF74AFF4FF0006001498039A1
:1029B000086010BD88ED00E000380240FFFFF6FE21
:1029C00010300024F0B50C46154600210022068C7C
:1029D0004FF6FE773E400684018B028C4FF60C7654
:1029E00031407E1C06EA03162E4331434FF6F5763E
:1029F000324044F00106324301830284F0BDF0B559
:102A00000C461546002100220026078C4FF6EF7C6D
:102A100007EA0C070784018B028C4FF6FF7707EA61
:102A2000041640F6FF4739404FF6FF7707EA0337B1
:102A300039434FF6FF7707EA052739434FF65F77AB
:102A40003A4046F010073A4301830284F0BDF0B5E6
:102A50000C461546002100220026078C4FF6FF6C1D
:102A600007EA0C070784818B028C4FF6FF7707EA91
:102A700004264FF60C7739404FF6FF7707EA031725
:102A80002F4339434FF2FF573A4046F480773A4399
:102A900081830284F0BDF0B50C461546002100226A
:102AA0000026078C4EF6FF7C07EA0C070784818B13
:102AB000028C4FF6FF7707EA043640F6FF473940AD
:102AC0004FF6FF7707EA052739434FF6FF7707EA06
:102AD0000337394345F6FF773A4046F480573A4387
:102AE00081830284F0BD000010B50121054800F08B
:102AF00068F8012805D101F0B1F90121014800F081
:102B00004BF810BD000C004010B500240221144801
:102B100000F057F840B1124800F04DF81149086034
:102B200002210F4800F038F804210D4800F049F860
:102B300058B10B4800F042F80B49086001200B49DE
:102B400008700421064800F027F83CB14FF080508F
:102B500007490860BFF34F8FBFF36F8F10BD0000B0
:102B6000000401402C000020300000203400002030
:102B700004ED00E030B5002301248C40A3B2048CA6
:102B80009C430484048C02FA01F5ADB22C43048406
:102B900030BDCA4302827047CA430282704721B1E6
:102BA000028842F00102028004E002884FF6FE73C0
:102BB0001A40028070470146486B70470146886B97
:102BC000704730B50246002000230024158A05EA2C
:102BD0000103958905EA010413B10CB1012000E05D
:102BE000002030BD70B505460C46208850B92389B9
:102BF000A28861882846FFF7E5FEE188284600F0B4
:102C000043F825E0208804280AD12389A288618816
:102C10002846FFF7F4FEE188284600F03EF817E06A
:102C2000208808280AD12389A28861882846FFF7CE
:102C30000EFFE188284600F03DF809E02389A288CC
:102C400061882846FFF727FFE188284600F03BF817
:102C500070BD1AB183890B43838102E083898B4362
:102C6000838170470A46002101894FF68F7319400E
:102C700011430181704702894FF6F8731A400281AF
:102C800002890A4302817047028B4FF6F3731A40A0
:102C90000283028B0A4302837047028B4FF2FF3399
:102CA0001A400283028B4FF6FF7303EA01231A4393
:102CB00002837047828B4FF6F3731A408283828BB4
:102CC0000A4382837047828B4FF2FF331A4082831C
:102CD000828B4FF6FF7303EA01231A438283704706
:102CE00000220288184B98420ED0184B98420BD005
:102CF000B0F1804F08D0164B984205D0154B984242
:102D000002D0154B984204D14FF68F731A404B886E
:102D10001A43124B984207D0114B984204D04FF6F9
:102D2000FF431A400B891A4302804B68C3620B8829
:102D30000385054B984202D0044B984201D18B7A0F
:102D40000386012383827047000001400004014094
:102D50000004004000080040000C0040001000404B
:102D60000014004010B5002440F22551164800F030
:102D700013F9012826D1144800F0C8F9C4B2134849
:102D8000134909884454232C03D1012011490870A8
:102D900004E00F480088401C0D49088021460A487D
:102DA00000F0B9F921460C4800F0B5F900BF8021C8
:102DB000054800F0E4F80028F9D040F22551024817
:102DC00000F0C2F810BD000000100140BC0500205A
:102DD0006E000020700000200048004010B504463E
:102DE0000BE014F8011B074800F095F900BF8021A3
:102DF000044800F0C4F80028F9D020780028F0D169
:102E000010BD00000010014010B540F225511E48D1
:102E100000F0C2F8012834D11B4800F077F91B49B3
:102E20001B4A127821F812000846194A127830F825
:102E30001210154800F06FF914481549097830F858
:102E40001100232813D100201049114A127821F8CB
:102E50001200104800F024FA00F02EFA00200C496D
:102E6000087040F22551084800F06EF810BD08487F
:102E70000078401C0649087040F22551024800F0D5
:102E800063F800BFF2E7000000440040280500207E
:102E90007C0000201405002070B5002440F225516C
:102EA000194800F079F8012815D1174800F02EF9DB
:102EB000C4B216480088802808DA154813490988E2
:102EC000445412480088401C1049088040F22551A3
:102ED0000D4800F039F840F224410B4800F05CF84E
:102EE000012810D10B490870084800880A49088059
:102EF0000748FFF773FF002004490880024805884F
:102F0000001D058800BF70BD00480040680000201B
:102F10003C0500206A0000206C00002010B504462B
:102F20000BE014F8011B074800F0F5F800BF802102
:102F3000044800F024F80028F9D020780028F0D1C7
:102F400010BD00000048004010B50022002340F6EC
:102F50006A14A14200D100BF0A1201249440A3B216
:102F6000DC43048010BD21B1828942F40052828189
:102F700004E082894DF6FF731A4082817047024651
:102F80000020B1F5007F00D100BF13880B400BB1CA
:102F9000012000E00020704770B5024600240023A5
:102FA0000025002040F66A16B14200D100BFC1F3EF
:102FB000421501F01F03012606FA03F3012D02D189
:102FC0009689334006E0022D02D1168A334001E093
:102FD000968A33400C12012606FA04F4168834400F
:102FE00013B10CB1012000E0002070BDF0B5034624
:102FF000002400260025002040F66A17B94200D1BF
:1030000000BF1846C1F3421401F01F06012707FA5A
:1030100006F5012C01D10C3004E0022C01D1103056
:1030200000E014301AB107682F43076002E0076818
:10303000AF430760F0BD00002DE9FF4705460E468F
:103040000024A14600BFA046B08900B100BF2C8A71
:1030500024F44054F08804432C82AC8941F20C6083
:103060008443B08831890843718908430443AC81A3
:10307000AC8A24F44074B0890443AC826846FFF7FC
:1030800069FB2048854202D01F48854202D1DDF805
:103090000C9001E0DDF80890A88900F4004040B1F0
:1030A00009EBC90000EB091031684900B0FBF1F7EA
:1030B00007E009EBC90000EB091031688900B0FB9B
:1030C000F1F76420B7FBF0F004012009642101FB53
:1030D0001078A88900F4004040B1322000EBC8000D
:1030E000B0FBF1F000F00700044308E0322000EBF1
:1030F00008106421B0FBF1F000F00F0004432C81B4
:10310000BDE8FF8700100140001401400146888897
:10311000C0F308007047C1F30802828070470000C6
:1031200000B587B001210846FFF7E4FA0121480401
:10313000FFF7F0FA02208DF8180000208DF81A0031
:103140008DF81B000C20059003208DF8190005A9AF
:103150001D48FEF73FFC072202211B48FEF782FCB8
:10316000072203211848FEF77DFC4FF4165001900A
:103170000020ADF810000C20ADF80E000020ADF8D6
:103180000C00ADF80A00ADF8080001A90F48FFF7E0
:1031900053FF012240F225510C48FFF727FF012180
:1031A0000A48FFF7E0FE26208DF8000001208DF888
:1031B00003008DF8010000208DF802006846FEF73C
:1031C00025FF07B000BD00000000024000440040A1
:1031D00010B588B0044601218804FFF79BFA01214D
:1031E0000220FFF787FA07220A212648FEF73AFC59
:1031F00007220B212348FEF735FC4FF44060069070
:1032000002208DF81C0003208DF81D0000208DF891
:103210001F008DF81E0006A91A48FEF7DBFB02947A
:103220000020ADF814000C20ADF812000020ADF81D
:103230001000ADF80E00ADF80C0002A91248FFF71F
:10324000FBFE27208DF8040000208DF805008DF886
:10325000060001208DF8070001A8FEF7D7FE012225
:1032600040F225510848FFF7C1FE012240F22441F7
:103270000548FFF7BBFE01210348FFF774FE08B0C5
:1032800010BD00000004024000480040024600203B
:1032900003E000231354431C98B28842F9DB7047C3
:1032A0000246002005E031F8103022F81030431CAF
:1032B00098B20A28F7DB7047002005E00021044A95
:1032C00022F81010411C88B20A28F7DB7047000072
:1032D0002805002000B587B001210846FFF70AFA4B
:1032E00001211020FFF726FA02208DF81800002097
:1032F0008DF81A008DF81B004FF4C0600590032074
:103300008DF8190005A91D48FEF764FB0722092165
:103310001A48FEF7A7FB07220A211848FEF7A2FB6E
:103320004FF4E13001900020ADF810000C20ADF812
:103330000E000020ADF80C00ADF80A00ADF8080052
:1033400001A90F48FFF778FE012240F225510C48F1
:10335000FFF74CFE01210A48FFF705FE25208DF8F6
:10336000000001208DF803008DF8010000208DF889
:1033700002006846FEF74AFE07B000BD00000240AA
:103380000010014000BFFEE70FB4054B10B503A9C4
:10339000044A029800F0EEF810BC5DF814FB00003F
:1033A000E93C0008740000200FB4084B10B504A9D4
:1033B00002AA039800F0DEF8044602A9002000F0FB
:1033C0005CFC204610BC5DF814FB00007B3C000850
:1033D00002E008C8121F08C1002AFAD170477047DE
:1033E000002001E001C1121F002AFBD1704700003C
:1033F0002DE9FF5F82B00021DDE90430020DDDF828
:1034000040B0034318D044F61050A2F2FF324243BA
:103410001514119801281FD0A5EB0B00401C5FEA82
:10342000000A4FF000064E4FDFF83891B046504684
:1034300015D5CAF1000413E0119801244AA301280C
:1034400001D16FEA0B010298119AC0E90031C0E97D
:10345000024206B0BDE8F09FCBF10000DFE7044672
:103460000021404A491842EB0450CDE9001012E017
:10347000E00707D032463B4640464946FDF7B5F8DF
:103480008046894632463B4610461946FDF7ADF860
:1034900006460F466410002CEAD1DDE90401DDE99F
:1034A0000023BAF1000F06DAFDF79FF842464B46BB
:1034B000FDF79BF805E0FDF70AF942464B46FDF79C
:1034C00006F904460E460022284BFDF76FF903D893
:1034D0004FF0FF30014607E00022254B20463146E1
:1034E000FCF7DCFFFDF791FA102409E0002C0ADB61
:1034F0000A220023FDF788F9039B30321A55641E17
:1035000050EA0102F2D1641C039AC4F1110314447D
:10351000119A012A03D0012208430DD10AE0084381
:1035200004D000204FF0110B119072E7A3EB0B05B4
:103530006D1E0DE05B4504DD4FF0000205F1010555
:1035400004E003DA4FF00002A5F10105002AECD0F7
:1035500002981199C0E90231C0E9004579E70000FD
:10356000000014400000F03F300000000000F04375
:103570000000E03F2DE9FF4F95B09A468846064689
:103580000025EEE1252877D100242746F94A0121BC
:10359000039400E0044316F8013F203B01FA03F0D6
:1035A0001042F7D130782A2811D06FF02F033078ED
:1035B000A0F13002092A16D8039A44F0020402EB63
:1035C000820203EB42021044761C0390EFE758F8A6
:1035D000042B0392002A03DA504244F4005403906F
:1035E00044F00204761C30782E2816D116F8010F0C
:1035F00044F004042A280DD06FF02F023078A0F197
:103600003003092B09D807EB870302EB4303C718E4
:10361000761CF3E758F8047B761C30786C280FD0C2
:1036200006DC4C2817D068280DD06A2814D104E095
:10363000742810D07A280FD10DE044F400140AE069
:1036400044F4801401E044F440147278824202D1C0
:1036500004F58014761C761C307866280BD013DCB9
:10366000582877D009DC002875D04528F6D04628A0
:10367000F4D047281AD193E118E0632835D06428A4
:1036800079D0652812D18BE1702873D008DC6728C7
:10369000F1D069286FD06E280DD06F2806D1ACE02C
:1036A00073282CD0752874D0782853D05246179997
:1036B00090476D1C54E1C4F30250022809D003283E
:1036C0000DD0D8F8001004280DD00D6008F10408C2
:1036D00046E1D8F80010EA17C1E90052F6E7D8F839
:1036E00000100D80F2E70D70F0E718F8041B8DF85C
:1036F000001000208DF80100EB46012003E058F88F
:1037000004BB4FF0FF3061074FF0000102D40DE021
:1037100009F101018946B9420FDA8145F8DB1BF84E
:1037200009100029F4D108E009F10101894681421C
:10373000FADB1BF809100029F6D103985346A0EBD9
:10374000090721463846179A00F080FA284400EB12
:10375000090507E044E008E10DE01BF8010B5246C3
:1037600017999047B9F10109F7D2534621463846D7
:10377000179AF2E039E00A21C4F302524FF0000B2D
:103780000091022A06D058F8040BC117032A09D069
:103790000AE023E008F1070020F00702F2E8020146
:1037A000904605E000B2C117042A01D140B2C1170A
:1037B000002906DA0A460021404261EB02012D226F
:1037C00002E0220504D52B228DF80420012203E01B
:1037D000E20701D02022F7E7914657E00A2100E0F6
:1037E00010214FF0000B00910BE010214FF0000B67
:1037F00044F004040827009103E008204FF0000B78
:103800000090C4F30252022A05D058F8040B00219C
:10381000032A08D008E008F1070020F00702F2E8C8
:103820000201904603E080B2042A00D1C0B24FF0FA
:10383000000922072AD53278702A07D0DDF800C0A7
:103840008CF0100C5CEA0B0C05D00EE040228DF8D9
:103850000420012208E050EA010306D030238DF84D
:1038600004308DF8052002229146009B83F0080366
:1038700053EA0B030AD150EA010201D1620705D5D0
:1038800030228DF804204FF001097F1E3278582A2B
:1038900004D039A20C920CAA02920BE03BA2F9E7E9
:1038A0005B46009AFCF7B0FF0C9B9B5C029A521E91
:1038B0000292137050EA0102F2D1029804A9081A88
:1038C00000F1200B600702D524F4803400E00127CA
:1038D0005F4502DDA7EB0B0000E0002000EB0B01D1
:1038E000009003984944401A0390E00306D45346DD
:1038F0002146179A039800F0A9F90544002706E02D
:1039000001A85246C05D179990476D1C7F1C4F451A
:10391000F6DBE0030CD553462146179A039800F0D6
:1039200095F9054404E030205246179990476D1CE4
:103930000099481E00900029F5DC08E002980299E1
:1039400052460078491C0291179990476D1CBBF1B3
:103950000001ABF1010BF1DC5BE100F065F905441E
:10396000761C307800287FF40DAE19B02846BDE8EB
:10397000F08F0000092801003031323334353637FA
:1039800038396162636465660000000030313233AB
:10399000343536373839414243444546000000004B
:1039A000600700D4062708F1070020F00700F0E8C0
:1039B0000223804603F0004C5FEA0C0001D097A080
:1039C00009E0200501D596A005E0E00701D095A00B
:1039D00001E0AFF24C001390307823F000436528EB
:1039E0000CD006DC452809D046281DD047287FD1B9
:1039F0003BE0662818D067287AD136E00021112FE5
:103A000001DB112000E0781CCDE9000104A90CA81D
:103A1000FFF7EEFCDDE90D010C9A4FF0000B07F10A
:103A20000109109200914EE04FF000400097CDE95F
:103A3000011004A90CA8FFF7DBFCDDE90D020C9BCB
:103A40000F994FF0000B91461093009211B9791C19
:103A500000EB0109B7EB090003D4C0F1FF3B07F10C
:103A60000109A9EB0700019042E0012F00DA0127CC
:103A70000021112F01DD112000E03846CDE90001C1
:103A800004A90CA8FFF7B4FCDDE90D010C9A009124
:103A90004FF0000BB946109221070FD4009A4A4507
:103AA00003DA914601E0A9F10109B9F1010F05DD41
:103AB000109AA9F10101515C3029F4D0B84202DA20
:103AC00010F1040F03DA0121CDE9011010E0002804
:103AD00003DC8344A9EB000102E0411C494500DD01
:103AE0008946A0EB0B00401C01904FF00040029073
:103AF000200705D40198484502DB4FF0FF300190C4
:103B000000208DF84B0002980DF14B07B0F1004FEB
:103B100025D002200C902B200D90029800280CDA62
:103B2000404202902D200D9007E00A210298FCF7F8
:103B300055FE3031029007F8011D0C99481E0C907B
:103B40000029F2DC02980028EFD1791E0D98087048
:103B5000307800F0200040F0450007F8020D11A871
:103B6000C01BC01D02901398007800B1012000EB2B
:103B70000901019801EBE071029801440398401A91
:103B8000401E0390E00306D453462146179A03983B
:103B900000F05CF805441398007818B15246179964
:103BA00090476D1CE00323D553462146179A03988E
:103BB00000F04CF805441BE0BBF1000F07DB009858
:103BC000584504DD1098179910F80B0001E017997B
:103BD00030205246904701980BF1010B401E05F131
:103BE0000105019004D12E205246179990476D1C73
:103BF000B9F10001A9F10109DEDC05E017F8010BBC
:103C00005246179990476D1C0299481E0290002950
:103C1000F4DC53462146179A03989EE62D000000D7
:103C20002B000000200000002DE9F0410446002593
:103C30001E461746880404D405E039462020B047C4
:103C40006D1C641EF9D52846BDE8F0812DE9F041D0
:103C5000044600251E469046C80301D5302700E0E3
:103C60002027880404D505E041463846B0476D1C3E
:103C7000641EF9D52846BDE8F0810A68531C0B6024
:103C80001070704710B592B004460A4800680A499F
:103C90000968CDE9001009480378094809A10268BC
:103CA00002A8FFF781FB02A8FDF710FE002012B06A
:103CB00010BD0000400000203C00002060000020FB
:103CC0003800002023636861742077696E312025F5
:103CD000646D6F746F7225646469733125646469FF
:103CE000733225640000000070B504460D46A1B291
:103CF0000548FFF710FA00BF80210348FFF73FF99E
:103D00000028F9D0204670BD0010014008B524A25B
:103D100000210846FEF78CFB08200323009023486F
:103D2000002102685020FEF757FC21A2102100203C
:103D3000FEF77EFB08200323009020481021026834
:103D40005820FEF749FC1EA220210020FEF770FB40
:103D50000820032300901D48202102685820FEF708
:103D60003BFC1B480078012802D002280ED106E057
:103D70001023182219465820FEF7D2FA0AE0102321
:103D8000182220215820FEF7CBFA03E00120104929
:103D9000087000BF00BFFEF763FCFEF76BF808BDBC
:103DA000B5B1C7B0D2BACEBB3A000000380000208F
:103DB000D2BACEBBC9CFD4A4BEAF3A003C000020DB
:103DC000D2BACEBBCFC2D4A4BEAF3A0040000020CE
:103DD0005C000020024908780021014A11707047F8
:103DE0005E0000201CB501210846FEF783FC01217E
:103DF0001020FEF77FFC0120009000208DF80400C9
:103E00008DF8070069460548FDF7E4FD1C20009089
:103E100069460348FDF7DEFD1CBD000000000240BE
:103E2000001002400B48006808B9012070470A489A
:103E3000006808B90220F9E70748001D006808B9C2
:103E40000320F3E704480830006808B90420EDE7D0
:103E50000020EBE7000240420802424200B50F4852
:103E60000078401C0D49087008460078022813DBD2
:103E7000002008700A4800780A490870FFF7D2FF4E
:103E8000074908700846007830B90648007818B12C
:103E9000044800780449087000BD00005800002064
:103EA0005A000020590000205E0000201CB5FDF7DC
:103EB00035FF01F087FA3C4908600846006820B9E0
:103EC0003AA0FFF761FA00BFFEE742A0FFF75CFAF5
:103ED0004A48032100234FF40072CDE9001048A1A5
:103EE0004A4801F0E1FE0446012C03D148A0FFF747
:103EF0004BFA02E04BA0FFF747FA5148012100239B
:103F00004A02CDE900104FA1524801F0CDFE04460F
:103F1000012C03D150A0FFF737FA02E054A0FFF7BD
:103F200033FA5B4804210023CA01CDE9001059A1EE
:103F30005E4801F0B9FE0446012C03D15CA0FFF7F6
:103F400023FA02E062A0FFF71FFA6B480321002367
:103F50004FF40072CDE9001068A16E4801F0A4FE94
:103F60000446012C03D16CA0FFF70EFA02E072A008
:103F7000FFF70AFA7A48052100234FF40072CDE9D1
:103F8000001078A17E4801F08FFE0446012C03D179
:103F90007CA0FFF7F9F902E084A0FFF7F5F901F042
:103FA0004BF900201CBD0000000000204553503894
:103FB000323636204576656E742047726F757020F4
:103FC000637265617465206661696C6564210D0AC0
:103FD0000000000045535038323636204576656E75
:103FE000742047726F757020637265617465207309
:103FF000756363657373210D0A00000004000020DF
:104000004F4C45445F5461736B0000005326000819
:104010004F4C45445F5461736B20637265617465F6
:10402000210D0A004F4C45445F5461736B2063724D
:1040300065617465206661696C6564210D0A000024
:104040000800002048435F535230345F5461736B63
:1040500000000000A91C000848435F535230345F41
:104060005461736B20637265617465210D0A0000F1
:1040700048435F535230345F5461736B2063726501
:10408000617465206661696C6564210D0A00000039
:104090000C000020455350383236365F436F6E6E49
:1040A0006563745F5461736B00000000A911000820
:1040B000455350383236365F436F6E6E6563745FBA
:1040C0005461736B20637265617465210D0A000091
:1040D000455350383236365F436F6E6E6563745F9A
:1040E0005461736B20637265617465206661696CED
:1040F0006564210D0A00000010000020455350386F
:104100003236365F50726F636573735F5461736BE1
:1041100000000000F1160008455350383236365F73
:1041200050726F636573735F5461736B2063726564
:10413000617465210D0A0000455350383236365FF0
:1041400050726F636573735F5461736B2063726544
:10415000617465206661696C6564210D0A00000068
:1041600014000020455350383236365F6D65737346
:104170006167657265706F72745F5461736B000084
:1041800001190008455350383236365F6D65737338
:104190006167657265706F72745F5461736B2063E1
:1041A0007265617465210D0A0000000045535038A6
:1041B0003236365F6D6573736167657265706F72F5
:1041C000745F5461736B206372656174652066610E
:1041D000696C6564210D0A001CB501210846FEF7D3
:1041E00089FA0420009001208DF8040000208DF849
:1041F000070069460148FDF7EDFB1CBD00000240C9
:1042000008B515A200210846FEF712F916A21021E2
:104210002020FEF70DF915480078012807D1082065
:1042200001231A46102100905020FEF7D5F910A264
:1042300020210846FEF7FCF80C48007838B9082021
:1042400001231A46202100905020FEF7C5F9FEF701
:1042500007FAFDF759FE08BDB5E7BBFACAD6B6AFF7
:10426000B2D9D7F700000000BFAA0000600000200C
:10427000B9D8000010B50A48007820B1012805D04F
:10428000022809D105E0FDF7BDFD06E0FFF7B8FF04
:1042900003E0FFF73BFD00E000BF00BF10BD0000E2
:1042A0005F0000202DE9F04105460E461C480768D6
:1042B0001C480068001D00F07BFD50B919480068DB
:1042C00090F82C100120884017490968814316484E
:1042D0000160681C38B936B112480168091D1348DD
:1042E00000F0A4FD1AE07C190E4800684460BC424E
:1042F00007D20C480168091D0D48006800F07CFDDC
:104300000CE008480168091D0A48006800F074FDC7
:1043100009480068844201D207480460BDE8F08182
:10432000A400002090000020A80000209407002096
:104330009800002094000020C000002010B5044622
:1043400000F080FD24480068401C23490860234891
:10435000006840B9214804600846006801280DD172
:1043600000F0DEF90AE01E48006838B91B48006812
:10437000C06AE16A884201D8184804601948006898
:10438000401C1849086008460068206494F82C1006
:104390000120884014490968084313490860E16A0C
:1043A00001EB8101114A02EB8100211D00F03EFD6D
:1043B00000F072FD0A48006868B108480068C06AE9
:1043C000E16A884207D24FF0805009490860BFF384
:1043D0004F8FBFF36F8F10BDA00000209000002012
:1043E000AC000020BC000020A80000207C060020BB
:1043F00004ED00E010B500F025FD10480068D0B9CC
:104400000F4800F0E9FC0F4800F0E6FC0C480E49AC
:1044100008600C480D49086000220C210A2001F0B8
:10442000E3F8064908600846006820B108A103487F
:10443000006800F0E5FD00F02FFD10BDD400002065
:10444000A8070020BC070020CC000020D0000020DE
:10445000546D72510000000070B523E000F036FF8B
:104460001348006808B9012000E00020054601F06B
:104470000DFEBDB900F0E6FC0D48C068C468201D03
:1044800000F096FC0B480068401E0A4908600A4884
:104490000068401E0849086000F0FEFC204600F05D
:1044A00060F800BF044800680028D7D170BD000044
:1044B00080070020A00000209C00002070B504466A
:1044C0000D46206C70B1216CE0680844E0606168C2
:1044D000E068884201D32068E0602846226CE168E9
:1044E000FBF7CCFE70BD2DE9F04104460F461546A2
:1044F0004FF00008A66B206C40B9206860BB606874
:1045000001F0BCFC80460020606025E07DB93946A2
:10451000226CA068FBF7B2FE216CA0680844A06082
:10452000D4E90110884217D32068A06014E039460E
:10453000226CE068FBF7A2FE216CE068401AE060A4
:104540002168E068884203D2216C6068401AE0600C
:10455000022D01D106B1761E701CA0634046BDE855
:10456000F08110B50446206B00F0B4FC204600F04A
:10457000B1FC10BD0146084A126812680AB901224E
:1045800000E000220A600A6822B9034A1268D26871
:10459000106800E000207047CC00002030B54FF4D8
:1045A0009633174800F007042CB1C01D20F0070017
:1045B000134C041B1B1B0246124C22600024114D9D
:1045C0006C60D018083820F007000F4C20600024E1
:1045D0000D4D2D686C600C4D2D682C601146441AF1
:1045E0004C60094C24680C60084D4C682C60084DE8
:1045F0004C682C604FF00044064D2C6030BD00002C
:10460000D0070020EC000020F4000020FC00002077
:10461000F80000200001002000BFFFF71DFF064842
:1046200000680128F9D94FF0805004490860BFF3B1
:104630004F8FBFF36F8FF0E77C06002004ED00E0A2
:104640002DE9F04106460D4617469846069C0DB9E1
:10465000246000E02760E66325640121204601F024
:10466000D1F884F84C80BDE8F0812DE9F05F8246F6
:104670000F4690469B460A9E0C9C4FEA8801A52255
:10468000206BFBF70DFEA8F10100216B01EB800907
:1046900029F0070909F0070008B9012000E000200F
:1046A00050B900BF502080F31188BFF34F8FBFF384
:1046B0006F8F00BF00BFFEE7002507E0795D04F1C2
:1046C00034004155785D00B902E06D1C0A2DF5D328
:1046D00000BF00213D2001550A2E00D30926E662C5
:1046E000A6640020E064201D00F083FB04F11800A4
:1046F00000F07FFB2461C6F10A00A0616462002023
:10470000206584F854005A465146484600F03AFB6A
:1047100020600B9808B10B980460BDE8F09F000082
:1047200010B5002407E004EB84010F4A02EB81007E
:1047300000F052FB641C0A2CF5D30C4800F04CFB33
:104740000B4800F049FB0B4800F046FB0A4800F01C
:1047500043FB0A4800F040FB04480949086004484C
:104760000849086010BD00007C06002044070020B6
:10477000580700206C0700208007002094070020C5
:10478000940000209800002010B50146164800E073
:10479000006803688B42FBD30246436813448B4294
:1047A00004D143684C682344436001460A464B6881
:1047B00013440468A34211D10C4C03682468A3423B
:1047C00008D04B680468646823444B6003681B6826
:1047D0000B6005E0054B1B680B6001E003680B6094
:1047E000884200D0016010BDEC000020F4000020E1
:1047F0002DE9F04104460D4616461F464FF00008CD
:1048000065602461B5420CD8F01BA169884202D3CF
:104810004FF0010811E0211D0948006800F0ECFA92
:104820000BE0BE4204D2BD4202D34FF0010804E0C7
:10483000211D0448006800F0DFFA4046BDE8F08121
:10484000D0000020CC00002070B5054600F0FAFA38
:10485000A86B08B9012400E0002400F01DFB2046ED
:1048600070BD70B5054600F0EDFAA86BE96B8842A3
:1048700001D1012400E0002400F00EFB204670BDB1
:10488000F8B505460F4616480068C068C468201D84
:1048900000F08EFAE06901281DD1A06941192B466C
:1048A0003A462046FFF7A4FFA8B1002003462A4657
:1048B00001460090204601F097FC064656B900BF1D
:1048C000502080F31188BFF34F8FBFF36F8F00BF6D
:1048D00000BFFEE700BF2046616A8847F8BD0000C0
:1048E000CC00002070B586B06AE00398002867DB32
:1048F000059C606908B9012000E0002010B9201D66
:1049000000F056FA02A800F0BDF8054603980A2800
:1049100054D2DFE800F009050731334F060832347E
:1049200000BF00BF00BF00BF0498A2698118034602
:104930002A462046FFF75CFFE8B12046616A8847B7
:10494000E069012817D1002000900498A16942185D
:1049500000231946204601F047FC064656B900BF21
:10496000502080F31188BFF34F8FBFF36F8F00BFCC
:1049700000BFFEE700BF22E000BF20E000BF0498B8
:10498000A061A06908B1012000E0002050B900BF7B
:10499000502080F31188BFF34F8FBFF36F8F00BF9C
:1049A00000BFFEE7A06941192B462A462046FFF7C3
:1049B0001FFF04E0204600F08DFA00E000BF00BFBA
:1049C00000231A4603A90448006800F039FE0028B5
:1049D0008BD106B070BD0000D4000020F8B50546AC
:1049E0000C4600F073FC684600F04CF80646009850
:1049F00020BB44B9B54206D801F048FB31462846F1
:104A0000FFF73EFF1CE03CB10E480068006808B9A3
:104A1000012000E000200446A91B22460A48006845
:104A200000F004FB01F032FB50B94FF08050074911
:104A30000860BFF34F8FBFF36F8F01E001F026FBDB
:104A4000F8BD0000D0000020D400002004ED00E0FC
:104A50000A490968096809B9012100E0002121B16A
:104A60004FF0FF31064A116006E004490968C96841
:104A7000C868034A41681160704700009400002034
:104A8000C000002070B5044601F04EF90546074805
:104A90000068854204D200F00BF80120206001E09C
:104AA0000020206001480560284670BDDC00002021
:104AB0002DE9F84332E024480068C06805682248C0
:104AC0000068C068C468201D00F072F92046616A61
:104AD0008847E069012821D1A0694619AE4207D96B
:104AE00066602461211D1848006800F085F915E012
:104AF000002003462A4601460090204601F074FB40
:104B0000074657B900BF502080F31188BFF34F8F7D
:104B1000BFF36F8F00BF00BFFEE700BF0A48006809
:104B2000006808B9012000E000200028C3D0064832
:104B3000D0F8008005480068034908600348C0F8C1
:104B40000080BDE8F8830000CC000020D0000020E9
:104B50000E480068401C08B9012000E0002050B950
:104B600000BF502080F31188BFF34F8FBFF36F8FCA
:104B700000BF00BFFEE700BF502080F31188BFF3E5
:104B80004F8FBFF36F8F00BF00BFFEE7E000002034
:104B900008B500BF6846FFF7EDFC044620460099C3
:104BA000FFF71CFFFFF79EFEF4E770B5044600F028
:104BB00049F994F9455010E0606A08B9012000E015
:104BC000002038B904F1240001F0BCF918B100F05C
:104BD00081FA00E003E0681E45B2002DECDC00BF66
:104BE000FF2084F8450000F057F900F02BF994F904
:104BF000445010E0206908B9012000E0002048B9C5
:104C000004F1100001F09EF908B100F063FA681E8B
:104C100045B200E001E0002DECDC00BFFF2084F88D
:104C2000440000F039F970BD2DE9F04104464FF021
:104C3000000800F04BFB4648006808B9FFF7AEFCDF
:104C400044480068204000286BD1D4B1083404F0F7
:104C50000700B0B104F00700C0F10800044404F0FC
:104C6000070008B9012000E0002050B900BF502023
:104C700080F31188BFF34F8FBFF36F8F00BF00BF6A
:104C8000FEE7002C4DD034480068844249D8334EAA
:104C90003046056801E02E462D686868A04202D2C1
:104CA00028680028F7D12A480068854239D0306842
:104CB00000F10808286830606868001B102819D9BE
:104CC0002F1907F0070008B9012000E0002050B9B3
:104CD00000BF502080F31188BFF34F8FBFF36F8F59
:104CE00000BF00BFFEE76868001B78606C60384654
:104CF000FFF74AFD184968680968081A16490860EC
:104D00000846006816490968884203D212480068BC
:104D1000134908600F496868096808436860002003
:104D2000286001F0B3F908F0070008B9012000E09D
:104D3000002050B900BF502080F31188BFF34F8F7F
:104D4000BFF36F8F00BF00BFFEE74046BDE8F081B4
:104D5000F400002000010020F8000020EC000020FA
:104D6000FC0000200648006830B10549096801F1DF
:104D70004C00C96C491C0160014800687047000084
:104D800090000020001F4FF080730360001F21F08F
:104D900001030360001F054B036014380260001F0D
:104DA0006FF002030360203870470000514B000889
:104DB00001460A69D1E901309860D1E901035860E0
:104DC0005068884201D188685060002008611068EE
:104DD000401E10601068704700F1080141604FF0FC
:104DE000FF31816000F10801C160016100210160B3
:104DF000704700210161704710B502460B685C1CCA
:104E00000CB9106907E002F1080000E0406844684E
:104E100024689C42FAD944684C604C68A160886060
:104E200041600A611468641C146010BD42684A60E5
:104E300093688B60936859609160086103685B1C9C
:104E40000360704700BF502080F31188BFF34F8F7D
:104E5000BFF36F8F00BF0E480068401C0C4908600C
:104E600008460068012812D10A480068C0B208B993
:104E7000012000E0002050B900BF502080F31188CD
:104E8000BFF34F8FBFF36F8F00BF00BFFEE77047C8
:104E9000E000002004ED00E00D48006850B900BFBC
:104EA000502080F31188BFF34F8FBFF36F8F00BF87
:104EB00000BFFEE706480068401E05490860084636
:104EC000006820B9002080F3118800BF00BF704740
:104ED000E000002070B506463546002E3FD0083D64
:104EE0002C461F4960680968084008B1012000E0AD
:104EF000002050B900BF502080F31188BFF34F8FBE
:104F0000BFF36F8F00BF00BFFEE7206808B9012024
:104F100000E0002050B900BF502080F31188BFF39B
:104F20004F8FBFF36F8F00BF00BFFEE70C49606873
:104F30000968084098B1206888B90949606809681B
:104F40008843606000F0C2F9064960680968084457
:104F5000044908602046FFF717FC01F097F870BD80
:104F600000010020F8000020064800684FF47A7124
:104F7000B0FBF1F0401E4FF0E021486107200861CE
:104F8000704700001800002070B5FBF761F9044677
:104F9000102C16D304F1E02090F8F0531548007857
:104FA000854201DB012000E0002050B900BF502005
:104FB00080F31188BFF34F8FBFF36F8F00BF00BF27
:104FC000FEE70D48006800F4E0600C49096888427B
:104FD00001D8012000E0002050B900BF502080F32C
:104FE0001188BFF34F8FBFF36F8F00BF00BFFEE785
:104FF00070BD0000E40000200CED00E0E80000209F
:10500000024600200BE0084B53F8303033B9064B12
:1050100043F8301003EBC0035A6002E0401C08283C
:10502000F1D300BF704700003C0600202DE9F0419D
:1050300005460E4617462C46FFF704FF94F9440038
:10504000401C10B9002084F8440094F94500401C2D
:1050500010B9002084F84500FFF71EFFA06B28B9A7
:105060003A46314604F1240000F056F82046FFF796
:105070009CFDBDE8F081000070B504460025D4B168
:105080001248006808B9012000E0002050B900BFB4
:10509000502080F31188BFF34F8FBFF36F8F00BF95
:1050A00000BFFEE700F012F900212046FFF7FAF8F2
:1050B00000F0ECFF05463DB94FF080500449086010
:1050C000BFF34F8FBFF36F8F70BD0000C80000208B
:1050D00004ED00E00120014908607047B4000020A1
:1050E00070B504460D4654B900BF502080F31188B6
:1050F000BFF34F8FBFF36F8F00BF00BFFEE70548C0
:10510000016818312046FFF777FE01212846FFF796
:10511000C9F870BD9000002070B505460E461446D3
:1051200055B900BF502080F31188BFF34F8FBFF3F4
:105130006F8F00BF00BFFEE70648016818312846A0
:10514000FFF774FE0CB14FF0FF3621463046FFF7F3
:10515000A9F870BD9000002070B505462C46002DC2
:105160004BD02649E06A0968C96A884245D2A069DD
:1051700000F0004028B921480068C06AC0F10A0068
:10518000A061E16A01EB81011D4A02EB81016069C6
:10519000884201D1012000E0002050B3201DFFF71C
:1051A00007FE78B9E06A00EB8000154951F820004D
:1051B00040B994F82C1001208840124909688143B5
:1051C000104801600D480068C06AE06294F82C1035
:1051D000012088400B49096808430A490860E16AD0
:1051E00001EB8101064A02EB8100211DFFF71EFE43
:1051F00003E002480068C06AE06270BD90000020D1
:105200007C060020A800002050B900BF502181F387
:105210001188BFF34F8FBFF36F8F00BF00BFFEE752
:10522000034909680160034909684160704700004B
:10523000B8000020A40000201CB51D4800210B462A
:105240008222CDE900101BA11C4800F02DFD044670
:10525000012C02D100F09CFF0446012C15D100BFA7
:10526000502080F31188BFF34F8FBFF36F8F00BFC3
:105270004FF0FF30124908600120124908600020F9
:105280001149086000F012F910E0601C08B101201B
:1052900000E0002050B900BF502080F31188BFF318
:1052A0004F8FBFF36F8F00BF00BFFEE71CBD000034
:1052B000C400002049444C45000000001946000885
:1052C000C0000020AC000020A400002002480068BC
:1052D000401C014908607047C80000201D48006854
:1052E00018B101201C49086032E000201A4908600A
:1052F0001A480068B0FA80F0C0F11F0101EB81008C
:10530000174A52F8200008B1012000E0002050B9EF
:1053100000BF502080F31188BFF34F8FBFF36F8F12
:1053200000BF00BFFEE701EB81020D4B03EB8200E3
:1053300042685268426000F108024368934202D119
:105340004268526842604268D268064B1A6000BFE9
:1053500070470000C8000020B4000020A800002012
:105360007C060020900000202DE9F04105460E4605
:105370002C4655B900BF502080F31188BFF34F8FE2
:10538000BFF36F8F00BF00BFFEE706F07F4008B994
:10539000012000E0002050B900BF502080F31188A8
:1053A000BFF34F8FBFF36F8F00BF00BFFEE7FFF764
:1053B00049FD27682068B0432060FFF76DFD38463F
:1053C000BDE8F08110B51C20FFF72EFC044624B187
:1053D00000202060201DFFF7FFFC204610BD2DE9B6
:1053E000FE4F07468846002001903C46009057B982
:1053F00000BF502080F31188BFF34F8FBFF36F8F32
:1054000000BF00BFFEE708F07F4008B9012000E0C0
:10541000002050B900BF502080F31188BFF34F8F98
:10542000BFF36F8F00BF00BFFEE704F1040909F16D
:1054300008000290FFF74AFFD9F80C60206840EAA4
:105440000800206026E0D6F804B0356800200090FF
:1054500005F07F4A25F07F450AF0806028B9206872
:10546000284040B10120009005E020682840A84273
:1054700001D101200090009858B10AF0807010B15D
:10548000019828430190206840F00071304600F0F8
:10549000A5FD5E4602988642D5D1206801998843D1
:1054A000206000F0F3FD2068BDE8FE8F1CB5474882
:1054B00000684749884201D0012000E0002050B92F
:1054C00000BF502080F31188BFF34F8FBFF36F8F61
:1054D00000BF00BFFEE73D4800683D49491E8842C5
:1054E00001D0012000E0002050B900BF502080F31F
:1054F0001188BFF34F8FBFF36F8F00BF00BFFEE770
:105500003449084600780190FF200A46107008468A
:10551000007800909DF8000000F0F0009DF8002059
:10552000904201D1012000E0002050B900BF50207E
:1055300080F31188BFF34F8FBFF36F8F00BF00BFA1
:10554000FEE79DF8000000F05000234A107007208D
:10555000224A106009E021480068401E1F4A10607E
:105560009DF800004006000E00909DF8000000F03D
:1055700080008028EFD0194800680002174A1060A8
:105580001046008800F4E0601060124A0198107024
:105590000E482030006840F470000C49203108604B
:1055A0000846006840F070400860FFF7DDFC00200E
:1055B0000B490860FAF714FE0A48006840F04040C2
:1055C00008490860FAF7FCFD00201CBD00ED00E072
:1055D00071C20F4100E400E0E4000020E800002078
:1055E000E000002034EF00E02DE9F84305460E46C8
:1055F00090460DB1012000E0002050B900BF5020BE
:1056000080F31188BFF34F8FBFF36F8F00BF00BFD0
:10561000FEE70EB9002701E005FB06F707F1500091
:10562000FFF702FB044644B104F1500943464A46E1
:10563000314628460094FFF703F82046BDE8F8837A
:105640002DE9FF4782B005460E461F464FF0000A7F
:105650002C4654B900BF502080F31188BFF34F8F00
:10566000BFF36F8F00BF00BFFEE70EB9206C08B913
:10567000012000E0002050B900BF502080F31188C5
:10568000BFF34F8FBFF36F8F00BF00BFFEE700F087
:105690003BFB08B9049808B9012000E0002050B98C
:1056A00000BF502080F31188BFF34F8FBFF36F8F7F
:1056B00000BF00BFFEE700BFFFF7C4FBD4F838907F
:1056C000B9F1000F3DD0D4F80C8031462046FEF7EA
:1056D000F5FEDFB9A9F10100A063206810B9FFF75A
:1056E00041FB6060206908B9012000E0002010BB88
:1056F00004F1100000F026FCE8B14FF08050404962
:105700000860BFF34F8FBFF36F8F14E0C4F80C80B5
:10571000606A08B9012000E0002060B904F12400AB
:1057200000F010FC38B14FF0805035490860BFF3ED
:105730004F8FBFF36F8FFFF7AFFB012006B0BDE8BF
:10574000F087049818B9FFF7A7FB0020F6E7BAF135
:10575000000F04D16846FFF757FD4FF0010AFFF72D
:105760009BFBFFF7B3FDFFF76DFB94F94400401C72
:1057700010B9002084F8440094F94500401C10B989
:10578000002084F84500FFF787FB04A9684600F075
:1057900045FA40BB2046FFF757F8F0B1206830B912
:1057A000FFF750FB6068FFF7D7FCFFF775FB04F1CC
:1057B00024000499FFF794FC2046FFF7F6F900F067
:1057C00065FC00287FF478AF4FF080500C490860EA
:1057D000BFF34F8FBFF36F8F6EE72046FFF7E5F9FA
:1057E00000F054FC68E72046FFF7DFF900F04EFCBC
:1057F0002046FFF729F80028EED000209EE70000A1
:1058000004ED00E070B505460E462C4654B900BFC5
:10581000502080F31188BFF34F8FBFF36F8F00BF0D
:1058200000BFFEE7FFF70EFBD4E90F12206801FB73
:10583000020060600020A0632068A060E06B401E52
:10584000226C216800FB0210E060FF2084F8440015
:1058500084F845009EB9206908B9012000E00020C5
:10586000A8B904F1100000F06DFB80B14FF080503A
:1058700009490860BFF34F8FBFF36F8F07E004F152
:105880001000FFF7A9FA04F12400FFF7A5FAFFF7CB
:1058900003FB012070BD000004ED00E02DE9FF4393
:1058A00083B0064688461D464FF00009344654B979
:1058B00000BF502080F31188BFF34F8FBFF36F8F6D
:1058C00000BF00BFFEE7B8F1000F01D1206C08B99E
:1058D000012000E0002050B900BF502080F3118863
:1058E000BFF34F8FBFF36F8F00BF00BFFEE7022DE6
:1058F00002D1E06B012801D1012000E0002050B965
:1059000000BF502080F31188BFF34F8FBFF36F8F1C
:1059100000BF00BFFEE700F0F7F908B9059808B925
:10592000012000E0002050B900BF502080F3118812
:10593000BFF34F8FBFF36F8F00BF00BFFEE700BF05
:10594000FFF780FAA06BE16B884201D3022D28D1CA
:105950002A4641462046FEF7C6FD0746606A08B95A
:10596000012000E0002068B904F1240000F0EAFA08
:1059700088B14FF0805032490860BFF34F8FBFF3BA
:105980006F8F08E03FB14FF080502D490860BFF3A2
:105990004F8FBFF36F8FFFF77FFA012007B0BDE88D
:1059A000F083059818B9FFF777FA0020F6E7B9F108
:1059B000000F04D101A8FFF727FC4FF00109FFF702
:1059C0006BFAFFF783FCFFF73DFA94F94400401CA3
:1059D00010B9002084F8440094F94500401C10B927
:1059E000002084F84500FFF757FA05A901A800F048
:1059F00015F9F0B92046FEF734FFA0B104F110000C
:105A00000599FFF76DFB2046FFF7CFF800F03EFB4E
:105A1000002895D14FF0805009490860BFF34F8F9F
:105A2000BFF36F8F8CE72046FFF7BFF800F02EFB27
:105A300086E72046FFF7B9F800F028FB0020ADE725
:105A400004ED00E02DE9F05F07468A4690461E46C9
:105A50003C4654B900BF502080F31188BFF34F8FEC
:105A6000BFF36F8F00BF00BFFEE7BAF1000F01D197
:105A7000206C08B9012000E0002050B900BF502080
:105A800080F31188BFF34F8FBFF36F8F00BF00BF4C
:105A9000FEE7022E02D1E06B012801D1012000E0D7
:105AA000002050B900BF502080F31188BFF34F8F02
:105AB000BFF36F8F00BF00BFFEE7FFF765FA00BFBF
:105AC0005021EFF3118081F31188BFF34F8FBFF3A3
:105AD0006F8F00BF0546A06BE16B884201D3022E99
